{
    "contractName": "BaseRegistrarImplementation",
    "abi": [
        {
            "inputs": [
                {
                    "internalType": "contract ENS",
                    "name": "_ens",
                    "type": "address"
                },
                {
                    "internalType": "bytes32",
                    "name": "_baseNode",
                    "type": "bytes32"
                }
            ],
            "stateMutability": "nonpayable",
            "type": "constructor"
        },
        {
            "anonymous": false,
            "inputs": [
                {
                    "indexed": true,
                    "internalType": "address",
                    "name": "owner",
                    "type": "address"
                },
                {
                    "indexed": true,
                    "internalType": "address",
                    "name": "approved",
                    "type": "address"
                },
                {
                    "indexed": true,
                    "internalType": "uint256",
                    "name": "tokenId",
                    "type": "uint256"
                }
            ],
            "name": "Approval",
            "type": "event"
        },
        {
            "anonymous": false,
            "inputs": [
                {
                    "indexed": true,
                    "internalType": "address",
                    "name": "owner",
                    "type": "address"
                },
                {
                    "indexed": true,
                    "internalType": "address",
                    "name": "operator",
                    "type": "address"
                },
                {
                    "indexed": false,
                    "internalType": "bool",
                    "name": "approved",
                    "type": "bool"
                }
            ],
            "name": "ApprovalForAll",
            "type": "event"
        },
        {
            "anonymous": false,
            "inputs": [
                {
                    "indexed": true,
                    "internalType": "address",
                    "name": "controller",
                    "type": "address"
                }
            ],
            "name": "ControllerAdded",
            "type": "event"
        },
        {
            "anonymous": false,
            "inputs": [
                {
                    "indexed": true,
                    "internalType": "address",
                    "name": "controller",
                    "type": "address"
                }
            ],
            "name": "ControllerRemoved",
            "type": "event"
        },
        {
            "anonymous": false,
            "inputs": [
                {
                    "indexed": true,
                    "internalType": "uint256",
                    "name": "id",
                    "type": "uint256"
                },
                {
                    "indexed": true,
                    "internalType": "address",
                    "name": "owner",
                    "type": "address"
                }
            ],
            "name": "NameMigrated",
            "type": "event"
        },
        {
            "anonymous": false,
            "inputs": [
                {
                    "indexed": true,
                    "internalType": "uint256",
                    "name": "id",
                    "type": "uint256"
                },
                {
                    "indexed": true,
                    "internalType": "address",
                    "name": "owner",
                    "type": "address"
                }
            ],
            "name": "NameRegistered",
            "type": "event"
        },
        {
            "anonymous": false,
            "inputs": [
                {
                    "indexed": true,
                    "internalType": "address",
                    "name": "previousOwner",
                    "type": "address"
                },
                {
                    "indexed": true,
                    "internalType": "address",
                    "name": "newOwner",
                    "type": "address"
                }
            ],
            "name": "OwnershipTransferred",
            "type": "event"
        },
        {
            "anonymous": false,
            "inputs": [
                {
                    "indexed": true,
                    "internalType": "address",
                    "name": "from",
                    "type": "address"
                },
                {
                    "indexed": true,
                    "internalType": "address",
                    "name": "to",
                    "type": "address"
                },
                {
                    "indexed": true,
                    "internalType": "uint256",
                    "name": "tokenId",
                    "type": "uint256"
                }
            ],
            "name": "Transfer",
            "type": "event"
        },
        {
            "inputs": [
                {
                    "internalType": "address",
                    "name": "to",
                    "type": "address"
                },
                {
                    "internalType": "uint256",
                    "name": "tokenId",
                    "type": "uint256"
                }
            ],
            "name": "approve",
            "outputs": [],
            "stateMutability": "nonpayable",
            "type": "function"
        },
        {
            "inputs": [
                {
                    "internalType": "address",
                    "name": "owner",
                    "type": "address"
                }
            ],
            "name": "balanceOf",
            "outputs": [
                {
                    "internalType": "uint256",
                    "name": "",
                    "type": "uint256"
                }
            ],
            "stateMutability": "view",
            "type": "function",
            "constant": true
        },
        {
            "inputs": [],
            "name": "baseNode",
            "outputs": [
                {
                    "internalType": "bytes32",
                    "name": "",
                    "type": "bytes32"
                }
            ],
            "stateMutability": "view",
            "type": "function",
            "constant": true
        },
        {
            "inputs": [
                {
                    "internalType": "address",
                    "name": "",
                    "type": "address"
                }
            ],
            "name": "controllers",
            "outputs": [
                {
                    "internalType": "bool",
                    "name": "",
                    "type": "bool"
                }
            ],
            "stateMutability": "view",
            "type": "function",
            "constant": true
        },
        {
            "inputs": [],
            "name": "ens",
            "outputs": [
                {
                    "internalType": "contract ENS",
                    "name": "",
                    "type": "address"
                }
            ],
            "stateMutability": "view",
            "type": "function",
            "constant": true
        },
        {
            "inputs": [
                {
                    "internalType": "uint256",
                    "name": "tokenId",
                    "type": "uint256"
                }
            ],
            "name": "getApproved",
            "outputs": [
                {
                    "internalType": "address",
                    "name": "",
                    "type": "address"
                }
            ],
            "stateMutability": "view",
            "type": "function",
            "constant": true
        },
        {
            "inputs": [
                {
                    "internalType": "address",
                    "name": "owner",
                    "type": "address"
                },
                {
                    "internalType": "address",
                    "name": "operator",
                    "type": "address"
                }
            ],
            "name": "isApprovedForAll",
            "outputs": [
                {
                    "internalType": "bool",
                    "name": "",
                    "type": "bool"
                }
            ],
            "stateMutability": "view",
            "type": "function",
            "constant": true
        },
        {
            "inputs": [],
            "name": "name",
            "outputs": [
                {
                    "internalType": "string",
                    "name": "",
                    "type": "string"
                }
            ],
            "stateMutability": "view",
            "type": "function",
            "constant": true
        },
        {
            "inputs": [],
            "name": "owner",
            "outputs": [
                {
                    "internalType": "address",
                    "name": "",
                    "type": "address"
                }
            ],
            "stateMutability": "view",
            "type": "function",
            "constant": true
        },
        {
            "inputs": [
                {
                    "internalType": "uint256",
                    "name": "tokenId",
                    "type": "uint256"
                }
            ],
            "name": "ownerOf",
            "outputs": [
                {
                    "internalType": "address",
                    "name": "",
                    "type": "address"
                }
            ],
            "stateMutability": "view",
            "type": "function",
            "constant": true
        },
        {
            "inputs": [],
            "name": "renounceOwnership",
            "outputs": [],
            "stateMutability": "nonpayable",
            "type": "function"
        },
        {
            "inputs": [
                {
                    "internalType": "address",
                    "name": "from",
                    "type": "address"
                },
                {
                    "internalType": "address",
                    "name": "to",
                    "type": "address"
                },
                {
                    "internalType": "uint256",
                    "name": "tokenId",
                    "type": "uint256"
                }
            ],
            "name": "safeTransferFrom",
            "outputs": [],
            "stateMutability": "nonpayable",
            "type": "function"
        },
        {
            "inputs": [
                {
                    "internalType": "address",
                    "name": "from",
                    "type": "address"
                },
                {
                    "internalType": "address",
                    "name": "to",
                    "type": "address"
                },
                {
                    "internalType": "uint256",
                    "name": "tokenId",
                    "type": "uint256"
                },
                {
                    "internalType": "bytes",
                    "name": "_data",
                    "type": "bytes"
                }
            ],
            "name": "safeTransferFrom",
            "outputs": [],
            "stateMutability": "nonpayable",
            "type": "function"
        },
        {
            "inputs": [
                {
                    "internalType": "address",
                    "name": "operator",
                    "type": "address"
                },
                {
                    "internalType": "bool",
                    "name": "approved",
                    "type": "bool"
                }
            ],
            "name": "setApprovalForAll",
            "outputs": [],
            "stateMutability": "nonpayable",
            "type": "function"
        },
        {
            "inputs": [],
            "name": "symbol",
            "outputs": [
                {
                    "internalType": "string",
                    "name": "",
                    "type": "string"
                }
            ],
            "stateMutability": "view",
            "type": "function",
            "constant": true
        },
        {
            "inputs": [
                {
                    "internalType": "uint256",
                    "name": "tokenId",
                    "type": "uint256"
                }
            ],
            "name": "tokenURI",
            "outputs": [
                {
                    "internalType": "string",
                    "name": "",
                    "type": "string"
                }
            ],
            "stateMutability": "view",
            "type": "function",
            "constant": true
        },
        {
            "inputs": [
                {
                    "internalType": "address",
                    "name": "from",
                    "type": "address"
                },
                {
                    "internalType": "address",
                    "name": "to",
                    "type": "address"
                },
                {
                    "internalType": "uint256",
                    "name": "tokenId",
                    "type": "uint256"
                }
            ],
            "name": "transferFrom",
            "outputs": [],
            "stateMutability": "nonpayable",
            "type": "function"
        },
        {
            "inputs": [
                {
                    "internalType": "address",
                    "name": "newOwner",
                    "type": "address"
                }
            ],
            "name": "transferOwnership",
            "outputs": [],
            "stateMutability": "nonpayable",
            "type": "function"
        },
        {
            "inputs": [
                {
                    "internalType": "address",
                    "name": "controller",
                    "type": "address"
                }
            ],
            "name": "addController",
            "outputs": [],
            "stateMutability": "nonpayable",
            "type": "function"
        },
        {
            "inputs": [
                {
                    "internalType": "address",
                    "name": "controller",
                    "type": "address"
                }
            ],
            "name": "removeController",
            "outputs": [],
            "stateMutability": "nonpayable",
            "type": "function"
        },
        {
            "inputs": [
                {
                    "internalType": "address",
                    "name": "resolver",
                    "type": "address"
                }
            ],
            "name": "setResolver",
            "outputs": [],
            "stateMutability": "nonpayable",
            "type": "function"
        },
        {
            "inputs": [
                {
                    "internalType": "uint256",
                    "name": "id",
                    "type": "uint256"
                }
            ],
            "name": "available",
            "outputs": [
                {
                    "internalType": "bool",
                    "name": "",
                    "type": "bool"
                }
            ],
            "stateMutability": "view",
            "type": "function",
            "constant": true
        },
        {
            "inputs": [
                {
                    "internalType": "uint256",
                    "name": "id",
                    "type": "uint256"
                },
                {
                    "internalType": "address",
                    "name": "owner",
                    "type": "address"
                }
            ],
            "name": "register",
            "outputs": [],
            "stateMutability": "nonpayable",
            "type": "function"
        },
        {
            "inputs": [
                {
                    "internalType": "uint256",
                    "name": "id",
                    "type": "uint256"
                },
                {
                    "internalType": "address",
                    "name": "owner",
                    "type": "address"
                }
            ],
            "name": "registerOnly",
            "outputs": [],
            "stateMutability": "nonpayable",
            "type": "function"
        },
        {
            "inputs": [
                {
                    "internalType": "uint256",
                    "name": "id",
                    "type": "uint256"
                },
                {
                    "internalType": "address",
                    "name": "owner",
                    "type": "address"
                }
            ],
            "name": "reclaim",
            "outputs": [],
            "stateMutability": "nonpayable",
            "type": "function"
        },
        {
            "inputs": [
                {
                    "internalType": "bytes4",
                    "name": "interfaceId",
                    "type": "bytes4"
                }
            ],
            "name": "supportsInterface",
            "outputs": [
                {
                    "internalType": "bool",
                    "name": "",
                    "type": "bool"
                }
            ],
            "stateMutability": "pure",
            "type": "function",
            "constant": true
        }
    ],
    "bytecode": "0x60806040523480156200001157600080fd5b5060405162003b9938038062003b998339818101604052810190620000379190620002f1565b6040518060400160405280601381526020017f5468657461626f617264526567697374726172000000000000000000000000008152506040518060400160405280600381526020017f5442520000000000000000000000000000000000000000000000000000000000815250620000c3620000b76200014760201b60201c565b6200014f60201b60201c565b8160049080519060200190620000db92919062000213565b508060059080519060200190620000f492919062000213565b50505081600160006101000a81548173ffffffffffffffffffffffffffffffffffffffff021916908373ffffffffffffffffffffffffffffffffffffffff1602179055508060028190555050506200041d565b600033905090565b60008060009054906101000a900473ffffffffffffffffffffffffffffffffffffffff169050816000806101000a81548173ffffffffffffffffffffffffffffffffffffffff021916908373ffffffffffffffffffffffffffffffffffffffff1602179055508173ffffffffffffffffffffffffffffffffffffffff168173ffffffffffffffffffffffffffffffffffffffff167f8be0079c531659141344cd1fd0a4f28419497f9722a3daafe3b4186f6b6457e060405160405180910390a35050565b828054620002219062000384565b90600052602060002090601f01602090048101928262000245576000855562000291565b82601f106200026057805160ff191683800117855562000291565b8280016001018555821562000291579182015b828111156200029057825182559160200191906001019062000273565b5b509050620002a09190620002a4565b5090565b5b80821115620002bf576000816000905550600101620002a5565b5090565b600081519050620002d481620003e9565b92915050565b600081519050620002eb8162000403565b92915050565b600080604083850312156200030557600080fd5b60006200031585828601620002da565b92505060206200032885828601620002c3565b9150509250929050565b60006200033f8262000364565b9050919050565b6000819050919050565b60006200035d8262000332565b9050919050565b600073ffffffffffffffffffffffffffffffffffffffff82169050919050565b600060028204905060018216806200039d57607f821691505b60208210811415620003b457620003b3620003ba565b5b50919050565b7f4e487b7100000000000000000000000000000000000000000000000000000000600052602260045260246000fd5b620003f48162000346565b81146200040057600080fd5b50565b6200040e8162000350565b81146200041a57600080fd5b50565b61376c806200042d6000396000f3fe608060405234801561001057600080fd5b50600436106101ae5760003560e01c80638da5cb5b116100ee578063c87b56dd11610097578063ddf7fcb011610071578063ddf7fcb01461049d578063e985e9c5146104bb578063f2fde38b146104eb578063f6a74ed714610507576101ae565b8063c87b56dd14610421578063da8c229e14610451578063dbbdf08314610481576101ae565b8063a22cb465116100c8578063a22cb465146103cd578063a7fc7a07146103e9578063b88d4fde14610405576101ae565b80638da5cb5b1461036157806395d89b411461037f57806396e494e81461039d576101ae565b80633f15457f1161015b57806352dc67161161013557806352dc6716146102db5780636352211e146102f757806370a0823114610327578063715018a614610357576101ae565b80633f15457f1461028557806342842e0e146102a35780634e543b26146102bf576101ae565b8063095ea7b31161018c578063095ea7b31461023157806323b872dd1461024d57806328ed4f6c14610269576101ae565b806301ffc9a7146101b357806306fdde03146101e3578063081812fc14610201575b600080fd5b6101cd60048036038101906101c891906126a9565b610523565b6040516101da9190612b2c565b60405180910390f35b6101eb61076d565b6040516101f89190612bdd565b60405180910390f35b61021b600480360381019061021691906126fb565b6107ff565b6040516102289190612ac5565b60405180910390f35b61024b60048036038101906102469190612644565b610884565b005b6102676004803603810190610262919061253e565b61099c565b005b610283600480360381019061027e9190612724565b6109fc565b005b61028d610bae565b60405161029a9190612bc2565b60405180910390f35b6102bd60048036038101906102b8919061253e565b610bd4565b005b6102d960048036038101906102d491906124b0565b610bf4565b005b6102f560048036038101906102f09190612724565b610d04565b005b610311600480360381019061030c91906126fb565b610d14565b60405161031e9190612ac5565b60405180910390f35b610341600480360381019061033c91906124b0565b610dc6565b60405161034e9190612e1f565b60405180910390f35b61035f610e7e565b005b610369610f06565b6040516103769190612ac5565b60405180910390f35b610387610f2f565b6040516103949190612bdd565b60405180910390f35b6103b760048036038101906103b291906126fb565b610fc1565b6040516103c49190612b2c565b60405180910390f35b6103e760048036038101906103e29190612608565b610fd4565b005b61040360048036038101906103fe91906124b0565b611155565b005b61041f600480360381019061041a919061258d565b61126f565b005b61043b600480360381019061043691906126fb565b6112d1565b6040516104489190612bdd565b60405180910390f35b61046b600480360381019061046691906124b0565b611378565b6040516104789190612b2c565b60405180910390f35b61049b60048036038101906104969190612724565b611398565b005b6104a56113a8565b6040516104b29190612b47565b60405180910390f35b6104d560048036038101906104d09190612502565b6113ae565b6040516104e29190612b2c565b60405180910390f35b610505600480360381019061050091906124b0565b611442565b005b610521600480360381019061051c91906124b0565b61153a565b005b60007f01ffc9a7a5cef8baa21ed3c5c0d7e23accb804b619e9333b597f47a0d84076e27bffffffffffffffffffffffffffffffffffffffffffffffffffffffff1916827bffffffffffffffffffffffffffffffffffffffffffffffffffffffff191614806106fe57507fb88d4fde60196325a28bb7f99a2582e0b46de55b18761e960c14ad7a320994657f42842e0eb38857a7775b4e7364b2775df7325074d088e7fb39590cd6281184ed7f23b872dd7302113369cda2901243429419bec145408fa8b352b3dd92b66c680b7fe985e9c5c6636c6879256001057b28ccac7718ef0ac56553ff9b926452cab8a37fa22cb4651ab9570f89bb516380c40ce76762284fb1f21337ceaf6adab99e7d4a7f081812fc55e34fdc7cf5d8b5cf4e3621fa6423fde952ec6ab24afdc0d85c0b2e7f095ea7b334ae44009aa867bfb386f5c3b4b443ac6f0ee573fa91c4608fbadfba7f6352211e6566aa027e75ac9dbf2423197fbd9b82b9d981a3ab367d355866aa1c7f70a08231b98ef4ca268c9cc3f6b4590e4bfec28280db06bb5d45e689f2a360be18181818181818187bffffffffffffffffffffffffffffffffffffffffffffffffffffffff1916827bffffffffffffffffffffffffffffffffffffffffffffffffffffffff1916145b8061076657507f28ed4f6c74b219a5819055dfbcd2f1837c046c364cf01fabb6799e4f440d6f137bffffffffffffffffffffffffffffffffffffffffffffffffffffffff1916827bffffffffffffffffffffffffffffffffffffffffffffffffffffffff1916145b9050919050565b60606004805461077c90613072565b80601f01602080910402602001604051908101604052809291908181526020018280546107a890613072565b80156107f55780601f106107ca576101008083540402835291602001916107f5565b820191906000526020600020905b8154815290600101906020018083116107d857829003601f168201915b5050505050905090565b600061080a82611654565b610849576040517f08c379a000000000000000000000000000000000000000000000000000000000815260040161084090612d3f565b60405180910390fd5b6008600083815260200190815260200160002060009054906101000a900473ffffffffffffffffffffffffffffffffffffffff169050919050565b600061088f82610d14565b90508073ffffffffffffffffffffffffffffffffffffffff168373ffffffffffffffffffffffffffffffffffffffff161415610900576040517f08c379a00000000000000000000000000000000000000000000000000000000081526004016108f790612ddf565b60405180910390fd5b8073ffffffffffffffffffffffffffffffffffffffff1661091f6116c0565b73ffffffffffffffffffffffffffffffffffffffff16148061094e575061094d816109486116c0565b6113ae565b5b61098d576040517f08c379a000000000000000000000000000000000000000000000000000000000815260040161098490612cbf565b60405180910390fd5b61099783836116c8565b505050565b6109ad6109a76116c0565b82611781565b6109ec576040517f08c379a00000000000000000000000000000000000000000000000000000000081526004016109e390612dff565b60405180910390fd5b6109f783838361185f565b505050565b3073ffffffffffffffffffffffffffffffffffffffff16600160009054906101000a900473ffffffffffffffffffffffffffffffffffffffff1673ffffffffffffffffffffffffffffffffffffffff166302571be36002546040518263ffffffff1660e01b8152600401610a709190612b47565b60206040518083038186803b158015610a8857600080fd5b505afa158015610a9c573d6000803e3d6000fd5b505050506040513d601f19601f82011682018060405250810190610ac091906124d9565b73ffffffffffffffffffffffffffffffffffffffff1614610ae057600080fd5b610aea3383611781565b610af357600080fd5b600160009054906101000a900473ffffffffffffffffffffffffffffffffffffffff1673ffffffffffffffffffffffffffffffffffffffff166306ab59236002548460001b846040518463ffffffff1660e01b8152600401610b5793929190612b8b565b602060405180830381600087803b158015610b7157600080fd5b505af1158015610b85573d6000803e3d6000fd5b505050506040513d601f19601f82011682018060405250810190610ba99190612680565b505050565b600160009054906101000a900473ffffffffffffffffffffffffffffffffffffffff1681565b610bef8383836040518060200160405280600081525061126f565b505050565b610bfc6116c0565b73ffffffffffffffffffffffffffffffffffffffff16610c1a610f06565b73ffffffffffffffffffffffffffffffffffffffff1614610c70576040517f08c379a0000000000000000000000000000000000000000000000000000000008152600401610c6790612d5f565b60405180910390fd5b600160009054906101000a900473ffffffffffffffffffffffffffffffffffffffff1673ffffffffffffffffffffffffffffffffffffffff16631896f70a600254836040518363ffffffff1660e01b8152600401610ccf929190612b62565b600060405180830381600087803b158015610ce957600080fd5b505af1158015610cfd573d6000803e3d6000fd5b5050505050565b610d1082826000611abb565b5050565b6000806006600084815260200190815260200160002060009054906101000a900473ffffffffffffffffffffffffffffffffffffffff169050600073ffffffffffffffffffffffffffffffffffffffff168173ffffffffffffffffffffffffffffffffffffffff161415610dbd576040517f08c379a0000000000000000000000000000000000000000000000000000000008152600401610db490612cff565b60405180910390fd5b80915050919050565b60008073ffffffffffffffffffffffffffffffffffffffff168273ffffffffffffffffffffffffffffffffffffffff161415610e37576040517f08c379a0000000000000000000000000000000000000000000000000000000008152600401610e2e90612cdf565b60405180910390fd5b600760008373ffffffffffffffffffffffffffffffffffffffff1673ffffffffffffffffffffffffffffffffffffffff168152602001908152602001600020549050919050565b610e866116c0565b73ffffffffffffffffffffffffffffffffffffffff16610ea4610f06565b73ffffffffffffffffffffffffffffffffffffffff1614610efa576040517f08c379a0000000000000000000000000000000000000000000000000000000008152600401610ef190612d5f565b60405180910390fd5b610f046000611d54565b565b60008060009054906101000a900473ffffffffffffffffffffffffffffffffffffffff16905090565b606060058054610f3e90613072565b80601f0160208091040260200160405190810160405280929190818152602001828054610f6a90613072565b8015610fb75780601f10610f8c57610100808354040283529160200191610fb7565b820191906000526020600020905b815481529060010190602001808311610f9a57829003601f168201915b5050505050905090565b6000610fcc82611654565b159050919050565b610fdc6116c0565b73ffffffffffffffffffffffffffffffffffffffff168273ffffffffffffffffffffffffffffffffffffffff16141561104a576040517f08c379a000000000000000000000000000000000000000000000000000000000815260040161104190612c7f565b60405180910390fd5b80600960006110576116c0565b73ffffffffffffffffffffffffffffffffffffffff1673ffffffffffffffffffffffffffffffffffffffff16815260200190815260200160002060008473ffffffffffffffffffffffffffffffffffffffff1673ffffffffffffffffffffffffffffffffffffffff16815260200190815260200160002060006101000a81548160ff0219169083151502179055508173ffffffffffffffffffffffffffffffffffffffff166111046116c0565b73ffffffffffffffffffffffffffffffffffffffff167f17307eab39ab6107e8899845ad3d59bd9653f200f220920489ca2b5937696c31836040516111499190612b2c565b60405180910390a35050565b61115d6116c0565b73ffffffffffffffffffffffffffffffffffffffff1661117b610f06565b73ffffffffffffffffffffffffffffffffffffffff16146111d1576040517f08c379a00000000000000000000000000000000000000000000000000000000081526004016111c890612d5f565b60405180910390fd5b6001600360008373ffffffffffffffffffffffffffffffffffffffff1673ffffffffffffffffffffffffffffffffffffffff16815260200190815260200160002060006101000a81548160ff0219169083151502179055508073ffffffffffffffffffffffffffffffffffffffff167f0a8bb31534c0ed46f380cb867bd5c803a189ced9a764e30b3a4991a9901d747460405160405180910390a250565b61128061127a6116c0565b83611781565b6112bf576040517f08c379a00000000000000000000000000000000000000000000000000000000081526004016112b690612dff565b60405180910390fd5b6112cb84848484611e18565b50505050565b60606112dc82611654565b61131b576040517f08c379a000000000000000000000000000000000000000000000000000000000815260040161131290612d9f565b60405180910390fd5b6000611325611e74565b905060008151116113455760405180602001604052806000815250611370565b8061134f84611e8b565b604051602001611360929190612aa1565b6040516020818303038152906040525b915050919050565b60036020528060005260406000206000915054906101000a900460ff1681565b6113a482826001611abb565b5050565b60025481565b6000600960008473ffffffffffffffffffffffffffffffffffffffff1673ffffffffffffffffffffffffffffffffffffffff16815260200190815260200160002060008373ffffffffffffffffffffffffffffffffffffffff1673ffffffffffffffffffffffffffffffffffffffff16815260200190815260200160002060009054906101000a900460ff16905092915050565b61144a6116c0565b73ffffffffffffffffffffffffffffffffffffffff16611468610f06565b73ffffffffffffffffffffffffffffffffffffffff16146114be576040517f08c379a00000000000000000000000000000000000000000000000000000000081526004016114b590612d5f565b60405180910390fd5b600073ffffffffffffffffffffffffffffffffffffffff168173ffffffffffffffffffffffffffffffffffffffff16141561152e576040517f08c379a000000000000000000000000000000000000000000000000000000000815260040161152590612c1f565b60405180910390fd5b61153781611d54565b50565b6115426116c0565b73ffffffffffffffffffffffffffffffffffffffff16611560610f06565b73ffffffffffffffffffffffffffffffffffffffff16146115b6576040517f08c379a00000000000000000000000000000000000000000000000000000000081526004016115ad90612d5f565b60405180910390fd5b6000600360008373ffffffffffffffffffffffffffffffffffffffff1673ffffffffffffffffffffffffffffffffffffffff16815260200190815260200160002060006101000a81548160ff0219169083151502179055508073ffffffffffffffffffffffffffffffffffffffff167f33d83959be2573f5453b12eb9d43b3499bc57d96bd2f067ba44803c859e8111360405160405180910390a250565b60008073ffffffffffffffffffffffffffffffffffffffff166006600084815260200190815260200160002060009054906101000a900473ffffffffffffffffffffffffffffffffffffffff1673ffffffffffffffffffffffffffffffffffffffff1614159050919050565b600033905090565b816008600083815260200190815260200160002060006101000a81548173ffffffffffffffffffffffffffffffffffffffff021916908373ffffffffffffffffffffffffffffffffffffffff160217905550808273ffffffffffffffffffffffffffffffffffffffff1661173b83610d14565b73ffffffffffffffffffffffffffffffffffffffff167f8c5be1e5ebec7d5bd14f71427d1e84f3dd0314c0f7b2291e5b200ac8c7c3b92560405160405180910390a45050565b600061178c82611654565b6117cb576040517f08c379a00000000000000000000000000000000000000000000000000000000081526004016117c290612c9f565b60405180910390fd5b60006117d683610d14565b90508073ffffffffffffffffffffffffffffffffffffffff168473ffffffffffffffffffffffffffffffffffffffff16148061184557508373ffffffffffffffffffffffffffffffffffffffff1661182d846107ff565b73ffffffffffffffffffffffffffffffffffffffff16145b80611856575061185581856113ae565b5b91505092915050565b8273ffffffffffffffffffffffffffffffffffffffff1661187f82610d14565b73ffffffffffffffffffffffffffffffffffffffff16146118d5576040517f08c379a00000000000000000000000000000000000000000000000000000000081526004016118cc90612d7f565b60405180910390fd5b600073ffffffffffffffffffffffffffffffffffffffff168273ffffffffffffffffffffffffffffffffffffffff161415611945576040517f08c379a000000000000000000000000000000000000000000000000000000000815260040161193c90612c5f565b60405180910390fd5b611950838383612038565b61195b6000826116c8565b6001600760008573ffffffffffffffffffffffffffffffffffffffff1673ffffffffffffffffffffffffffffffffffffffff16815260200190815260200160002060008282546119ab9190612f5a565b925050819055506001600760008473ffffffffffffffffffffffffffffffffffffffff1673ffffffffffffffffffffffffffffffffffffffff1681526020019081526020016000206000828254611a029190612ed3565b92505081905550816006600083815260200190815260200160002060006101000a81548173ffffffffffffffffffffffffffffffffffffffff021916908373ffffffffffffffffffffffffffffffffffffffff160217905550808273ffffffffffffffffffffffffffffffffffffffff168473ffffffffffffffffffffffffffffffffffffffff167fddf252ad1be2c89b69c2b068fc378daa952ba7f163c4a11628f55a4df523b3ef60405160405180910390a4505050565b3073ffffffffffffffffffffffffffffffffffffffff16600160009054906101000a900473ffffffffffffffffffffffffffffffffffffffff1673ffffffffffffffffffffffffffffffffffffffff166302571be36002546040518263ffffffff1660e01b8152600401611b2f9190612b47565b60206040518083038186803b158015611b4757600080fd5b505afa158015611b5b573d6000803e3d6000fd5b505050506040513d601f19601f82011682018060405250810190611b7f91906124d9565b73ffffffffffffffffffffffffffffffffffffffff1614611b9f57600080fd5b600360003373ffffffffffffffffffffffffffffffffffffffff1673ffffffffffffffffffffffffffffffffffffffff16815260200190815260200160002060009054906101000a900460ff16611bf557600080fd5b60001515611c0284611654565b151514611c44576040517f08c379a0000000000000000000000000000000000000000000000000000000008152600401611c3b90612dbf565b60405180910390fd5b611c4e828461203d565b8015611d0c57600160009054906101000a900473ffffffffffffffffffffffffffffffffffffffff1673ffffffffffffffffffffffffffffffffffffffff166306ab59236002548560001b856040518463ffffffff1660e01b8152600401611cb893929190612b8b565b602060405180830381600087803b158015611cd257600080fd5b505af1158015611ce6573d6000803e3d6000fd5b505050506040513d601f19601f82011682018060405250810190611d0a9190612680565b505b8173ffffffffffffffffffffffffffffffffffffffff16837e834ad8d7a1d8421d149549c7292d11385f5a042a008771d26ffd2d76db6e7460405160405180910390a3505050565b60008060009054906101000a900473ffffffffffffffffffffffffffffffffffffffff169050816000806101000a81548173ffffffffffffffffffffffffffffffffffffffff021916908373ffffffffffffffffffffffffffffffffffffffff1602179055508173ffffffffffffffffffffffffffffffffffffffff168173ffffffffffffffffffffffffffffffffffffffff167f8be0079c531659141344cd1fd0a4f28419497f9722a3daafe3b4186f6b6457e060405160405180910390a35050565b611e2384848461185f565b611e2f8484848461220b565b611e6e576040517f08c379a0000000000000000000000000000000000000000000000000000000008152600401611e6590612bff565b60405180910390fd5b50505050565b606060405180602001604052806000815250905090565b60606000821415611ed3576040518060400160405280600181526020017f30000000000000000000000000000000000000000000000000000000000000008152509050612033565b600082905060005b60008214611f05578080611eee906130d5565b915050600a82611efe9190612f29565b9150611edb565b60008167ffffffffffffffff811115611f47577f4e487b7100000000000000000000000000000000000000000000000000000000600052604160045260246000fd5b6040519080825280601f01601f191660200182016040528015611f795781602001600182028036833780820191505090505b5090505b6000851461202c57600182611f929190612f5a565b9150600a85611fa1919061311e565b6030611fad9190612ed3565b60f81b818381518110611fe9577f4e487b7100000000000000000000000000000000000000000000000000000000600052603260045260246000fd5b60200101907effffffffffffffffffffffffffffffffffffffffffffffffffffffffffffff1916908160001a905350600a856120259190612f29565b9450611f7d565b8093505050505b919050565b505050565b600073ffffffffffffffffffffffffffffffffffffffff168273ffffffffffffffffffffffffffffffffffffffff1614156120ad576040517f08c379a00000000000000000000000000000000000000000000000000000000081526004016120a490612d1f565b60405180910390fd5b6120b681611654565b156120f6576040517f08c379a00000000000000000000000000000000000000000000000000000000081526004016120ed90612c3f565b60405180910390fd5b61210260008383612038565b6001600760008473ffffffffffffffffffffffffffffffffffffffff1673ffffffffffffffffffffffffffffffffffffffff16815260200190815260200160002060008282546121529190612ed3565b92505081905550816006600083815260200190815260200160002060006101000a81548173ffffffffffffffffffffffffffffffffffffffff021916908373ffffffffffffffffffffffffffffffffffffffff160217905550808273ffffffffffffffffffffffffffffffffffffffff16600073ffffffffffffffffffffffffffffffffffffffff167fddf252ad1be2c89b69c2b068fc378daa952ba7f163c4a11628f55a4df523b3ef60405160405180910390a45050565b600061222c8473ffffffffffffffffffffffffffffffffffffffff166123a2565b15612395578373ffffffffffffffffffffffffffffffffffffffff1663150b7a026122556116c0565b8786866040518563ffffffff1660e01b81526004016122779493929190612ae0565b602060405180830381600087803b15801561229157600080fd5b505af19250505080156122c257506040513d601f19601f820116820180604052508101906122bf91906126d2565b60015b612345573d80600081146122f2576040519150601f19603f3d011682016040523d82523d6000602084013e6122f7565b606091505b5060008151141561233d576040517f08c379a000000000000000000000000000000000000000000000000000000000815260040161233490612bff565b60405180910390fd5b805181602001fd5b63150b7a0260e01b7bffffffffffffffffffffffffffffffffffffffffffffffffffffffff1916817bffffffffffffffffffffffffffffffffffffffffffffffffffffffff19161491505061239a565b600190505b949350505050565b600080823b905060008111915050919050565b60006123c86123c384612e5f565b612e3a565b9050828152602081018484840111156123e057600080fd5b6123eb848285613030565b509392505050565b600081359050612402816136c3565b92915050565b600081519050612417816136c3565b92915050565b60008135905061242c816136da565b92915050565b600081519050612441816136f1565b92915050565b60008135905061245681613708565b92915050565b60008151905061246b81613708565b92915050565b600082601f83011261248257600080fd5b81356124928482602086016123b5565b91505092915050565b6000813590506124aa8161371f565b92915050565b6000602082840312156124c257600080fd5b60006124d0848285016123f3565b91505092915050565b6000602082840312156124eb57600080fd5b60006124f984828501612408565b91505092915050565b6000806040838503121561251557600080fd5b6000612523858286016123f3565b9250506020612534858286016123f3565b9150509250929050565b60008060006060848603121561255357600080fd5b6000612561868287016123f3565b9350506020612572868287016123f3565b92505060406125838682870161249b565b9150509250925092565b600080600080608085870312156125a357600080fd5b60006125b1878288016123f3565b94505060206125c2878288016123f3565b93505060406125d38782880161249b565b925050606085013567ffffffffffffffff8111156125f057600080fd5b6125fc87828801612471565b91505092959194509250565b6000806040838503121561261b57600080fd5b6000612629858286016123f3565b925050602061263a8582860161241d565b9150509250929050565b6000806040838503121561265757600080fd5b6000612665858286016123f3565b92505060206126768582860161249b565b9150509250929050565b60006020828403121561269257600080fd5b60006126a084828501612432565b91505092915050565b6000602082840312156126bb57600080fd5b60006126c984828501612447565b91505092915050565b6000602082840312156126e457600080fd5b60006126f28482850161245c565b91505092915050565b60006020828403121561270d57600080fd5b600061271b8482850161249b565b91505092915050565b6000806040838503121561273757600080fd5b60006127458582860161249b565b9250506020612756858286016123f3565b9150509250929050565b61276981612f8e565b82525050565b61277881612fa0565b82525050565b61278781612fac565b82525050565b600061279882612e90565b6127a28185612ea6565b93506127b281856020860161303f565b6127bb8161320b565b840191505092915050565b6127cf8161300c565b82525050565b60006127e082612e9b565b6127ea8185612eb7565b93506127fa81856020860161303f565b6128038161320b565b840191505092915050565b600061281982612e9b565b6128238185612ec8565b935061283381856020860161303f565b80840191505092915050565b600061284c603283612eb7565b91506128578261321c565b604082019050919050565b600061286f602683612eb7565b915061287a8261326b565b604082019050919050565b6000612892601c83612eb7565b915061289d826132ba565b602082019050919050565b60006128b5602483612eb7565b91506128c0826132e3565b604082019050919050565b60006128d8601983612eb7565b91506128e382613332565b602082019050919050565b60006128fb602c83612eb7565b91506129068261335b565b604082019050919050565b600061291e603883612eb7565b9150612929826133aa565b604082019050919050565b6000612941602a83612eb7565b915061294c826133f9565b604082019050919050565b6000612964602983612eb7565b915061296f82613448565b604082019050919050565b6000612987602083612eb7565b915061299282613497565b602082019050919050565b60006129aa602c83612eb7565b91506129b5826134c0565b604082019050919050565b60006129cd602083612eb7565b91506129d88261350f565b602082019050919050565b60006129f0602983612eb7565b91506129fb82613538565b604082019050919050565b6000612a13602f83612eb7565b9150612a1e82613587565b604082019050919050565b6000612a36603d83612eb7565b9150612a41826135d6565b604082019050919050565b6000612a59602183612eb7565b9150612a6482613625565b604082019050919050565b6000612a7c603183612eb7565b9150612a8782613674565b604082019050919050565b612a9b81613002565b82525050565b6000612aad828561280e565b9150612ab9828461280e565b91508190509392505050565b6000602082019050612ada6000830184612760565b92915050565b6000608082019050612af56000830187612760565b612b026020830186612760565b612b0f6040830185612a92565b8181036060830152612b21818461278d565b905095945050505050565b6000602082019050612b41600083018461276f565b92915050565b6000602082019050612b5c600083018461277e565b92915050565b6000604082019050612b77600083018561277e565b612b846020830184612760565b9392505050565b6000606082019050612ba0600083018661277e565b612bad602083018561277e565b612bba6040830184612760565b949350505050565b6000602082019050612bd760008301846127c6565b92915050565b60006020820190508181036000830152612bf781846127d5565b905092915050565b60006020820190508181036000830152612c188161283f565b9050919050565b60006020820190508181036000830152612c3881612862565b9050919050565b60006020820190508181036000830152612c5881612885565b9050919050565b60006020820190508181036000830152612c78816128a8565b9050919050565b60006020820190508181036000830152612c98816128cb565b9050919050565b60006020820190508181036000830152612cb8816128ee565b9050919050565b60006020820190508181036000830152612cd881612911565b9050919050565b60006020820190508181036000830152612cf881612934565b9050919050565b60006020820190508181036000830152612d1881612957565b9050919050565b60006020820190508181036000830152612d388161297a565b9050919050565b60006020820190508181036000830152612d588161299d565b9050919050565b60006020820190508181036000830152612d78816129c0565b9050919050565b60006020820190508181036000830152612d98816129e3565b9050919050565b60006020820190508181036000830152612db881612a06565b9050919050565b60006020820190508181036000830152612dd881612a29565b9050919050565b60006020820190508181036000830152612df881612a4c565b9050919050565b60006020820190508181036000830152612e1881612a6f565b9050919050565b6000602082019050612e346000830184612a92565b92915050565b6000612e44612e55565b9050612e5082826130a4565b919050565b6000604051905090565b600067ffffffffffffffff821115612e7a57612e796131dc565b5b612e838261320b565b9050602081019050919050565b600081519050919050565b600081519050919050565b600082825260208201905092915050565b600082825260208201905092915050565b600081905092915050565b6000612ede82613002565b9150612ee983613002565b9250827fffffffffffffffffffffffffffffffffffffffffffffffffffffffffffffffff03821115612f1e57612f1d61314f565b5b828201905092915050565b6000612f3482613002565b9150612f3f83613002565b925082612f4f57612f4e61317e565b5b828204905092915050565b6000612f6582613002565b9150612f7083613002565b925082821015612f8357612f8261314f565b5b828203905092915050565b6000612f9982612fe2565b9050919050565b60008115159050919050565b6000819050919050565b60007fffffffff0000000000000000000000000000000000000000000000000000000082169050919050565b600073ffffffffffffffffffffffffffffffffffffffff82169050919050565b6000819050919050565b60006130178261301e565b9050919050565b600061302982612fe2565b9050919050565b82818337600083830152505050565b60005b8381101561305d578082015181840152602081019050613042565b8381111561306c576000848401525b50505050565b6000600282049050600182168061308a57607f821691505b6020821081141561309e5761309d6131ad565b5b50919050565b6130ad8261320b565b810181811067ffffffffffffffff821117156130cc576130cb6131dc565b5b80604052505050565b60006130e082613002565b91507fffffffffffffffffffffffffffffffffffffffffffffffffffffffffffffffff8214156131135761311261314f565b5b600182019050919050565b600061312982613002565b915061313483613002565b9250826131445761314361317e565b5b828206905092915050565b7f4e487b7100000000000000000000000000000000000000000000000000000000600052601160045260246000fd5b7f4e487b7100000000000000000000000000000000000000000000000000000000600052601260045260246000fd5b7f4e487b7100000000000000000000000000000000000000000000000000000000600052602260045260246000fd5b7f4e487b7100000000000000000000000000000000000000000000000000000000600052604160045260246000fd5b6000601f19601f8301169050919050565b7f4552433732313a207472616e7366657220746f206e6f6e20455243373231526560008201527f63656976657220696d706c656d656e7465720000000000000000000000000000602082015250565b7f4f776e61626c653a206e6577206f776e657220697320746865207a65726f206160008201527f6464726573730000000000000000000000000000000000000000000000000000602082015250565b7f4552433732313a20746f6b656e20616c7265616479206d696e74656400000000600082015250565b7f4552433732313a207472616e7366657220746f20746865207a65726f2061646460008201527f7265737300000000000000000000000000000000000000000000000000000000602082015250565b7f4552433732313a20617070726f766520746f2063616c6c657200000000000000600082015250565b7f4552433732313a206f70657261746f7220717565727920666f72206e6f6e657860008201527f697374656e7420746f6b656e0000000000000000000000000000000000000000602082015250565b7f4552433732313a20617070726f76652063616c6c6572206973206e6f74206f7760008201527f6e6572206e6f7220617070726f76656420666f7220616c6c0000000000000000602082015250565b7f4552433732313a2062616c616e636520717565727920666f7220746865207a6560008201527f726f206164647265737300000000000000000000000000000000000000000000602082015250565b7f4552433732313a206f776e657220717565727920666f72206e6f6e657869737460008201527f656e7420746f6b656e0000000000000000000000000000000000000000000000602082015250565b7f4552433732313a206d696e7420746f20746865207a65726f2061646472657373600082015250565b7f4552433732313a20617070726f76656420717565727920666f72206e6f6e657860008201527f697374656e7420746f6b656e0000000000000000000000000000000000000000602082015250565b7f4f776e61626c653a2063616c6c6572206973206e6f7420746865206f776e6572600082015250565b7f4552433732313a207472616e73666572206f6620746f6b656e2074686174206960008201527f73206e6f74206f776e0000000000000000000000000000000000000000000000602082015250565b7f4552433732314d657461646174613a2055524920717565727920666f72206e6f60008201527f6e6578697374656e7420746f6b656e0000000000000000000000000000000000602082015250565b7f42617365526567697374726172496d706c656d656e746174696f6e3a205f726560008201527f6769737465722c207468697320494420616c7265616479206578697374000000602082015250565b7f4552433732313a20617070726f76616c20746f2063757272656e74206f776e6560008201527f7200000000000000000000000000000000000000000000000000000000000000602082015250565b7f4552433732313a207472616e736665722063616c6c6572206973206e6f74206f60008201527f776e6572206e6f7220617070726f766564000000000000000000000000000000602082015250565b6136cc81612f8e565b81146136d757600080fd5b50565b6136e381612fa0565b81146136ee57600080fd5b50565b6136fa81612fac565b811461370557600080fd5b50565b61371181612fb6565b811461371c57600080fd5b50565b61372881613002565b811461373357600080fd5b5056fea2646970667358221220ff34a6e62948f46a8ade735e38d6abda5cee93a19f317ff02723e8c7905171fb64736f6c63430008040033",
    "immutableReferences": {},
    "source": "// SPDX-License-Identifier: MIT\r\npragma solidity ^0.8.4;\r\n\r\nimport \"./interfaces/ENS.sol\";\r\nimport \"./abstract_contracts/BaseRegistrar.sol\";\r\nimport \"@openzeppelin/contracts/token/ERC721/ERC721.sol\";\r\n\r\ncontract BaseRegistrarImplementation is BaseRegistrar, ERC721 {\r\n    bytes4 constant private INTERFACE_META_ID = bytes4(keccak256(\"supportsInterface(bytes4)\"));\r\n    bytes4 constant private ERC721_ID = bytes4(\r\n        keccak256(\"balanceOf(address)\") ^\r\n        keccak256(\"ownerOf(uint256)\") ^\r\n        keccak256(\"approve(address,uint256)\") ^\r\n        keccak256(\"getApproved(uint256)\") ^\r\n        keccak256(\"setApprovalForAll(address,bool)\") ^\r\n        keccak256(\"isApprovedForAll(address,address)\") ^\r\n        keccak256(\"transferFrom(address,address,uint256)\") ^\r\n        keccak256(\"safeTransferFrom(address,address,uint256)\") ^\r\n        keccak256(\"safeTransferFrom(address,address,uint256,bytes)\")\r\n    );\r\n    bytes4 constant private RECLAIM_ID = bytes4(keccak256(\"reclaim(uint256,address)\"));\r\n\r\n    constructor(ENS _ens, bytes32 _baseNode) ERC721(\"ThetaboardRegistrar\", \"TBR\")  {\r\n        ens = _ens;\r\n        baseNode = _baseNode;\r\n    }\r\n\r\n    modifier live {\r\n        require(ens.owner(baseNode) == address(this));\r\n        _;\r\n    }\r\n\r\n    modifier onlyController {\r\n        require(controllers[msg.sender]);\r\n        _;\r\n    }\r\n\r\n    // Authorises a controller, who can register and renew domains.\r\n    function addController(address controller) external override onlyOwner {\r\n        controllers[controller] = true;\r\n        emit ControllerAdded(controller);\r\n    }\r\n\r\n    // Revoke controller permission for an address.\r\n    function removeController(address controller) external override onlyOwner {\r\n        controllers[controller] = false;\r\n        emit ControllerRemoved(controller);\r\n    }\r\n\r\n    // Set the resolver for the TLD this registrar manages.\r\n    function setResolver(address resolver) external override onlyOwner {\r\n        ens.setResolver(baseNode, resolver);\r\n    }\r\n\r\n     // Returns true iff the specified name is available for registration.\r\n    function available(uint256 id) public view override returns(bool) {\r\n        // Not available if it's registered here or in its grace period.\r\n        return !_exists(id);\r\n    }\r\n\r\n    /**\r\n     * @dev Register a name.\r\n     * @param id The token ID (keccak256 of the label).\r\n     * @param owner The address that should own the registration.\r\n     */\r\n    function register(uint256 id, address owner) external override {\r\n        _register(id, owner, true);\r\n    }\r\n\r\n    /**\r\n     * @dev Register a name, without modifying the registry.\r\n     * @param id The token ID (keccak256 of the label).\r\n     * @param owner The address that should own the registration.\r\n     */\r\n    function registerOnly(uint256 id, address owner) external {\r\n      _register(id, owner, false);\r\n    }\r\n\r\n    function _register(uint256 id, address owner, bool updateRegistry) internal live onlyController {\r\n        require(_exists(id) == false, \"BaseRegistrarImplementation: _register, this ID already exist\");\r\n\r\n        _mint(owner, id);\r\n\r\n        if(updateRegistry) {\r\n            ens.setSubnodeOwner(baseNode, bytes32(id), owner);\r\n        }\r\n\r\n        emit NameRegistered(id, owner);\r\n    }\r\n\r\n    /**\r\n     * @dev Reclaim ownership of a name in ENS, if you own it in the registrar.\r\n     */\r\n    function reclaim(uint256 id, address owner) external override live {\r\n        require(_isApprovedOrOwner(msg.sender, id));\r\n        ens.setSubnodeOwner(baseNode, bytes32(id), owner);\r\n    }\r\n\r\n    function supportsInterface(bytes4 interfaceId) public pure override(ERC721, IERC165) returns (bool) {\r\n        return interfaceId == INTERFACE_META_ID ||\r\n            interfaceId == ERC721_ID ||\r\n            interfaceId == RECLAIM_ID;\r\n    }\r\n}",
    "sourcePath": "D:\\Posao-Stefan\\Stefan-razno\\Blockchain\\Thetaboard\\core-contracts\\contracts\\BaseRegistrarImplementation.sol",
    "compiler": {
        "name": "solc",
        "version": "0.8.4+commit.c7e474f2.Emscripten.clang"
    },
    "schemaVersion": "3.4.3",
    "updatedAt": "2021-10-08T21:07:54.486Z",
    "networkType": "ethereum",
    "devdoc": {
        "kind": "dev",
        "methods": {
            "approve(address,uint256)": {
                "details": "See {IERC721-approve}."
            },
            "balanceOf(address)": {
                "details": "See {IERC721-balanceOf}."
            },
            "getApproved(uint256)": {
                "details": "See {IERC721-getApproved}."
            },
            "isApprovedForAll(address,address)": {
                "details": "See {IERC721-isApprovedForAll}."
            },
            "name()": {
                "details": "See {IERC721Metadata-name}."
            },
            "owner()": {
                "details": "Returns the address of the current owner."
            },
            "ownerOf(uint256)": {
                "details": "See {IERC721-ownerOf}."
            },
            "reclaim(uint256,address)": {
                "details": "Reclaim ownership of a name in ENS, if you own it in the registrar."
            },
            "register(uint256,address)": {
                "details": "Register a name.",
                "params": {
                    "id": "The token ID (keccak256 of the label).",
                    "owner": "The address that should own the registration."
                }
            },
            "registerOnly(uint256,address)": {
                "details": "Register a name, without modifying the registry.",
                "params": {
                    "id": "The token ID (keccak256 of the label).",
                    "owner": "The address that should own the registration."
                }
            },
            "renounceOwnership()": {
                "details": "Leaves the contract without owner. It will not be possible to call `onlyOwner` functions anymore. Can only be called by the current owner. NOTE: Renouncing ownership will leave the contract without an owner, thereby removing any functionality that is only available to the owner."
            },
            "safeTransferFrom(address,address,uint256)": {
                "details": "See {IERC721-safeTransferFrom}."
            },
            "safeTransferFrom(address,address,uint256,bytes)": {
                "details": "See {IERC721-safeTransferFrom}."
            },
            "setApprovalForAll(address,bool)": {
                "details": "See {IERC721-setApprovalForAll}."
            },
            "symbol()": {
                "details": "See {IERC721Metadata-symbol}."
            },
            "tokenURI(uint256)": {
                "details": "See {IERC721Metadata-tokenURI}."
            },
            "transferFrom(address,address,uint256)": {
                "details": "See {IERC721-transferFrom}."
            },
            "transferOwnership(address)": {
                "details": "Transfers ownership of the contract to a new account (`newOwner`). Can only be called by the current owner."
            }
        },
        "version": 1
    },
    "userdoc": {
        "kind": "user",
        "methods": {},
        "version": 1
    }
}