{
    "contractName": "ENSRegistry",
    "abi": [
        {
            "inputs": [],
            "stateMutability": "nonpayable",
            "type": "constructor"
        },
        {
            "anonymous": false,
            "inputs": [
                {
                    "indexed": true,
                    "internalType": "address",
                    "name": "owner",
                    "type": "address"
                },
                {
                    "indexed": true,
                    "internalType": "address",
                    "name": "operator",
                    "type": "address"
                },
                {
                    "indexed": false,
                    "internalType": "bool",
                    "name": "approved",
                    "type": "bool"
                }
            ],
            "name": "ApprovalForAll",
            "type": "event"
        },
        {
            "anonymous": false,
            "inputs": [
                {
                    "indexed": true,
                    "internalType": "bytes32",
                    "name": "node",
                    "type": "bytes32"
                },
                {
                    "indexed": true,
                    "internalType": "bytes32",
                    "name": "label",
                    "type": "bytes32"
                },
                {
                    "indexed": false,
                    "internalType": "address",
                    "name": "owner",
                    "type": "address"
                }
            ],
            "name": "NewOwner",
            "type": "event"
        },
        {
            "anonymous": false,
            "inputs": [
                {
                    "indexed": true,
                    "internalType": "bytes32",
                    "name": "node",
                    "type": "bytes32"
                },
                {
                    "indexed": false,
                    "internalType": "address",
                    "name": "resolver",
                    "type": "address"
                }
            ],
            "name": "NewResolver",
            "type": "event"
        },
        {
            "anonymous": false,
            "inputs": [
                {
                    "indexed": true,
                    "internalType": "bytes32",
                    "name": "node",
                    "type": "bytes32"
                },
                {
                    "indexed": false,
                    "internalType": "uint64",
                    "name": "ttl",
                    "type": "uint64"
                }
            ],
            "name": "NewTTL",
            "type": "event"
        },
        {
            "anonymous": false,
            "inputs": [
                {
                    "indexed": true,
                    "internalType": "bytes32",
                    "name": "node",
                    "type": "bytes32"
                },
                {
                    "indexed": false,
                    "internalType": "address",
                    "name": "owner",
                    "type": "address"
                }
            ],
            "name": "Transfer",
            "type": "event"
        },
        {
            "inputs": [
                {
                    "internalType": "bytes32",
                    "name": "_node",
                    "type": "bytes32"
                },
                {
                    "internalType": "address",
                    "name": "_owner",
                    "type": "address"
                },
                {
                    "internalType": "address",
                    "name": "_resolver",
                    "type": "address"
                },
                {
                    "internalType": "uint64",
                    "name": "_ttl",
                    "type": "uint64"
                }
            ],
            "name": "setRecord",
            "outputs": [],
            "stateMutability": "nonpayable",
            "type": "function"
        },
        {
            "inputs": [
                {
                    "internalType": "bytes32",
                    "name": "_node",
                    "type": "bytes32"
                },
                {
                    "internalType": "bytes32",
                    "name": "_label",
                    "type": "bytes32"
                },
                {
                    "internalType": "address",
                    "name": "_owner",
                    "type": "address"
                },
                {
                    "internalType": "address",
                    "name": "_resolver",
                    "type": "address"
                },
                {
                    "internalType": "uint64",
                    "name": "_ttl",
                    "type": "uint64"
                }
            ],
            "name": "setSubnodeRecord",
            "outputs": [],
            "stateMutability": "nonpayable",
            "type": "function"
        },
        {
            "inputs": [
                {
                    "internalType": "bytes32",
                    "name": "_node",
                    "type": "bytes32"
                },
                {
                    "internalType": "address",
                    "name": "_owner",
                    "type": "address"
                }
            ],
            "name": "setOwner",
            "outputs": [],
            "stateMutability": "nonpayable",
            "type": "function"
        },
        {
            "inputs": [
                {
                    "internalType": "bytes32",
                    "name": "_node",
                    "type": "bytes32"
                },
                {
                    "internalType": "bytes32",
                    "name": "_label",
                    "type": "bytes32"
                },
                {
                    "internalType": "address",
                    "name": "_owner",
                    "type": "address"
                }
            ],
            "name": "setSubnodeOwner",
            "outputs": [
                {
                    "internalType": "bytes32",
                    "name": "",
                    "type": "bytes32"
                }
            ],
            "stateMutability": "nonpayable",
            "type": "function"
        },
        {
            "inputs": [
                {
                    "internalType": "bytes32",
                    "name": "_node",
                    "type": "bytes32"
                },
                {
                    "internalType": "address",
                    "name": "_resolver",
                    "type": "address"
                }
            ],
            "name": "setResolver",
            "outputs": [],
            "stateMutability": "nonpayable",
            "type": "function"
        },
        {
            "inputs": [
                {
                    "internalType": "bytes32",
                    "name": "_node",
                    "type": "bytes32"
                },
                {
                    "internalType": "uint64",
                    "name": "_ttl",
                    "type": "uint64"
                }
            ],
            "name": "setTTL",
            "outputs": [],
            "stateMutability": "nonpayable",
            "type": "function"
        },
        {
            "inputs": [
                {
                    "internalType": "address",
                    "name": "operator",
                    "type": "address"
                },
                {
                    "internalType": "bool",
                    "name": "approved",
                    "type": "bool"
                }
            ],
            "name": "setApprovalForAll",
            "outputs": [],
            "stateMutability": "nonpayable",
            "type": "function"
        },
        {
            "inputs": [
                {
                    "internalType": "bytes32",
                    "name": "node",
                    "type": "bytes32"
                }
            ],
            "name": "owner",
            "outputs": [
                {
                    "internalType": "address",
                    "name": "",
                    "type": "address"
                }
            ],
            "stateMutability": "view",
            "type": "function",
            "constant": true
        },
        {
            "inputs": [
                {
                    "internalType": "bytes32",
                    "name": "node",
                    "type": "bytes32"
                }
            ],
            "name": "resolver",
            "outputs": [
                {
                    "internalType": "address",
                    "name": "",
                    "type": "address"
                }
            ],
            "stateMutability": "view",
            "type": "function",
            "constant": true
        },
        {
            "inputs": [
                {
                    "internalType": "bytes32",
                    "name": "node",
                    "type": "bytes32"
                }
            ],
            "name": "ttl",
            "outputs": [
                {
                    "internalType": "uint64",
                    "name": "",
                    "type": "uint64"
                }
            ],
            "stateMutability": "view",
            "type": "function",
            "constant": true
        },
        {
            "inputs": [
                {
                    "internalType": "bytes32",
                    "name": "node",
                    "type": "bytes32"
                }
            ],
            "name": "recordExists",
            "outputs": [
                {
                    "internalType": "bool",
                    "name": "",
                    "type": "bool"
                }
            ],
            "stateMutability": "view",
            "type": "function",
            "constant": true
        },
        {
            "inputs": [
                {
                    "internalType": "address",
                    "name": "_owner",
                    "type": "address"
                },
                {
                    "internalType": "address",
                    "name": "_operator",
                    "type": "address"
                }
            ],
            "name": "isApprovedForAll",
            "outputs": [
                {
                    "internalType": "bool",
                    "name": "",
                    "type": "bool"
                }
            ],
            "stateMutability": "view",
            "type": "function",
            "constant": true
        }
    ],
    "bytecode": "0x608060405234801561001057600080fd5b50336000808060001b815260200190815260200160002060000160006101000a81548173ffffffffffffffffffffffffffffffffffffffff021916908373ffffffffffffffffffffffffffffffffffffffff160217905550611239806100776000396000f3fe608060405234801561001057600080fd5b50600436106100d45760003560e01c80635b0fc9c311610081578063cf4088231161005b578063cf40882314610225578063e985e9c514610241578063f79fe53814610271576100d4565b80635b0fc9c3146101d15780635ef2c7f0146101ed578063a22cb46514610209576100d4565b806314ab9038116100b257806314ab90381461016957806316a25cbd146101855780631896f70a146101b5576100d4565b80630178b8bf146100d957806302571be31461010957806306ab592314610139575b600080fd5b6100f360048036038101906100ee9190610e8c565b6102a1565b60405161010091906110d5565b60405180910390f35b610123600480360381019061011e9190610e8c565b6102e0565b60405161013091906110d5565b60405180910390f35b610153600480360381019061014e9190610f54565b610363565b604051610160919061110b565b60405180910390f35b610183600480360381019061017e919061101a565b6104e6565b005b61019f600480360381019061019a9190610e8c565b610664565b6040516101ac9190611126565b60405180910390f35b6101cf60048036038101906101ca9190610eb5565b610697565b005b6101eb60048036038101906101e69190610eb5565b61082d565b005b61020760048036038101906102029190610fa3565b610979565b005b610223600480360381019061021e9190610e50565b61099b565b005b61023f600480360381019061023a9190610ef1565b610a98565b005b61025b60048036038101906102569190610e14565b610ab3565b60405161026891906110f0565b60405180910390f35b61028b60048036038101906102869190610e8c565b610b47565b60405161029891906110f0565b60405180910390f35b600080600083815260200190815260200160002060010160009054906101000a900473ffffffffffffffffffffffffffffffffffffffff169050919050565b60008060008084815260200190815260200160002060000160009054906101000a900473ffffffffffffffffffffffffffffffffffffffff1690503073ffffffffffffffffffffffffffffffffffffffff168173ffffffffffffffffffffffffffffffffffffffff16141561035957600091505061035e565b809150505b919050565b600083600080600083815260200190815260200160002060000160009054906101000a900473ffffffffffffffffffffffffffffffffffffffff1690503373ffffffffffffffffffffffffffffffffffffffff168173ffffffffffffffffffffffffffffffffffffffff1614806104605750600160008273ffffffffffffffffffffffffffffffffffffffff1673ffffffffffffffffffffffffffffffffffffffff16815260200190815260200160002060003373ffffffffffffffffffffffffffffffffffffffff1673ffffffffffffffffffffffffffffffffffffffff16815260200190815260200160002060009054906101000a900460ff165b61046957600080fd5b6000868660405160200161047e9291906110a9565b6040516020818303038152906040528051906020012090506104a08186610bb5565b85877fce0457fe73731f824cc272376169235128c118b49d344817417c6d108d155e82876040516104d191906110d5565b60405180910390a38093505050509392505050565b81600080600083815260200190815260200160002060000160009054906101000a900473ffffffffffffffffffffffffffffffffffffffff1690503373ffffffffffffffffffffffffffffffffffffffff168173ffffffffffffffffffffffffffffffffffffffff1614806105e15750600160008273ffffffffffffffffffffffffffffffffffffffff1673ffffffffffffffffffffffffffffffffffffffff16815260200190815260200160002060003373ffffffffffffffffffffffffffffffffffffffff1673ffffffffffffffffffffffffffffffffffffffff16815260200190815260200160002060009054906101000a900460ff165b6105ea57600080fd5b837f1d4f9bbfc9cab89d66e1a1562f2233ccbf1308cb4f63de2ead5787adddb8fa688460405161061a9190611126565b60405180910390a28260008086815260200190815260200160002060010160146101000a81548167ffffffffffffffff021916908367ffffffffffffffff16021790555050505050565b600080600083815260200190815260200160002060010160149054906101000a900467ffffffffffffffff169050919050565b81600080600083815260200190815260200160002060000160009054906101000a900473ffffffffffffffffffffffffffffffffffffffff1690503373ffffffffffffffffffffffffffffffffffffffff168173ffffffffffffffffffffffffffffffffffffffff1614806107925750600160008273ffffffffffffffffffffffffffffffffffffffff1673ffffffffffffffffffffffffffffffffffffffff16815260200190815260200160002060003373ffffffffffffffffffffffffffffffffffffffff1673ffffffffffffffffffffffffffffffffffffffff16815260200190815260200160002060009054906101000a900460ff165b61079b57600080fd5b837f335721b01866dc23fbee8b6b2c7b1e14d6f05c28cd35a2c934239f94095602a0846040516107cb91906110d5565b60405180910390a28260008086815260200190815260200160002060010160006101000a81548173ffffffffffffffffffffffffffffffffffffffff021916908373ffffffffffffffffffffffffffffffffffffffff16021790555050505050565b81600080600083815260200190815260200160002060000160009054906101000a900473ffffffffffffffffffffffffffffffffffffffff1690503373ffffffffffffffffffffffffffffffffffffffff168173ffffffffffffffffffffffffffffffffffffffff1614806109285750600160008273ffffffffffffffffffffffffffffffffffffffff1673ffffffffffffffffffffffffffffffffffffffff16815260200190815260200160002060003373ffffffffffffffffffffffffffffffffffffffff1673ffffffffffffffffffffffffffffffffffffffff16815260200190815260200160002060009054906101000a900460ff165b61093157600080fd5b61093b8484610bb5565b837fd4735d920b0f87494915f556dd9b54c8f309026070caea5c737245152564d2668460405161096b91906110d5565b60405180910390a250505050565b6000610986868686610363565b9050610993818484610c0d565b505050505050565b80600160003373ffffffffffffffffffffffffffffffffffffffff1673ffffffffffffffffffffffffffffffffffffffff16815260200190815260200160002060008473ffffffffffffffffffffffffffffffffffffffff1673ffffffffffffffffffffffffffffffffffffffff16815260200190815260200160002060006101000a81548160ff0219169083151502179055508173ffffffffffffffffffffffffffffffffffffffff163373ffffffffffffffffffffffffffffffffffffffff167f17307eab39ab6107e8899845ad3d59bd9653f200f220920489ca2b5937696c3183604051610a8c91906110f0565b60405180910390a35050565b610aa2848461082d565b610aad848383610c0d565b50505050565b6000600160008473ffffffffffffffffffffffffffffffffffffffff1673ffffffffffffffffffffffffffffffffffffffff16815260200190815260200160002060008373ffffffffffffffffffffffffffffffffffffffff1673ffffffffffffffffffffffffffffffffffffffff16815260200190815260200160002060009054906101000a900460ff16905092915050565b60008073ffffffffffffffffffffffffffffffffffffffff1660008084815260200190815260200160002060000160009054906101000a900473ffffffffffffffffffffffffffffffffffffffff1673ffffffffffffffffffffffffffffffffffffffff1614159050919050565b8060008084815260200190815260200160002060000160006101000a81548173ffffffffffffffffffffffffffffffffffffffff021916908373ffffffffffffffffffffffffffffffffffffffff1602179055505050565b60008084815260200190815260200160002060010160009054906101000a900473ffffffffffffffffffffffffffffffffffffffff1673ffffffffffffffffffffffffffffffffffffffff168273ffffffffffffffffffffffffffffffffffffffff1614610d02578160008085815260200190815260200160002060010160006101000a81548173ffffffffffffffffffffffffffffffffffffffff021916908373ffffffffffffffffffffffffffffffffffffffff160217905550827f335721b01866dc23fbee8b6b2c7b1e14d6f05c28cd35a2c934239f94095602a083604051610cf991906110d5565b60405180910390a25b60008084815260200190815260200160002060010160149054906101000a900467ffffffffffffffff1667ffffffffffffffff168167ffffffffffffffff1614610dbb578060008085815260200190815260200160002060010160146101000a81548167ffffffffffffffff021916908367ffffffffffffffff160217905550827f1d4f9bbfc9cab89d66e1a1562f2233ccbf1308cb4f63de2ead5787adddb8fa6882604051610db29190611126565b60405180910390a25b505050565b600081359050610dcf816111a7565b92915050565b600081359050610de4816111be565b92915050565b600081359050610df9816111d5565b92915050565b600081359050610e0e816111ec565b92915050565b60008060408385031215610e2757600080fd5b6000610e3585828601610dc0565b9250506020610e4685828601610dc0565b9150509250929050565b60008060408385031215610e6357600080fd5b6000610e7185828601610dc0565b9250506020610e8285828601610dd5565b9150509250929050565b600060208284031215610e9e57600080fd5b6000610eac84828501610dea565b91505092915050565b60008060408385031215610ec857600080fd5b6000610ed685828601610dea565b9250506020610ee785828601610dc0565b9150509250929050565b60008060008060808587031215610f0757600080fd5b6000610f1587828801610dea565b9450506020610f2687828801610dc0565b9350506040610f3787828801610dc0565b9250506060610f4887828801610dff565b91505092959194509250565b600080600060608486031215610f6957600080fd5b6000610f7786828701610dea565b9350506020610f8886828701610dea565b9250506040610f9986828701610dc0565b9150509250925092565b600080600080600060a08688031215610fbb57600080fd5b6000610fc988828901610dea565b9550506020610fda88828901610dea565b9450506040610feb88828901610dc0565b9350506060610ffc88828901610dc0565b925050608061100d88828901610dff565b9150509295509295909350565b6000806040838503121561102d57600080fd5b600061103b85828601610dea565b925050602061104c85828601610dff565b9150509250929050565b61105f81611141565b82525050565b61106e81611153565b82525050565b61107d8161115f565b82525050565b61109461108f8261115f565b61119d565b82525050565b6110a381611189565b82525050565b60006110b58285611083565b6020820191506110c58284611083565b6020820191508190509392505050565b60006020820190506110ea6000830184611056565b92915050565b60006020820190506111056000830184611065565b92915050565b60006020820190506111206000830184611074565b92915050565b600060208201905061113b600083018461109a565b92915050565b600061114c82611169565b9050919050565b60008115159050919050565b6000819050919050565b600073ffffffffffffffffffffffffffffffffffffffff82169050919050565b600067ffffffffffffffff82169050919050565b6000819050919050565b6111b081611141565b81146111bb57600080fd5b50565b6111c781611153565b81146111d257600080fd5b50565b6111de8161115f565b81146111e957600080fd5b50565b6111f581611189565b811461120057600080fd5b5056fea2646970667358221220e14d6cf3aa07bed5fcbb21b7e1a98e45ea8d928ab8040616b07b3722cb3a4cfd64736f6c63430008040033",
    "immutableReferences": {},
    "source": "// SPDX-License-Identifier: MIT\r\npragma solidity ^0.8.4;\r\n\r\nimport \"./interfaces/ENS.sol\";\r\n\r\n/**\r\n * The ENS registry contract.\r\n */\r\n\r\ncontract ENSRegistry is ENS {\r\n\r\n    struct Record {\r\n        address owner;\r\n        address resolver;\r\n        uint64 ttl;\r\n    }\r\n\r\n    mapping (bytes32 => Record) records;\r\n    mapping (address => mapping(address => bool)) operators;\r\n\r\n    // Permits modifications only by the owner of the specified node.\r\n    modifier authorised(bytes32 node) {\r\n        address ownerFromRecords = records[node].owner;\r\n        require(ownerFromRecords == msg.sender || operators[ownerFromRecords][msg.sender]);\r\n        _;\r\n    }\r\n\r\n    /**\r\n     * @dev Constructs a new ENS registrar.\r\n     */\r\n    constructor() {\r\n        records[0x0].owner = msg.sender;\r\n    }\r\n\r\n    /**\r\n     * @dev Sets the record for a node.\r\n     * @param _node The node to update.\r\n     * @param _owner The address of the new owner.\r\n     * @param _resolver The address of the resolver.\r\n     */\r\n    function setRecord(bytes32 _node, address _owner, address _resolver, uint64 _ttl) external virtual override {\r\n        setOwner(_node, _owner);\r\n        _setResolverAndTTL(_node, _resolver, _ttl);\r\n    }\r\n\r\n    /**\r\n     * @dev Sets the record for a subnode.\r\n     * @param _node The parent node.\r\n     * @param _label The hash of the label specifying the subnode.\r\n     * @param _owner The address of the new owner.\r\n     * @param _resolver The address of the resolver.\r\n     */\r\n    function setSubnodeRecord(bytes32 _node, bytes32 _label, address _owner, address _resolver, uint64 _ttl) external virtual override {\r\n        bytes32 subnode = setSubnodeOwner(_node, _label, _owner);\r\n        _setResolverAndTTL(subnode, _resolver, _ttl);\r\n    }\r\n\r\n    /**\r\n     * @dev Transfers ownership of a node to a new address. May only be called by the current owner of the node.\r\n     * @param _node The node to transfer ownership of.\r\n     * @param _owner The address of the new owner.\r\n     */\r\n    function setOwner(bytes32 _node, address _owner) public virtual override authorised(_node) {\r\n        _setOwner(_node, _owner);\r\n        emit Transfer(_node, _owner);\r\n    }\r\n\r\n    /**\r\n     * @dev Transfers ownership of a subnode keccak256(node, label) to a new address. May only be called by the owner of the parent node.\r\n     * @param _node The parent node.\r\n     * @param _label The hash of the label specifying the subnode.\r\n     * @param _owner The address of the new owner.\r\n     */\r\n    function setSubnodeOwner(bytes32 _node, bytes32 _label, address _owner) public virtual override authorised(_node) returns(bytes32) {\r\n        bytes32 subnode = keccak256(abi.encodePacked(_node, _label));\r\n        _setOwner(subnode, _owner);\r\n        emit NewOwner(_node, _label, _owner);\r\n        return subnode;\r\n    }\r\n\r\n    /**\r\n     * @dev Sets the resolver address for the specified node.\r\n     * @param _node The node to update.\r\n     * @param _resolver The address of the resolver.\r\n     */\r\n    function setResolver(bytes32 _node, address _resolver) public virtual override authorised(_node) {\r\n        emit NewResolver(_node, _resolver);\r\n        records[_node].resolver = _resolver;\r\n    }\r\n\r\n    /**\r\n     * @dev Sets the TTL for the specified node.\r\n     * @param _node The node to update.\r\n     * @param _ttl The TTL in seconds.\r\n     */\r\n    function setTTL(bytes32 _node, uint64 _ttl) public virtual override authorised(_node) {\r\n        emit NewTTL(_node, _ttl);\r\n        records[_node].ttl = _ttl;\r\n    }\r\n\r\n    /**\r\n     * @dev Enable or disable approval for a third party (\"operator\") to manage\r\n     *  all of `msg.sender`'s ENS records. Emits the ApprovalForAll event.\r\n     * @param operator Address to add to the set of authorized operators.\r\n     * @param approved True if the operator is approved, false to revoke approval.\r\n     */\r\n    function setApprovalForAll(address operator, bool approved) external virtual override {\r\n        operators[msg.sender][operator] = approved;\r\n        emit ApprovalForAll(msg.sender, operator, approved);\r\n    }\r\n\r\n    /**\r\n     * @dev Returns the address that owns the specified node.\r\n     * @param node The specified node.\r\n     * @return address of the owner.\r\n     */\r\n    function owner(bytes32 node) public virtual override view returns (address) {\r\n        address addr = records[node].owner;\r\n        if (addr == address(this)) {\r\n            return address(0x0);\r\n        }\r\n\r\n        return addr;\r\n    }\r\n\r\n    /**\r\n     * @dev Returns the address of the resolver for the specified node.\r\n     * @param node The specified node.\r\n     * @return address of the resolver.\r\n     */\r\n    function resolver(bytes32 node) public virtual override view returns (address) {\r\n        return records[node].resolver;\r\n    }\r\n\r\n    /**\r\n     * @dev Returns the TTL of a node, and any records associated with it.\r\n     * @param node The specified node.\r\n     * @return ttl of the node.\r\n     */\r\n    function ttl(bytes32 node) public virtual override view returns (uint64) {\r\n        return records[node].ttl;\r\n    }\r\n\r\n    /**\r\n     * @dev Returns whether a record has been imported to the registry.\r\n     * @param node The specified node.\r\n     * @return Bool if record exists\r\n     */\r\n    function recordExists(bytes32 node) public virtual override view returns (bool) {\r\n        return records[node].owner != address(0x0);\r\n    }\r\n\r\n    /**\r\n     * @dev Query if an address is an authorized operator for another address.\r\n     * @param _owner The address that owns the records.\r\n     * @param _operator The address that acts on behalf of the owner.\r\n     * @return True if `operator` is an approved operator for `owner`, false otherwise.\r\n     */\r\n    function isApprovedForAll(address _owner, address _operator) external virtual override view returns (bool) {\r\n        return operators[_owner][_operator];\r\n    }\r\n\r\n    function _setOwner(bytes32 _node, address _owner) internal virtual {\r\n        records[_node].owner = _owner;\r\n    }\r\n\r\n    function _setResolverAndTTL(bytes32 _node, address _resolver, uint64 _ttl) internal {\r\n        if(_resolver != records[_node].resolver) {\r\n            records[_node].resolver = _resolver;\r\n            emit NewResolver(_node, _resolver);\r\n        }\r\n\r\n        if(_ttl != records[_node].ttl) {\r\n            records[_node].ttl = _ttl;\r\n            emit NewTTL(_node, _ttl);\r\n        }\r\n    }\r\n}",
    "sourcePath": "D:\\Posao-Stefan\\Stefan-razno\\Blockchain\\Thetaboard\\core-contracts\\contracts\\ENSRegistry.sol",
    "compiler": {
        "name": "solc",
        "version": "0.8.4+commit.c7e474f2.Emscripten.clang"
    },
    "schemaVersion": "3.4.3",
    "updatedAt": "2021-10-08T21:07:54.466Z",
    "networkType": "ethereum",
    "devdoc": {
        "kind": "dev",
        "methods": {
            "constructor": {
                "details": "Constructs a new ENS registrar."
            },
            "isApprovedForAll(address,address)": {
                "details": "Query if an address is an authorized operator for another address.",
                "params": {
                    "_operator": "The address that acts on behalf of the owner.",
                    "_owner": "The address that owns the records."
                },
                "returns": {
                    "_0": "True if `operator` is an approved operator for `owner`, false otherwise."
                }
            },
            "owner(bytes32)": {
                "details": "Returns the address that owns the specified node.",
                "params": {
                    "node": "The specified node."
                },
                "returns": {
                    "_0": "address of the owner."
                }
            },
            "recordExists(bytes32)": {
                "details": "Returns whether a record has been imported to the registry.",
                "params": {
                    "node": "The specified node."
                },
                "returns": {
                    "_0": "Bool if record exists"
                }
            },
            "resolver(bytes32)": {
                "details": "Returns the address of the resolver for the specified node.",
                "params": {
                    "node": "The specified node."
                },
                "returns": {
                    "_0": "address of the resolver."
                }
            },
            "setApprovalForAll(address,bool)": {
                "details": "Enable or disable approval for a third party (\"operator\") to manage  all of `msg.sender`'s ENS records. Emits the ApprovalForAll event.",
                "params": {
                    "approved": "True if the operator is approved, false to revoke approval.",
                    "operator": "Address to add to the set of authorized operators."
                }
            },
            "setOwner(bytes32,address)": {
                "details": "Transfers ownership of a node to a new address. May only be called by the current owner of the node.",
                "params": {
                    "_node": "The node to transfer ownership of.",
                    "_owner": "The address of the new owner."
                }
            },
            "setRecord(bytes32,address,address,uint64)": {
                "details": "Sets the record for a node.",
                "params": {
                    "_node": "The node to update.",
                    "_owner": "The address of the new owner.",
                    "_resolver": "The address of the resolver."
                }
            },
            "setResolver(bytes32,address)": {
                "details": "Sets the resolver address for the specified node.",
                "params": {
                    "_node": "The node to update.",
                    "_resolver": "The address of the resolver."
                }
            },
            "setSubnodeOwner(bytes32,bytes32,address)": {
                "details": "Transfers ownership of a subnode keccak256(node, label) to a new address. May only be called by the owner of the parent node.",
                "params": {
                    "_label": "The hash of the label specifying the subnode.",
                    "_node": "The parent node.",
                    "_owner": "The address of the new owner."
                }
            },
            "setSubnodeRecord(bytes32,bytes32,address,address,uint64)": {
                "details": "Sets the record for a subnode.",
                "params": {
                    "_label": "The hash of the label specifying the subnode.",
                    "_node": "The parent node.",
                    "_owner": "The address of the new owner.",
                    "_resolver": "The address of the resolver."
                }
            },
            "setTTL(bytes32,uint64)": {
                "details": "Sets the TTL for the specified node.",
                "params": {
                    "_node": "The node to update.",
                    "_ttl": "The TTL in seconds."
                }
            },
            "ttl(bytes32)": {
                "details": "Returns the TTL of a node, and any records associated with it.",
                "params": {
                    "node": "The specified node."
                },
                "returns": {
                    "_0": "ttl of the node."
                }
            }
        },
        "version": 1
    },
    "userdoc": {
        "kind": "user",
        "methods": {},
        "notice": "The ENS registry contract.",
        "version": 1
    }
}