{
  "contractName": "ETHRegistrarController",
  "abi": [
    {
      "inputs": [
        {
          "internalType": "contract BaseRegistrarImplementation",
          "name": "_base",
          "type": "address"
        },
        {
          "internalType": "contract PriceOracle",
          "name": "_prices",
          "type": "address"
        },
        {
          "internalType": "uint256",
          "name": "_minCommitmentAge",
          "type": "uint256"
        },
        {
          "internalType": "uint256",
          "name": "_maxCommitmentAge",
          "type": "uint256"
        }
      ],
      "stateMutability": "nonpayable",
      "type": "constructor"
    },
    {
      "anonymous": false,
      "inputs": [
        {
          "indexed": false,
          "internalType": "string",
          "name": "name",
          "type": "string"
        },
        {
          "indexed": true,
          "internalType": "bytes32",
          "name": "label",
          "type": "bytes32"
        },
        {
          "indexed": true,
          "internalType": "address",
          "name": "owner",
          "type": "address"
        },
        {
          "indexed": false,
          "internalType": "uint256",
          "name": "cost",
          "type": "uint256"
        }
      ],
      "name": "NameRegistered",
      "type": "event"
    },
    {
      "anonymous": false,
      "inputs": [
        {
          "indexed": true,
          "internalType": "address",
          "name": "oracle",
          "type": "address"
        }
      ],
      "name": "NewPriceOracle",
      "type": "event"
    },
    {
      "anonymous": false,
      "inputs": [
        {
          "indexed": true,
          "internalType": "address",
          "name": "previousOwner",
          "type": "address"
        },
        {
          "indexed": true,
          "internalType": "address",
          "name": "newOwner",
          "type": "address"
        }
      ],
      "name": "OwnershipTransferred",
      "type": "event"
    },
    {
      "inputs": [
        {
          "internalType": "bytes32",
          "name": "",
          "type": "bytes32"
        }
      ],
      "name": "commitments",
      "outputs": [
        {
          "internalType": "uint256",
          "name": "",
          "type": "uint256"
        }
      ],
      "stateMutability": "view",
      "type": "function",
      "constant": true
    },
    {
      "inputs": [],
      "name": "maxCommitmentAge",
      "outputs": [
        {
          "internalType": "uint256",
          "name": "",
          "type": "uint256"
        }
      ],
      "stateMutability": "view",
      "type": "function",
      "constant": true
    },
    {
      "inputs": [],
      "name": "minCommitmentAge",
      "outputs": [
        {
          "internalType": "uint256",
          "name": "",
          "type": "uint256"
        }
      ],
      "stateMutability": "view",
      "type": "function",
      "constant": true
    },
    {
      "inputs": [],
      "name": "owner",
      "outputs": [
        {
          "internalType": "address",
          "name": "",
          "type": "address"
        }
      ],
      "stateMutability": "view",
      "type": "function",
      "constant": true
    },
    {
      "inputs": [],
      "name": "renounceOwnership",
      "outputs": [],
      "stateMutability": "nonpayable",
      "type": "function"
    },
    {
      "inputs": [
        {
          "internalType": "address",
          "name": "newOwner",
          "type": "address"
        }
      ],
      "name": "transferOwnership",
      "outputs": [],
      "stateMutability": "nonpayable",
      "type": "function"
    },
    {
      "inputs": [
        {
          "internalType": "string",
          "name": "name",
          "type": "string"
        }
      ],
      "name": "rentPrice",
      "outputs": [
        {
          "internalType": "uint256",
          "name": "",
          "type": "uint256"
        }
      ],
      "stateMutability": "view",
      "type": "function",
      "constant": true
    },
    {
      "inputs": [
        {
          "internalType": "string",
          "name": "name",
          "type": "string"
        }
      ],
      "name": "valid",
      "outputs": [
        {
          "internalType": "bool",
          "name": "",
          "type": "bool"
        }
      ],
      "stateMutability": "pure",
      "type": "function",
      "constant": true
    },
    {
      "inputs": [
        {
          "internalType": "string",
          "name": "name",
          "type": "string"
        }
      ],
      "name": "available",
      "outputs": [
        {
          "internalType": "bool",
          "name": "",
          "type": "bool"
        }
      ],
      "stateMutability": "view",
      "type": "function",
      "constant": true
    },
    {
      "inputs": [
        {
          "internalType": "string",
          "name": "name",
          "type": "string"
        },
        {
          "internalType": "address",
          "name": "owner",
          "type": "address"
        },
        {
          "internalType": "bytes32",
          "name": "secret",
          "type": "bytes32"
        }
      ],
      "name": "makeCommitment",
      "outputs": [
        {
          "internalType": "bytes32",
          "name": "",
          "type": "bytes32"
        }
      ],
      "stateMutability": "pure",
      "type": "function",
      "constant": true
    },
    {
      "inputs": [
        {
          "internalType": "string",
          "name": "name",
          "type": "string"
        },
        {
          "internalType": "address",
          "name": "owner",
          "type": "address"
        },
        {
          "internalType": "bytes32",
          "name": "secret",
          "type": "bytes32"
        },
        {
          "internalType": "address",
          "name": "resolver",
          "type": "address"
        },
        {
          "internalType": "address",
          "name": "addr",
          "type": "address"
        }
      ],
      "name": "makeCommitmentWithConfig",
      "outputs": [
        {
          "internalType": "bytes32",
          "name": "",
          "type": "bytes32"
        }
      ],
      "stateMutability": "pure",
      "type": "function",
      "constant": true
    },
    {
      "inputs": [
        {
          "internalType": "bytes32",
          "name": "commitment",
          "type": "bytes32"
        }
      ],
      "name": "commit",
      "outputs": [],
      "stateMutability": "nonpayable",
      "type": "function"
    },
    {
      "inputs": [
        {
          "internalType": "string",
          "name": "name",
          "type": "string"
        },
        {
          "internalType": "address",
          "name": "owner",
          "type": "address"
        },
        {
          "internalType": "bytes32",
          "name": "secret",
          "type": "bytes32"
        }
      ],
      "name": "register",
      "outputs": [],
      "stateMutability": "payable",
      "type": "function",
      "payable": true
    },
    {
      "inputs": [
        {
          "internalType": "string",
          "name": "name",
          "type": "string"
        },
        {
          "internalType": "address",
          "name": "owner",
          "type": "address"
        },
        {
          "internalType": "bytes32",
          "name": "secret",
          "type": "bytes32"
        },
        {
          "internalType": "address",
          "name": "resolver",
          "type": "address"
        },
        {
          "internalType": "address",
          "name": "addr",
          "type": "address"
        }
      ],
      "name": "registerWithConfig",
      "outputs": [],
      "stateMutability": "payable",
      "type": "function",
      "payable": true
    },
    {
      "inputs": [
        {
          "internalType": "contract PriceOracle",
          "name": "_prices",
          "type": "address"
        }
      ],
      "name": "setPriceOracle",
      "outputs": [],
      "stateMutability": "nonpayable",
      "type": "function"
    },
    {
      "inputs": [
        {
          "internalType": "uint256",
          "name": "_minCommitmentAge",
          "type": "uint256"
        },
        {
          "internalType": "uint256",
          "name": "_maxCommitmentAge",
          "type": "uint256"
        }
      ],
      "name": "setCommitmentAges",
      "outputs": [],
      "stateMutability": "nonpayable",
      "type": "function"
    },
    {
      "inputs": [],
      "name": "withdraw",
      "outputs": [],
      "stateMutability": "nonpayable",
      "type": "function"
    },
    {
      "inputs": [
        {
          "internalType": "bytes4",
          "name": "interfaceID",
          "type": "bytes4"
        }
      ],
      "name": "supportsInterface",
      "outputs": [
        {
          "internalType": "bool",
          "name": "",
          "type": "bool"
        }
      ],
      "stateMutability": "pure",
      "type": "function",
      "constant": true
    }
  ],
  "bytecode": "0x60806040523480156200001157600080fd5b50604051620027043803806200270483398181016040528101906200003791906200020f565b620000576200004b620000fe60201b60201c565b6200010660201b60201c565b8181116200006457600080fd5b83600160006101000a81548173ffffffffffffffffffffffffffffffffffffffff021916908373ffffffffffffffffffffffffffffffffffffffff16021790555082600260006101000a81548173ffffffffffffffffffffffffffffffffffffffff021916908373ffffffffffffffffffffffffffffffffffffffff1602179055508160038190555080600481905550505050506200032f565b600033905090565b60008060009054906101000a900473ffffffffffffffffffffffffffffffffffffffff169050816000806101000a81548173ffffffffffffffffffffffffffffffffffffffff021916908373ffffffffffffffffffffffffffffffffffffffff1602179055508173ffffffffffffffffffffffffffffffffffffffff168173ffffffffffffffffffffffffffffffffffffffff167f8be0079c531659141344cd1fd0a4f28419497f9722a3daafe3b4186f6b6457e060405160405180910390a35050565b600081519050620001db81620002e1565b92915050565b600081519050620001f281620002fb565b92915050565b600081519050620002098162000315565b92915050565b600080600080608085870312156200022657600080fd5b60006200023687828801620001ca565b94505060206200024987828801620001e1565b93505060406200025c87828801620001f8565b92505060606200026f87828801620001f8565b91505092959194509250565b60006200028882620002b7565b9050919050565b60006200029c826200027b565b9050919050565b6000620002b0826200027b565b9050919050565b600073ffffffffffffffffffffffffffffffffffffffff82169050919050565b6000819050919050565b620002ec816200028f565b8114620002f857600080fd5b50565b6200030681620002a3565b81146200031257600080fd5b50565b6200032081620002d7565b81146200032c57600080fd5b50565b6123c5806200033f6000396000f3fe6080604052600436106101295760003560e01c80638da5cb5b116100a5578063ce1e09c011610074578063f2fde38b11610059578063f2fde38b146103e2578063f34b95b31461040b578063f49826be1461042757610129565b8063ce1e09c01461038e578063f14fcbc8146103b957610129565b80638da5cb5b146102ac5780639791c097146102d7578063a03eab3d14610314578063aeb8ce9b1461035157610129565b80636acb4f91116100fc5780637e324479116100e15780637e3244791461021b578063839df945146102445780638d839ffe1461028157610129565b80636acb4f91146101e8578063715018a61461020457610129565b806301ffc9a71461012e5780633ccfd60b1461016b5780633d86c52f14610182578063530e784f146101bf575b600080fd5b34801561013a57600080fd5b50610155600480360381019061015091906119b7565b610464565b6040516101629190611e3d565b60405180910390f35b34801561017757600080fd5b5061018061066a565b005b34801561018e57600080fd5b506101a960048036038101906101a49190611b46565b610746565b6040516101b69190611e58565b60405180910390f35b3480156101cb57600080fd5b506101e660048036038101906101e19190611a09565b610869565b005b61020260048036038101906101fd9190611b46565b61098e565b005b34801561021057600080fd5b50610219610fa4565b005b34801561022757600080fd5b50610242600480360381019061023d9190611bfe565b61102c565b005b34801561025057600080fd5b5061026b60048036038101906102669190611965565b6110ba565b6040516102789190611f2e565b60405180910390f35b34801561028d57600080fd5b506102966110d2565b6040516102a39190611f2e565b60405180910390f35b3480156102b857600080fd5b506102c16110d8565b6040516102ce9190611deb565b60405180910390f35b3480156102e357600080fd5b506102fe60048036038101906102f99190611a9e565b611101565b60405161030b9190611e3d565b60405180910390f35b34801561032057600080fd5b5061033b60048036038101906103369190611a9e565b611117565b6040516103489190611f2e565b60405180910390f35b34801561035d57600080fd5b5061037860048036038101906103739190611a9e565b6111cb565b6040516103859190611e3d565b60405180910390f35b34801561039a57600080fd5b506103a361129f565b6040516103b09190611f2e565b60405180910390f35b3480156103c557600080fd5b506103e060048036038101906103db9190611965565b6112a5565b005b3480156103ee57600080fd5b5061040960048036038101906104049190611913565b6112ec565b005b61042560048036038101906104209190611a32565b6113e4565b005b34801561043357600080fd5b5061044e60048036038101906104499190611adf565b61143c565b60405161045b9190611e58565b60405180910390f35b60007f01ffc9a7a5cef8baa21ed3c5c0d7e23accb804b619e9333b597f47a0d84076e27bffffffffffffffffffffffffffffffffffffffffffffffffffffffff1916827bffffffffffffffffffffffffffffffffffffffffffffffffffffffff191614806105d957507facf1a8418b97267ffdb4c11281360744af0ddfe62846b256a04a02acee3a53c37f85f6d1554d9d3ed5c2776e29804063f395dfd65a8dc71f4d1cb6f073d7ee75a37ff14fcbc8f6996b31406143e2613e60bde3c1118cfe166c0aa27ba40ef1033df57ff49826be766d3cc8dc7e4aab3f18eb3d339eb3bce85a7b9144119bbe997b2cc37faeb8ce9b70d5d3f3fba501c34cd61a54703dbe3cfb25bd75d3574635f9ea76837f83e7f6ff8df5fd22801ca995afba5d2bc5cac5264a339adb4a410c5da6c4332418181818187bffffffffffffffffffffffffffffffffffffffffffffffffffffffff1916827bffffffffffffffffffffffffffffffffffffffffffffffffffffffff1916145b8061066357507f3d86c52f15403f1a062ec90b8fe0792e3be0a9cb236cd8ee4ec4b45821bd2faa7ff7a169630bfe39d181bbd2e0b758ee9f1a6ddc0eca0932c13225406d06d41653187bffffffffffffffffffffffffffffffffffffffffffffffffffffffff1916827bffffffffffffffffffffffffffffffffffffffffffffffffffffffff1916145b9050919050565b610672611455565b73ffffffffffffffffffffffffffffffffffffffff166106906110d8565b73ffffffffffffffffffffffffffffffffffffffff16146106e6576040517f08c379a00000000000000000000000000000000000000000000000000000000081526004016106dd90611f0e565b60405180910390fd5b3373ffffffffffffffffffffffffffffffffffffffff166108fc3073ffffffffffffffffffffffffffffffffffffffff16319081150290604051600060405180830381858888f19350505050158015610743573d6000803e3d6000fd5b50565b60008086805190602001209050600073ffffffffffffffffffffffffffffffffffffffff168473ffffffffffffffffffffffffffffffffffffffff161480156107bb5750600073ffffffffffffffffffffffffffffffffffffffff168373ffffffffffffffffffffffffffffffffffffffff16145b156107f3578086866040516020016107d593929190611d82565b60405160208183030381529060405280519060200120915050610860565b600073ffffffffffffffffffffffffffffffffffffffff168473ffffffffffffffffffffffffffffffffffffffff16141561082d57600080fd5b8086858588604051602001610846959493929190611d23565b604051602081830303815290604052805190602001209150505b95945050505050565b610871611455565b73ffffffffffffffffffffffffffffffffffffffff1661088f6110d8565b73ffffffffffffffffffffffffffffffffffffffff16146108e5576040517f08c379a00000000000000000000000000000000000000000000000000000000081526004016108dc90611f0e565b60405180910390fd5b80600260006101000a81548173ffffffffffffffffffffffffffffffffffffffff021916908373ffffffffffffffffffffffffffffffffffffffff160217905550600260009054906101000a900473ffffffffffffffffffffffffffffffffffffffff1673ffffffffffffffffffffffffffffffffffffffff167ff261845a790fe29bbd6631e2ca4a5bdc83e6eed7c3271d9590d97287e00e912360405160405180910390a250565b600061099d8686868686610746565b905060006109ab878361145d565b905060008780519060200120905060008160001c9050600073ffffffffffffffffffffffffffffffffffffffff168673ffffffffffffffffffffffffffffffffffffffff1614610e2457600160009054906101000a900473ffffffffffffffffffffffffffffffffffffffff1673ffffffffffffffffffffffffffffffffffffffff1663dbbdf08382306040518363ffffffff1660e01b8152600401610a52929190611f49565b600060405180830381600087803b158015610a6c57600080fd5b505af1158015610a80573d6000803e3d6000fd5b505050506000600160009054906101000a900473ffffffffffffffffffffffffffffffffffffffff1673ffffffffffffffffffffffffffffffffffffffff1663ddf7fcb06040518163ffffffff1660e01b815260040160206040518083038186803b158015610aee57600080fd5b505afa158015610b02573d6000803e3d6000fd5b505050506040513d601f19601f82011682018060405250810190610b26919061198e565b83604051602001610b38929190611dbf565b604051602081830303815290604052805190602001209050600160009054906101000a900473ffffffffffffffffffffffffffffffffffffffff1673ffffffffffffffffffffffffffffffffffffffff16633f15457f6040518163ffffffff1660e01b815260040160206040518083038186803b158015610bb857600080fd5b505afa158015610bcc573d6000803e3d6000fd5b505050506040513d601f19601f82011682018060405250810190610bf091906119e0565b73ffffffffffffffffffffffffffffffffffffffff16631896f70a82896040518363ffffffff1660e01b8152600401610c2a929190611e73565b600060405180830381600087803b158015610c4457600080fd5b505af1158015610c58573d6000803e3d6000fd5b50505050600073ffffffffffffffffffffffffffffffffffffffff168673ffffffffffffffffffffffffffffffffffffffff1614610cfe578673ffffffffffffffffffffffffffffffffffffffff1663d5fa2b0082886040518363ffffffff1660e01b8152600401610ccb929190611e73565b600060405180830381600087803b158015610ce557600080fd5b505af1158015610cf9573d6000803e3d6000fd5b505050505b600160009054906101000a900473ffffffffffffffffffffffffffffffffffffffff1673ffffffffffffffffffffffffffffffffffffffff166328ed4f6c838b6040518363ffffffff1660e01b8152600401610d5b929190611f49565b600060405180830381600087803b158015610d7557600080fd5b505af1158015610d89573d6000803e3d6000fd5b50505050600160009054906101000a900473ffffffffffffffffffffffffffffffffffffffff1673ffffffffffffffffffffffffffffffffffffffff166323b872dd308b856040518463ffffffff1660e01b8152600401610dec93929190611e06565b600060405180830381600087803b158015610e0657600080fd5b505af1158015610e1a573d6000803e3d6000fd5b5050505050610eed565b600073ffffffffffffffffffffffffffffffffffffffff168573ffffffffffffffffffffffffffffffffffffffff1614610e5d57600080fd5b600160009054906101000a900473ffffffffffffffffffffffffffffffffffffffff1673ffffffffffffffffffffffffffffffffffffffff1663dbbdf083828a6040518363ffffffff1660e01b8152600401610eba929190611f49565b600060405180830381600087803b158015610ed457600080fd5b505af1158015610ee8573d6000803e3d6000fd5b505050505b8773ffffffffffffffffffffffffffffffffffffffff16827f0667086d08417333ce63f40d5bc2ef6fd330e25aaaf317b7c489541f8fe600fa8b86604051610f36929190611ebe565b60405180910390a382341115610f99573373ffffffffffffffffffffffffffffffffffffffff166108fc8434610f6c919061203a565b9081150290604051600060405180830381858888f19350505050158015610f97573d6000803e3d6000fd5b505b505050505050505050565b610fac611455565b73ffffffffffffffffffffffffffffffffffffffff16610fca6110d8565b73ffffffffffffffffffffffffffffffffffffffff1614611020576040517f08c379a000000000000000000000000000000000000000000000000000000000815260040161101790611f0e565b60405180910390fd5b61102a6000611505565b565b611034611455565b73ffffffffffffffffffffffffffffffffffffffff166110526110d8565b73ffffffffffffffffffffffffffffffffffffffff16146110a8576040517f08c379a000000000000000000000000000000000000000000000000000000000815260040161109f90611f0e565b60405180910390fd5b81600381905550806004819055505050565b60056020528060005260406000206000915090505481565b60035481565b60008060009054906101000a900473ffffffffffffffffffffffffffffffffffffffff16905090565b6000600361110e836115c9565b10159050919050565b6000600260009054906101000a900473ffffffffffffffffffffffffffffffffffffffff1673ffffffffffffffffffffffffffffffffffffffff1663fe2c6198836040518263ffffffff1660e01b81526004016111749190611e9c565b60206040518083038186803b15801561118c57600080fd5b505afa1580156111a0573d6000803e3d6000fd5b505050506040513d601f19601f820116820180604052508101906111c49190611bd5565b9050919050565b600080828051906020012090506111e183611101565b80156112975750600160009054906101000a900473ffffffffffffffffffffffffffffffffffffffff1673ffffffffffffffffffffffffffffffffffffffff166396e494e88260001c6040518263ffffffff1660e01b81526004016112469190611f2e565b60206040518083038186803b15801561125e57600080fd5b505afa158015611272573d6000803e3d6000fd5b505050506040513d601f19601f82011682018060405250810190611296919061193c565b5b915050919050565b60045481565b4260045460056000848152602001908152602001600020546112c79190611fe4565b106112d157600080fd5b42600560008381526020019081526020016000208190555050565b6112f4611455565b73ffffffffffffffffffffffffffffffffffffffff166113126110d8565b73ffffffffffffffffffffffffffffffffffffffff1614611368576040517f08c379a000000000000000000000000000000000000000000000000000000000815260040161135f90611f0e565b60405180910390fd5b600073ffffffffffffffffffffffffffffffffffffffff168173ffffffffffffffffffffffffffffffffffffffff1614156113d8576040517f08c379a00000000000000000000000000000000000000000000000000000000081526004016113cf90611eee565b60405180910390fd5b6113e181611505565b50565b61143684848080601f016020809104026020016040519081016040528093929190818152602001838380828437600081840152601f19601f82011690508083019250505050505050838360008061098e565b50505050565b600061144c848484600080610746565b90509392505050565b600033905090565b60004260035460056000858152602001908152602001600020546114819190611fe4565b111561148c57600080fd5b4260045460056000858152602001908152602001600020546114ae9190611fe4565b116114b857600080fd5b6114c1836111cb565b6114ca57600080fd5b600560008381526020019081526020016000206000905560006114ec84611117565b9050803410156114fb57600080fd5b8091505092915050565b60008060009054906101000a900473ffffffffffffffffffffffffffffffffffffffff169050816000806101000a81548173ffffffffffffffffffffffffffffffffffffffff021916908373ffffffffffffffffffffffffffffffffffffffff1602179055508173ffffffffffffffffffffffffffffffffffffffff168173ffffffffffffffffffffffffffffffffffffffff167f8be0079c531659141344cd1fd0a4f28419497f9722a3daafe3b4186f6b6457e060405160405180910390a35050565b60008060008084519050600092505b8082101561179957600085838151811061161b577f4e487b7100000000000000000000000000000000000000000000000000000000600052603260045260246000fd5b602001015160f81c60f81b9050608060f81b817effffffffffffffffffffffffffffffffffffffffffffffffffffffffffffff1916101561166a576001836116639190611fe4565b9250611785565b60e060f81b817effffffffffffffffffffffffffffffffffffffffffffffffffffffffffffff191610156116ac576002836116a59190611fe4565b9250611784565b60f060f81b817effffffffffffffffffffffffffffffffffffffffffffffffffffffffffffff191610156116ee576003836116e79190611fe4565b9250611783565b60f8801b817effffffffffffffffffffffffffffffffffffffffffffffffffffffffffffff1916101561172f576004836117289190611fe4565b9250611782565b60fc60f81b817effffffffffffffffffffffffffffffffffffffffffffffffffffffffffffff191610156117715760058361176a9190611fe4565b9250611781565b60068361177e9190611fe4565b92505b5b5b5b5b50828061179190612183565b9350506115d8565b829350505050919050565b60006117b76117b284611f97565b611f72565b9050828152602081018484840111156117cf57600080fd5b6117da848285612110565b509392505050565b6000813590506117f1816122ee565b92915050565b60008151905061180681612305565b92915050565b60008135905061181b8161231c565b92915050565b6000815190506118308161231c565b92915050565b60008135905061184581612333565b92915050565b60008151905061185a8161234a565b92915050565b60008135905061186f81612361565b92915050565b60008083601f84011261188757600080fd5b8235905067ffffffffffffffff8111156118a057600080fd5b6020830191508360018202830111156118b857600080fd5b9250929050565b600082601f8301126118d057600080fd5b81356118e08482602086016117a4565b91505092915050565b6000813590506118f881612378565b92915050565b60008151905061190d81612378565b92915050565b60006020828403121561192557600080fd5b6000611933848285016117e2565b91505092915050565b60006020828403121561194e57600080fd5b600061195c848285016117f7565b91505092915050565b60006020828403121561197757600080fd5b60006119858482850161180c565b91505092915050565b6000602082840312156119a057600080fd5b60006119ae84828501611821565b91505092915050565b6000602082840312156119c957600080fd5b60006119d784828501611836565b91505092915050565b6000602082840312156119f257600080fd5b6000611a008482850161184b565b91505092915050565b600060208284031215611a1b57600080fd5b6000611a2984828501611860565b91505092915050565b60008060008060608587031215611a4857600080fd5b600085013567ffffffffffffffff811115611a6257600080fd5b611a6e87828801611875565b94509450506020611a81878288016117e2565b9250506040611a928782880161180c565b91505092959194509250565b600060208284031215611ab057600080fd5b600082013567ffffffffffffffff811115611aca57600080fd5b611ad6848285016118bf565b91505092915050565b600080600060608486031215611af457600080fd5b600084013567ffffffffffffffff811115611b0e57600080fd5b611b1a868287016118bf565b9350506020611b2b868287016117e2565b9250506040611b3c8682870161180c565b9150509250925092565b600080600080600060a08688031215611b5e57600080fd5b600086013567ffffffffffffffff811115611b7857600080fd5b611b84888289016118bf565b9550506020611b95888289016117e2565b9450506040611ba68882890161180c565b9350506060611bb7888289016117e2565b9250506080611bc8888289016117e2565b9150509295509295909350565b600060208284031215611be757600080fd5b6000611bf5848285016118fe565b91505092915050565b60008060408385031215611c1157600080fd5b6000611c1f858286016118e9565b9250506020611c30858286016118e9565b9150509250929050565b611c438161206e565b82525050565b611c5a611c558261206e565b6121cc565b82525050565b611c6981612080565b82525050565b611c788161208c565b82525050565b611c8f611c8a8261208c565b6121de565b82525050565b6000611ca082611fc8565b611caa8185611fd3565b9350611cba81856020860161211f565b611cc381612258565b840191505092915050565b6000611cdb602683611fd3565b9150611ce682612276565b604082019050919050565b6000611cfe602083611fd3565b9150611d09826122c5565b602082019050919050565b611d1d81612106565b82525050565b6000611d2f8288611c7e565b602082019150611d3f8287611c49565b601482019150611d4f8286611c49565b601482019150611d5f8285611c49565b601482019150611d6f8284611c7e565b6020820191508190509695505050505050565b6000611d8e8286611c7e565b602082019150611d9e8285611c49565b601482019150611dae8284611c7e565b602082019150819050949350505050565b6000611dcb8285611c7e565b602082019150611ddb8284611c7e565b6020820191508190509392505050565b6000602082019050611e006000830184611c3a565b92915050565b6000606082019050611e1b6000830186611c3a565b611e286020830185611c3a565b611e356040830184611d14565b949350505050565b6000602082019050611e526000830184611c60565b92915050565b6000602082019050611e6d6000830184611c6f565b92915050565b6000604082019050611e886000830185611c6f565b611e956020830184611c3a565b9392505050565b60006020820190508181036000830152611eb68184611c95565b905092915050565b60006040820190508181036000830152611ed88185611c95565b9050611ee76020830184611d14565b9392505050565b60006020820190508181036000830152611f0781611cce565b9050919050565b60006020820190508181036000830152611f2781611cf1565b9050919050565b6000602082019050611f436000830184611d14565b92915050565b6000604082019050611f5e6000830185611d14565b611f6b6020830184611c3a565b9392505050565b6000611f7c611f8d565b9050611f888282612152565b919050565b6000604051905090565b600067ffffffffffffffff821115611fb257611fb1612229565b5b611fbb82612258565b9050602081019050919050565b600081519050919050565b600082825260208201905092915050565b6000611fef82612106565b9150611ffa83612106565b9250827fffffffffffffffffffffffffffffffffffffffffffffffffffffffffffffffff0382111561202f5761202e6121fa565b5b828201905092915050565b600061204582612106565b915061205083612106565b925082821015612063576120626121fa565b5b828203905092915050565b6000612079826120e6565b9050919050565b60008115159050919050565b6000819050919050565b60007fffffffff0000000000000000000000000000000000000000000000000000000082169050919050565b60006120cd8261206e565b9050919050565b60006120df8261206e565b9050919050565b600073ffffffffffffffffffffffffffffffffffffffff82169050919050565b6000819050919050565b82818337600083830152505050565b60005b8381101561213d578082015181840152602081019050612122565b8381111561214c576000848401525b50505050565b61215b82612258565b810181811067ffffffffffffffff8211171561217a57612179612229565b5b80604052505050565b600061218e82612106565b91507fffffffffffffffffffffffffffffffffffffffffffffffffffffffffffffffff8214156121c1576121c06121fa565b5b600182019050919050565b60006121d7826121e8565b9050919050565b6000819050919050565b60006121f382612269565b9050919050565b7f4e487b7100000000000000000000000000000000000000000000000000000000600052601160045260246000fd5b7f4e487b7100000000000000000000000000000000000000000000000000000000600052604160045260246000fd5b6000601f19601f8301169050919050565b60008160601b9050919050565b7f4f776e61626c653a206e6577206f776e657220697320746865207a65726f206160008201527f6464726573730000000000000000000000000000000000000000000000000000602082015250565b7f4f776e61626c653a2063616c6c6572206973206e6f7420746865206f776e6572600082015250565b6122f78161206e565b811461230257600080fd5b50565b61230e81612080565b811461231957600080fd5b50565b6123258161208c565b811461233057600080fd5b50565b61233c81612096565b811461234757600080fd5b50565b612353816120c2565b811461235e57600080fd5b50565b61236a816120d4565b811461237557600080fd5b50565b61238181612106565b811461238c57600080fd5b5056fea26469706673582212209532d814ed2a21c03801c60b7c893da65cd32c15d8faf28d6d0095a7dc3fc5e464736f6c63430008040033",
  "immutableReferences": {},
  "source": "// SPDX-License-Identifier: MIT\r\npragma solidity ^0.8.4;\r\n\r\nimport \"@ensdomains/ens-contracts/contracts/ethregistrar/StringUtils.sol\";\r\nimport \"@ensdomains/ens-contracts/contracts/resolvers/Resolver.sol\";\r\nimport \"@openzeppelin/contracts/access/Ownable.sol\";\r\n\r\nimport \"./BaseRegistrarImplementation.sol\";\r\nimport \"./TfuelPriceOracle.sol\";\r\n\r\n\r\n/**\r\n * @dev A registrar controller for registering names at fixed cost.\r\n */\r\ncontract ETHRegistrarController is Ownable {\r\n    using StringUtils for *;\r\n\r\n    bytes4 constant private INTERFACE_META_ID = bytes4(keccak256(\"supportsInterface(bytes4)\"));\r\n    bytes4 constant private COMMITMENT_CONTROLLER_ID = bytes4(\r\n        keccak256(\"rentPrice(string,uint256)\") ^\r\n        keccak256(\"available(string)\") ^\r\n        keccak256(\"makeCommitment(string,address,bytes32)\") ^\r\n        keccak256(\"commit(bytes32)\") ^\r\n        keccak256(\"register(string,address,uint256,bytes32)\") ^\r\n        keccak256(\"renew(string,uint256)\")\r\n    );\r\n\r\n    bytes4 constant private COMMITMENT_WITH_CONFIG_CONTROLLER_ID = bytes4(\r\n        keccak256(\"registerWithConfig(string,address,uint256,bytes32,address,address)\") ^\r\n        keccak256(\"makeCommitmentWithConfig(string,address,bytes32,address,address)\")\r\n    );\r\n\r\n    BaseRegistrarImplementation base;\r\n    PriceOracle prices;\r\n    uint public minCommitmentAge;\r\n    uint public maxCommitmentAge;\r\n\r\n    mapping(bytes32=>uint) public commitments;\r\n\r\n    event NameRegistered(string name, bytes32 indexed label, address indexed owner, uint cost);\r\n    event NewPriceOracle(address indexed oracle);\r\n\r\n    constructor(BaseRegistrarImplementation _base, PriceOracle _prices, uint _minCommitmentAge, uint _maxCommitmentAge) {\r\n        require(_maxCommitmentAge > _minCommitmentAge);\r\n\r\n        base = _base;\r\n        prices = _prices;\r\n        minCommitmentAge = _minCommitmentAge;\r\n        maxCommitmentAge = _maxCommitmentAge;\r\n    }\r\n\r\n    function rentPrice(string memory name) view public returns(uint) {\r\n        return prices.price(name);\r\n    }\r\n\r\n    function valid(string memory name) public pure returns(bool) {\r\n        return name.strlen() >= 3;\r\n    }\r\n\r\n    function available(string memory name) public view returns(bool) {\r\n        bytes32 label = keccak256(bytes(name));\r\n        return valid(name) && base.available(uint256(label));\r\n    }\r\n\r\n    function makeCommitment(string memory name, address owner, bytes32 secret) pure public returns(bytes32) {\r\n        return makeCommitmentWithConfig(name, owner, secret, address(0), address(0));\r\n    }\r\n\r\n    function makeCommitmentWithConfig(string memory name, address owner, bytes32 secret, address resolver, address addr) pure public returns(bytes32) {\r\n        bytes32 label = keccak256(bytes(name));\r\n        if (resolver == address(0) && addr == address(0)) {\r\n            return keccak256(abi.encodePacked(label, owner, secret));\r\n        }\r\n        require(resolver != address(0));\r\n        return keccak256(abi.encodePacked(label, owner, resolver, addr, secret));\r\n    }\r\n\r\n    function commit(bytes32 commitment) public {\r\n        require(commitments[commitment] + maxCommitmentAge < block.timestamp);\r\n        commitments[commitment] = block.timestamp;\r\n    }\r\n\r\n    function register(string calldata name, address owner, bytes32 secret) external payable {\r\n      registerWithConfig(name, owner, secret, address(0), address(0));\r\n    }\r\n\r\n    function registerWithConfig(string memory name, address owner, bytes32 secret, address resolver, address addr) public payable {\r\n        bytes32 commitment = makeCommitmentWithConfig(name, owner, secret, resolver, addr);\r\n        uint cost = _consumeCommitment(name, commitment);\r\n\r\n        bytes32 label = keccak256(bytes(name));\r\n        uint256 tokenId = uint256(label);\r\n\r\n        if(resolver != address(0)) {\r\n            // Set this contract as the (temporary) owner, giving it\r\n            // permission to set up the resolver.\r\n            base.register(tokenId, address(this));\r\n\r\n            // The nodehash of this label\r\n            bytes32 nodehash = keccak256(abi.encodePacked(base.baseNode(), label));\r\n\r\n            // Set the resolver\r\n            base.ens().setResolver(nodehash, resolver);\r\n\r\n            // Configure the resolver\r\n            if (addr != address(0)) {\r\n                Resolver(resolver).setAddr(nodehash, addr);\r\n            }\r\n\r\n            // Now transfer full ownership to the expeceted owner\r\n            base.reclaim(tokenId, owner);\r\n            base.transferFrom(address(this), owner, tokenId);\r\n        } else {\r\n            require(addr == address(0));\r\n            base.register(tokenId, owner);\r\n        }\r\n\r\n        emit NameRegistered(name, label, owner, cost);\r\n\r\n        // Refund any extra payment\r\n        if(msg.value > cost) {\r\n            payable(msg.sender).transfer(msg.value - cost);\r\n        }\r\n    }\r\n\r\n    function setPriceOracle(PriceOracle _prices) public onlyOwner {\r\n        prices = _prices;\r\n        emit NewPriceOracle(address(prices));\r\n    }\r\n\r\n    function setCommitmentAges(uint _minCommitmentAge, uint _maxCommitmentAge) public onlyOwner {\r\n        minCommitmentAge = _minCommitmentAge;\r\n        maxCommitmentAge = _maxCommitmentAge;\r\n    }\r\n\r\n    function withdraw() public onlyOwner {\r\n        payable(msg.sender).transfer(address(this).balance);        \r\n    }\r\n\r\n    function supportsInterface(bytes4 interfaceID) external pure returns (bool) {\r\n        return interfaceID == INTERFACE_META_ID ||\r\n               interfaceID == COMMITMENT_CONTROLLER_ID ||\r\n               interfaceID == COMMITMENT_WITH_CONFIG_CONTROLLER_ID;\r\n    }\r\n\r\n    function _consumeCommitment(string memory name, bytes32 commitment) internal returns (uint256) {\r\n        // Require a valid commitment\r\n        require(commitments[commitment] + minCommitmentAge <= block.timestamp);\r\n\r\n        // If the commitment is too old, or the name is registered, stop\r\n        require(commitments[commitment] + maxCommitmentAge > block.timestamp);\r\n        require(available(name));\r\n\r\n        delete(commitments[commitment]);\r\n\r\n        uint cost = rentPrice(name);\r\n        require(msg.value >= cost);\r\n\r\n        return cost;\r\n    }\r\n}",
  "sourcePath": "D:\\Posao-Stefan\\Stefan-razno\\Blockchain\\Thetaboard\\core-contracts\\contracts\\ETHRegistrarController.sol",
  "compiler": {
    "name": "solc",
    "version": "0.8.4+commit.c7e474f2.Emscripten.clang"
  },
  "schemaVersion": "3.4.3",
  "updatedAt": "2021-10-08T09:04:08.299Z",
  "networkType": "ethereum",
  "devdoc": {
    "details": "A registrar controller for registering names at fixed cost.",
    "kind": "dev",
    "methods": {
      "owner()": {
        "details": "Returns the address of the current owner."
      },
      "renounceOwnership()": {
        "details": "Leaves the contract without owner. It will not be possible to call `onlyOwner` functions anymore. Can only be called by the current owner. NOTE: Renouncing ownership will leave the contract without an owner, thereby removing any functionality that is only available to the owner."
      },
      "transferOwnership(address)": {
        "details": "Transfers ownership of the contract to a new account (`newOwner`). Can only be called by the current owner."
      }
    },
    "version": 1
  },
  "userdoc": {
    "kind": "user",
    "methods": {},
    "version": 1
  }
}