{
  "contractName": "PublicResolver",
  "abi": [
    {
      "inputs": [
        {
          "internalType": "contract ENS",
          "name": "_ens",
          "type": "address"
        }
      ],
      "stateMutability": "nonpayable",
      "type": "constructor"
    },
    {
      "anonymous": false,
      "inputs": [
        {
          "indexed": true,
          "internalType": "bytes32",
          "name": "node",
          "type": "bytes32"
        },
        {
          "indexed": true,
          "internalType": "uint256",
          "name": "contentType",
          "type": "uint256"
        }
      ],
      "name": "ABIChanged",
      "type": "event"
    },
    {
      "anonymous": false,
      "inputs": [
        {
          "indexed": true,
          "internalType": "bytes32",
          "name": "node",
          "type": "bytes32"
        },
        {
          "indexed": false,
          "internalType": "address",
          "name": "a",
          "type": "address"
        }
      ],
      "name": "AddrChanged",
      "type": "event"
    },
    {
      "anonymous": false,
      "inputs": [
        {
          "indexed": true,
          "internalType": "bytes32",
          "name": "node",
          "type": "bytes32"
        },
        {
          "indexed": false,
          "internalType": "uint256",
          "name": "coinType",
          "type": "uint256"
        },
        {
          "indexed": false,
          "internalType": "bytes",
          "name": "newAddress",
          "type": "bytes"
        }
      ],
      "name": "AddressChanged",
      "type": "event"
    },
    {
      "anonymous": false,
      "inputs": [
        {
          "indexed": true,
          "internalType": "address",
          "name": "owner",
          "type": "address"
        },
        {
          "indexed": true,
          "internalType": "address",
          "name": "operator",
          "type": "address"
        },
        {
          "indexed": false,
          "internalType": "bool",
          "name": "approved",
          "type": "bool"
        }
      ],
      "name": "ApprovalForAll",
      "type": "event"
    },
    {
      "anonymous": false,
      "inputs": [
        {
          "indexed": true,
          "internalType": "bytes32",
          "name": "node",
          "type": "bytes32"
        },
        {
          "indexed": false,
          "internalType": "bytes",
          "name": "hash",
          "type": "bytes"
        }
      ],
      "name": "ContenthashChanged",
      "type": "event"
    },
    {
      "anonymous": false,
      "inputs": [
        {
          "indexed": true,
          "internalType": "bytes32",
          "name": "node",
          "type": "bytes32"
        },
        {
          "indexed": false,
          "internalType": "bytes",
          "name": "name",
          "type": "bytes"
        },
        {
          "indexed": false,
          "internalType": "uint16",
          "name": "resource",
          "type": "uint16"
        },
        {
          "indexed": false,
          "internalType": "bytes",
          "name": "record",
          "type": "bytes"
        }
      ],
      "name": "DNSRecordChanged",
      "type": "event"
    },
    {
      "anonymous": false,
      "inputs": [
        {
          "indexed": true,
          "internalType": "bytes32",
          "name": "node",
          "type": "bytes32"
        },
        {
          "indexed": false,
          "internalType": "bytes",
          "name": "name",
          "type": "bytes"
        },
        {
          "indexed": false,
          "internalType": "uint16",
          "name": "resource",
          "type": "uint16"
        }
      ],
      "name": "DNSRecordDeleted",
      "type": "event"
    },
    {
      "anonymous": false,
      "inputs": [
        {
          "indexed": true,
          "internalType": "bytes32",
          "name": "node",
          "type": "bytes32"
        }
      ],
      "name": "DNSZoneCleared",
      "type": "event"
    },
    {
      "anonymous": false,
      "inputs": [
        {
          "indexed": true,
          "internalType": "bytes32",
          "name": "node",
          "type": "bytes32"
        },
        {
          "indexed": false,
          "internalType": "bytes",
          "name": "lastzonehash",
          "type": "bytes"
        },
        {
          "indexed": false,
          "internalType": "bytes",
          "name": "zonehash",
          "type": "bytes"
        }
      ],
      "name": "DNSZonehashChanged",
      "type": "event"
    },
    {
      "anonymous": false,
      "inputs": [
        {
          "indexed": true,
          "internalType": "bytes32",
          "name": "node",
          "type": "bytes32"
        },
        {
          "indexed": true,
          "internalType": "bytes4",
          "name": "interfaceID",
          "type": "bytes4"
        },
        {
          "indexed": false,
          "internalType": "address",
          "name": "implementer",
          "type": "address"
        }
      ],
      "name": "InterfaceChanged",
      "type": "event"
    },
    {
      "anonymous": false,
      "inputs": [
        {
          "indexed": true,
          "internalType": "bytes32",
          "name": "node",
          "type": "bytes32"
        },
        {
          "indexed": false,
          "internalType": "string",
          "name": "name",
          "type": "string"
        }
      ],
      "name": "NameChanged",
      "type": "event"
    },
    {
      "anonymous": false,
      "inputs": [
        {
          "indexed": true,
          "internalType": "bytes32",
          "name": "node",
          "type": "bytes32"
        },
        {
          "indexed": false,
          "internalType": "bytes32",
          "name": "x",
          "type": "bytes32"
        },
        {
          "indexed": false,
          "internalType": "bytes32",
          "name": "y",
          "type": "bytes32"
        }
      ],
      "name": "PubkeyChanged",
      "type": "event"
    },
    {
      "anonymous": false,
      "inputs": [
        {
          "indexed": true,
          "internalType": "bytes32",
          "name": "node",
          "type": "bytes32"
        },
        {
          "indexed": true,
          "internalType": "string",
          "name": "indexedKey",
          "type": "string"
        },
        {
          "indexed": false,
          "internalType": "string",
          "name": "key",
          "type": "string"
        }
      ],
      "name": "TextChanged",
      "type": "event"
    },
    {
      "inputs": [
        {
          "internalType": "bytes32",
          "name": "node",
          "type": "bytes32"
        },
        {
          "internalType": "uint256",
          "name": "contentTypes",
          "type": "uint256"
        }
      ],
      "name": "ABI",
      "outputs": [
        {
          "internalType": "uint256",
          "name": "",
          "type": "uint256"
        },
        {
          "internalType": "bytes",
          "name": "",
          "type": "bytes"
        }
      ],
      "stateMutability": "view",
      "type": "function",
      "constant": true
    },
    {
      "inputs": [
        {
          "internalType": "bytes32",
          "name": "node",
          "type": "bytes32"
        }
      ],
      "name": "addr",
      "outputs": [
        {
          "internalType": "address payable",
          "name": "",
          "type": "address"
        }
      ],
      "stateMutability": "view",
      "type": "function",
      "constant": true
    },
    {
      "inputs": [
        {
          "internalType": "bytes32",
          "name": "node",
          "type": "bytes32"
        },
        {
          "internalType": "uint256",
          "name": "coinType",
          "type": "uint256"
        }
      ],
      "name": "addr",
      "outputs": [
        {
          "internalType": "bytes",
          "name": "",
          "type": "bytes"
        }
      ],
      "stateMutability": "view",
      "type": "function",
      "constant": true
    },
    {
      "inputs": [
        {
          "internalType": "bytes32",
          "name": "node",
          "type": "bytes32"
        }
      ],
      "name": "clearDNSZone",
      "outputs": [],
      "stateMutability": "nonpayable",
      "type": "function"
    },
    {
      "inputs": [
        {
          "internalType": "bytes32",
          "name": "node",
          "type": "bytes32"
        }
      ],
      "name": "contenthash",
      "outputs": [
        {
          "internalType": "bytes",
          "name": "",
          "type": "bytes"
        }
      ],
      "stateMutability": "view",
      "type": "function",
      "constant": true
    },
    {
      "inputs": [
        {
          "internalType": "bytes32",
          "name": "node",
          "type": "bytes32"
        },
        {
          "internalType": "bytes32",
          "name": "name",
          "type": "bytes32"
        },
        {
          "internalType": "uint16",
          "name": "resource",
          "type": "uint16"
        }
      ],
      "name": "dnsRecord",
      "outputs": [
        {
          "internalType": "bytes",
          "name": "",
          "type": "bytes"
        }
      ],
      "stateMutability": "view",
      "type": "function",
      "constant": true
    },
    {
      "inputs": [
        {
          "internalType": "bytes32",
          "name": "node",
          "type": "bytes32"
        },
        {
          "internalType": "bytes32",
          "name": "name",
          "type": "bytes32"
        }
      ],
      "name": "hasDNSRecords",
      "outputs": [
        {
          "internalType": "bool",
          "name": "",
          "type": "bool"
        }
      ],
      "stateMutability": "view",
      "type": "function",
      "constant": true
    },
    {
      "inputs": [
        {
          "internalType": "bytes32",
          "name": "node",
          "type": "bytes32"
        },
        {
          "internalType": "bytes4",
          "name": "interfaceID",
          "type": "bytes4"
        }
      ],
      "name": "interfaceImplementer",
      "outputs": [
        {
          "internalType": "address",
          "name": "",
          "type": "address"
        }
      ],
      "stateMutability": "view",
      "type": "function",
      "constant": true
    },
    {
      "inputs": [
        {
          "internalType": "bytes32",
          "name": "node",
          "type": "bytes32"
        }
      ],
      "name": "name",
      "outputs": [
        {
          "internalType": "string",
          "name": "",
          "type": "string"
        }
      ],
      "stateMutability": "view",
      "type": "function",
      "constant": true
    },
    {
      "inputs": [
        {
          "internalType": "bytes32",
          "name": "node",
          "type": "bytes32"
        }
      ],
      "name": "pubkey",
      "outputs": [
        {
          "internalType": "bytes32",
          "name": "x",
          "type": "bytes32"
        },
        {
          "internalType": "bytes32",
          "name": "y",
          "type": "bytes32"
        }
      ],
      "stateMutability": "view",
      "type": "function",
      "constant": true
    },
    {
      "inputs": [
        {
          "internalType": "bytes32",
          "name": "node",
          "type": "bytes32"
        },
        {
          "internalType": "uint256",
          "name": "contentType",
          "type": "uint256"
        },
        {
          "internalType": "bytes",
          "name": "data",
          "type": "bytes"
        }
      ],
      "name": "setABI",
      "outputs": [],
      "stateMutability": "nonpayable",
      "type": "function"
    },
    {
      "inputs": [
        {
          "internalType": "bytes32",
          "name": "node",
          "type": "bytes32"
        },
        {
          "internalType": "uint256",
          "name": "coinType",
          "type": "uint256"
        },
        {
          "internalType": "bytes",
          "name": "a",
          "type": "bytes"
        }
      ],
      "name": "setAddr",
      "outputs": [],
      "stateMutability": "nonpayable",
      "type": "function"
    },
    {
      "inputs": [
        {
          "internalType": "bytes32",
          "name": "node",
          "type": "bytes32"
        },
        {
          "internalType": "address",
          "name": "a",
          "type": "address"
        }
      ],
      "name": "setAddr",
      "outputs": [],
      "stateMutability": "nonpayable",
      "type": "function"
    },
    {
      "inputs": [
        {
          "internalType": "bytes32",
          "name": "node",
          "type": "bytes32"
        },
        {
          "internalType": "bytes",
          "name": "hash",
          "type": "bytes"
        }
      ],
      "name": "setContenthash",
      "outputs": [],
      "stateMutability": "nonpayable",
      "type": "function"
    },
    {
      "inputs": [
        {
          "internalType": "bytes32",
          "name": "node",
          "type": "bytes32"
        },
        {
          "internalType": "bytes",
          "name": "data",
          "type": "bytes"
        }
      ],
      "name": "setDNSRecords",
      "outputs": [],
      "stateMutability": "nonpayable",
      "type": "function"
    },
    {
      "inputs": [
        {
          "internalType": "bytes32",
          "name": "node",
          "type": "bytes32"
        },
        {
          "internalType": "bytes4",
          "name": "interfaceID",
          "type": "bytes4"
        },
        {
          "internalType": "address",
          "name": "implementer",
          "type": "address"
        }
      ],
      "name": "setInterface",
      "outputs": [],
      "stateMutability": "nonpayable",
      "type": "function"
    },
    {
      "inputs": [
        {
          "internalType": "bytes32",
          "name": "node",
          "type": "bytes32"
        },
        {
          "internalType": "string",
          "name": "name",
          "type": "string"
        }
      ],
      "name": "setName",
      "outputs": [],
      "stateMutability": "nonpayable",
      "type": "function"
    },
    {
      "inputs": [
        {
          "internalType": "bytes32",
          "name": "node",
          "type": "bytes32"
        },
        {
          "internalType": "bytes32",
          "name": "x",
          "type": "bytes32"
        },
        {
          "internalType": "bytes32",
          "name": "y",
          "type": "bytes32"
        }
      ],
      "name": "setPubkey",
      "outputs": [],
      "stateMutability": "nonpayable",
      "type": "function"
    },
    {
      "inputs": [
        {
          "internalType": "bytes32",
          "name": "node",
          "type": "bytes32"
        },
        {
          "internalType": "string",
          "name": "key",
          "type": "string"
        },
        {
          "internalType": "string",
          "name": "value",
          "type": "string"
        }
      ],
      "name": "setText",
      "outputs": [],
      "stateMutability": "nonpayable",
      "type": "function"
    },
    {
      "inputs": [
        {
          "internalType": "bytes32",
          "name": "node",
          "type": "bytes32"
        },
        {
          "internalType": "bytes",
          "name": "hash",
          "type": "bytes"
        }
      ],
      "name": "setZonehash",
      "outputs": [],
      "stateMutability": "nonpayable",
      "type": "function"
    },
    {
      "inputs": [
        {
          "internalType": "bytes32",
          "name": "node",
          "type": "bytes32"
        },
        {
          "internalType": "string",
          "name": "key",
          "type": "string"
        }
      ],
      "name": "text",
      "outputs": [
        {
          "internalType": "string",
          "name": "",
          "type": "string"
        }
      ],
      "stateMutability": "view",
      "type": "function",
      "constant": true
    },
    {
      "inputs": [
        {
          "internalType": "bytes32",
          "name": "node",
          "type": "bytes32"
        }
      ],
      "name": "zonehash",
      "outputs": [
        {
          "internalType": "bytes",
          "name": "",
          "type": "bytes"
        }
      ],
      "stateMutability": "view",
      "type": "function",
      "constant": true
    },
    {
      "inputs": [
        {
          "internalType": "address",
          "name": "operator",
          "type": "address"
        },
        {
          "internalType": "bool",
          "name": "approved",
          "type": "bool"
        }
      ],
      "name": "setApprovalForAll",
      "outputs": [],
      "stateMutability": "nonpayable",
      "type": "function"
    },
    {
      "inputs": [
        {
          "internalType": "address",
          "name": "account",
          "type": "address"
        },
        {
          "internalType": "address",
          "name": "operator",
          "type": "address"
        }
      ],
      "name": "isApprovedForAll",
      "outputs": [
        {
          "internalType": "bool",
          "name": "",
          "type": "bool"
        }
      ],
      "stateMutability": "view",
      "type": "function",
      "constant": true
    },
    {
      "inputs": [
        {
          "internalType": "bytes[]",
          "name": "data",
          "type": "bytes[]"
        }
      ],
      "name": "multicall",
      "outputs": [
        {
          "internalType": "bytes[]",
          "name": "results",
          "type": "bytes[]"
        }
      ],
      "stateMutability": "nonpayable",
      "type": "function"
    },
    {
      "inputs": [
        {
          "internalType": "bytes4",
          "name": "interfaceID",
          "type": "bytes4"
        }
      ],
      "name": "supportsInterface",
      "outputs": [
        {
          "internalType": "bool",
          "name": "",
          "type": "bool"
        }
      ],
      "stateMutability": "pure",
      "type": "function",
      "constant": true
    }
  ],
  "bytecode": "0x60806040523480156200001157600080fd5b5060405162003fc438038062003fc4833981810160405281019062000037919062000096565b80600b60006101000a81548173ffffffffffffffffffffffffffffffffffffffff021916908373ffffffffffffffffffffffffffffffffffffffff1602179055505062000124565b60008151905062000090816200010a565b92915050565b600060208284031215620000a957600080fd5b6000620000b9848285016200007f565b91505092915050565b6000620000cf82620000ea565b9050919050565b6000620000e382620000c2565b9050919050565b600073ffffffffffffffffffffffffffffffffffffffff82169050919050565b6200011581620000d6565b81146200012157600080fd5b50565b613e9080620001346000396000f3fe608060405234801561001057600080fd5b50600436106101ae5760003560e01c806377372213116100ee578063bc1c58d111610097578063d5fa2b0011610071578063d5fa2b001461050d578063e59d895d14610529578063e985e9c514610545578063f1cb7e0614610575576101ae565b8063bc1c58d114610490578063c8690233146104c0578063ce3decdc146104f1576101ae565b8063a8fa5682116100c8578063a8fa568214610414578063ac9650d814610444578063ad5780af14610474576101ae565b806377372213146103c05780638b95dd71146103dc578063a22cb465146103f8576101ae565b8063304e6ade1161015b57806359d1d43c1161013557806359d1d43c146103145780635c98042b14610344578063623195b014610374578063691f343114610390576101ae565b8063304e6ade146102985780633b3b57de146102b45780634cbf6ba4146102e4576101ae565b8063124a319c1161018c578063124a319c1461021b5780632203ab561461024b57806329cd62ea1461027c576101ae565b806301ffc9a7146101b35780630af179d7146101e357806310f13a8c146101ff575b600080fd5b6101cd60048036038101906101c89190613370565b6105a5565b6040516101da91906136f9565b60405180910390f35b6101fd60048036038101906101f89190613128565b6105b7565b005b610219600480360381019061021491906131d8565b6107e9565b005b6102356004803603810190610230919061309d565b610897565b6040516102429190613686565b60405180910390f35b61026560048036038101906102609190613261565b610cdb565b6040516102739291906138cd565b60405180910390f35b61029660048036038101906102919190612fff565b610e0f565b005b6102b260048036038101906102ad9190613128565b610ea1565b005b6102ce60048036038101906102c99190612f5e565b610f17565b6040516102db91906136bc565b60405180910390f35b6102fe60048036038101906102f99190612fc3565b610f4d565b60405161030b91906136f9565b60405180910390f35b61032e60048036038101906103299190613180565b610fb5565b60405161033b919061388b565b60405180910390f35b61035e60048036038101906103599190612f5e565b61107a565b60405161036b9190613797565b60405180910390f35b61038e6004803603810190610389919061329d565b61111f565b005b6103aa60048036038101906103a59190612f5e565b6111b5565b6040516103b7919061388b565b60405180910390f35b6103da60048036038101906103d59190613180565b61125a565b005b6103f660048036038101906103f19190613309565b6112d0565b005b610412600480360381019061040d9190612edd565b6113a6565b005b61042e6004803603810190610429919061304e565b611512565b60405161043b9190613797565b60405180910390f35b61045e60048036038101906104599190612f19565b611607565b60405161046b91906136d7565b60405180910390f35b61048e60048036038101906104899190612f5e565b6117b3565b005b6104aa60048036038101906104a59190612f5e565b611820565b6040516104b79190613797565b60405180910390f35b6104da60048036038101906104d59190612f5e565b6118c5565b6040516104e892919061372f565b60405180910390f35b61050b60048036038101906105069190613128565b6118ff565b005b61052760048036038101906105229190612f87565b611a18565b005b610543600480360381019061053e91906130d9565b611a44565b005b61055f600480360381019061055a9190612ea1565b611b56565b60405161056c91906136f9565b60405180910390f35b61058f600480360381019061058a9190613261565b611bea565b60405161059c9190613797565b60405180910390f35b60006105b082611ca1565b9050919050565b826105c181611d02565b6105ca57600080fd5b60008060608060008061062b60008a8a8080601f016020809104026020016040519081016040528093929190818152602001838380828437600081840152601f19601f82011690508083019250505050505050611dfa90919063ffffffff16565b90505b61063781611e24565b61076d5760008661ffff161415610693578060400151955061065881611e3a565b93508360405160200161066b9190613656565b60405160208183030381529060405280519060200120915061068c81611e71565b925061075f565b600061069e82611e3a565b9050816040015161ffff168761ffff161415806106cb57506106c98186611eaa90919063ffffffff16565b155b1561075d576107368b86898d8d8080601f016020809104026020016040519081016040528093929190818152602001838380828437600081840152601f19601f820116905080830192505050505050508a8b886020015161072c9190613a98565b60008b5114611ed1565b81604001519650816020015195508094508480519060200120925061075a82611e71565b93505b505b610768816121fc565b61062e565b506000835111156107de576107dd8984878b8b8080601f016020809104026020016040519081016040528093929190818152602001838380828437600081840152601f19601f8201169050808301925050505050505088898e8e90506107d39190613a98565b6000895114611ed1565b5b505050505050505050565b846107f381611d02565b6107fc57600080fd5b8282600a6000898152602001908152602001600020878760405161082192919061366d565b9081526020016040518091039020919061083c929190612a65565b50848460405161084d92919061366d565b6040518091039020867fd8c9334b1a9c2f9da342a0a2b32629c1a229b6445dad78947f674b44444a75508787604051610887929190613867565b60405180910390a3505050505050565b600080600760008581526020019081526020016000206000847bffffffffffffffffffffffffffffffffffffffffffffffffffffffff19167bffffffffffffffffffffffffffffffffffffffffffffffffffffffff1916815260200190815260200160002060009054906101000a900473ffffffffffffffffffffffffffffffffffffffff169050600073ffffffffffffffffffffffffffffffffffffffff168173ffffffffffffffffffffffffffffffffffffffff161461095c5780915050610cd5565b600061096785610f17565b9050600073ffffffffffffffffffffffffffffffffffffffff168173ffffffffffffffffffffffffffffffffffffffff1614156109a957600092505050610cd5565b6000808273ffffffffffffffffffffffffffffffffffffffff166301ffc9a760e01b6040516024016109db9190613758565b6040516020818303038152906040527f01ffc9a7000000000000000000000000000000000000000000000000000000007bffffffffffffffffffffffffffffffffffffffffffffffffffffffff19166020820180517bffffffffffffffffffffffffffffffffffffffffffffffffffffffff8381831617835250505050604051610a659190613656565b600060405180830381855afa9150503d8060008114610aa0576040519150601f19603f3d011682016040523d82523d6000602084013e610aa5565b606091505b5091509150811580610ab8575060208151105b80610b2c5750600060f81b81601f81518110610afd577f4e487b7100000000000000000000000000000000000000000000000000000000600052603260045260246000fd5b602001015160f81c60f81b7effffffffffffffffffffffffffffffffffffffffffffffffffffffffffffff1916145b15610b3e576000945050505050610cd5565b8273ffffffffffffffffffffffffffffffffffffffff1686604051602401610b669190613758565b6040516020818303038152906040527f01ffc9a7000000000000000000000000000000000000000000000000000000007bffffffffffffffffffffffffffffffffffffffffffffffffffffffff19166020820180517bffffffffffffffffffffffffffffffffffffffffffffffffffffffff8381831617835250505050604051610bf09190613656565b600060405180830381855afa9150503d8060008114610c2b576040519150601f19603f3d011682016040523d82523d6000602084013e610c30565b606091505b508092508193505050811580610c47575060208151105b80610cbb5750600060f81b81601f81518110610c8c577f4e487b7100000000000000000000000000000000000000000000000000000000600052603260045260246000fd5b602001015160f81c60f81b7effffffffffffffffffffffffffffffffffffffffffffffffffffffffffffff1916145b15610ccd576000945050505050610cd5565b829450505050505b92915050565b60006060600080600086815260200190815260200160002090506000600190505b848111610def57600085821614158015610d34575060008260008381526020019081526020016000208054610d3090613c0c565b9050115b15610de35780826000838152602001908152602001600020808054610d5890613c0c565b80601f0160208091040260200160405190810160405280929190818152602001828054610d8490613c0c565b8015610dd15780601f10610da657610100808354040283529160200191610dd1565b820191906000526020600020905b815481529060010190602001808311610db457829003601f168201915b50505050509050935093505050610e08565b600181901b9050610cfc565b5060006040518060200160405280600081525092509250505b9250929050565b82610e1981611d02565b610e2257600080fd5b604051806040016040528084815260200183815250600960008681526020019081526020016000206000820151816000015560208201518160010155905050837f1d6f5e03d3f63eb58751986629a5439baee5079ff04f345becb66e23eb154e468484604051610e9392919061372f565b60405180910390a250505050565b82610eab81611d02565b610eb457600080fd5b8282600260008781526020019081526020016000209190610ed6929190612aeb565b50837fe379c1624ed7e714cc0937528a32359d69d5281337765313dba4e081b72d75788484604051610f09929190613773565b60405180910390a250505050565b600080610f2583603c611bea565b9050600081511415610f3b576000915050610f48565b610f4481612346565b9150505b919050565b60008060066000858152602001908152602001600020600060046000878152602001908152602001600020548152602001908152602001600020600084815260200190815260200160002060009054906101000a900461ffff1661ffff161415905092915050565b6060600a60008581526020019081526020016000208383604051610fda92919061366d565b90815260200160405180910390208054610ff390613c0c565b80601f016020809104026020016040519081016040528092919081815260200182805461101f90613c0c565b801561106c5780601f106110415761010080835404028352916020019161106c565b820191906000526020600020905b81548152906001019060200180831161104f57829003601f168201915b505050505090509392505050565b606060036000838152602001908152602001600020805461109a90613c0c565b80601f01602080910402602001604051908101604052809291908181526020018280546110c690613c0c565b80156111135780601f106110e857610100808354040283529160200191611113565b820191906000526020600020905b8154815290600101906020018083116110f657829003601f168201915b50505050509050919050565b8361112981611d02565b61113257600080fd5b6000846001866111429190613a98565b161461114d57600080fd5b82826000808881526020019081526020016000206000878152602001908152602001600020919061117f929190612aeb565b5083857faa121bbeef5f32f5961a2a28966e769023910fc9479059ee3495d4c1a696efe360405160405180910390a35050505050565b60606008600083815260200190815260200160002080546111d590613c0c565b80601f016020809104026020016040519081016040528092919081815260200182805461120190613c0c565b801561124e5780601f106112235761010080835404028352916020019161124e565b820191906000526020600020905b81548152906001019060200180831161123157829003601f168201915b50505050509050919050565b8261126481611d02565b61126d57600080fd5b828260086000878152602001908152602001600020919061128f929190612a65565b50837fb7d29e911041e8d9b843369e890bcb72c9388692ba48b65ac54e7214c4c348f784846040516112c2929190613867565b60405180910390a250505050565b826112da81611d02565b6112e357600080fd5b837f65412581168e88a1e60c6459d7f44ae83ad0832e670826c05a4e2476b57af75284846040516113159291906138cd565b60405180910390a2603c83141561136757837f52d7d861f09ab3d26239d492e8968629f95e9e318cf0b73bfddc441522a15fd261135184612346565b60405161135e91906136a1565b60405180910390a25b81600160008681526020019081526020016000206000858152602001908152602001600020908051906020019061139f929190612b71565b5050505050565b8173ffffffffffffffffffffffffffffffffffffffff163373ffffffffffffffffffffffffffffffffffffffff161415611415576040517f08c379a000000000000000000000000000000000000000000000000000000000815260040161140c906138ad565b60405180910390fd5b80600c60003373ffffffffffffffffffffffffffffffffffffffff1673ffffffffffffffffffffffffffffffffffffffff16815260200190815260200160002060008473ffffffffffffffffffffffffffffffffffffffff1673ffffffffffffffffffffffffffffffffffffffff16815260200190815260200160002060006101000a81548160ff0219169083151502179055508173ffffffffffffffffffffffffffffffffffffffff163373ffffffffffffffffffffffffffffffffffffffff167f17307eab39ab6107e8899845ad3d59bd9653f200f220920489ca2b5937696c318360405161150691906136f9565b60405180910390a35050565b606060056000858152602001908152602001600020600060046000878152602001908152602001600020548152602001908152602001600020600084815260200190815260200160002060008361ffff1661ffff168152602001908152602001600020805461158090613c0c565b80601f01602080910402602001604051908101604052809291908181526020018280546115ac90613c0c565b80156115f95780601f106115ce576101008083540402835291602001916115f9565b820191906000526020600020905b8154815290600101906020018083116115dc57829003601f168201915b505050505090509392505050565b60608282905067ffffffffffffffff81111561164c577f4e487b7100000000000000000000000000000000000000000000000000000000600052604160045260246000fd5b60405190808252806020026020018201604052801561167f57816020015b606081526020019060019003908161166a5790505b50905060005b838390508110156117ac576000803073ffffffffffffffffffffffffffffffffffffffff168686858181106116e3577f4e487b7100000000000000000000000000000000000000000000000000000000600052603260045260246000fd5b90506020028101906116f591906138fd565b60405161170392919061363d565b600060405180830381855af49150503d806000811461173e576040519150601f19603f3d011682016040523d82523d6000602084013e611743565b606091505b50915091508161175257600080fd5b8084848151811061178c577f4e487b7100000000000000000000000000000000000000000000000000000000600052603260045260246000fd5b6020026020010181905250505080806117a490613c9a565b915050611685565b5092915050565b806117bd81611d02565b6117c657600080fd5b6004600083815260200190815260200160002060008154809291906117ea90613c9a565b9190505550817fb757169b8492ca2f1c6619d9d76ce22803035c3b1d5f6930dffe7b127c1a198360405160405180910390a25050565b606060026000838152602001908152602001600020805461184090613c0c565b80601f016020809104026020016040519081016040528092919081815260200182805461186c90613c0c565b80156118b95780601f1061188e576101008083540402835291602001916118b9565b820191906000526020600020905b81548152906001019060200180831161189c57829003601f168201915b50505050509050919050565b6000806009600084815260200190815260200160002060000154600960008581526020019081526020016000206001015491509150915091565b8261190981611d02565b61191257600080fd5b600060036000868152602001908152602001600020805461193290613c0c565b80601f016020809104026020016040519081016040528092919081815260200182805461195e90613c0c565b80156119ab5780601f10611980576101008083540402835291602001916119ab565b820191906000526020600020905b81548152906001019060200180831161198e57829003601f168201915b5050505050905083836003600088815260200190815260200160002091906119d4929190612aeb565b50847f8f15ed4b723ef428f250961da8315675b507046737e19319fc1a4d81bfe87f85828686604051611a09939291906137b9565b60405180910390a25050505050565b81611a2281611d02565b611a2b57600080fd5b611a3f83603c611a3a85612369565b6112d0565b505050565b82611a4e81611d02565b611a5757600080fd5b81600760008681526020019081526020016000206000857bffffffffffffffffffffffffffffffffffffffffffffffffffffffff19167bffffffffffffffffffffffffffffffffffffffffffffffffffffffff1916815260200190815260200160002060006101000a81548173ffffffffffffffffffffffffffffffffffffffff021916908373ffffffffffffffffffffffffffffffffffffffff160217905550827bffffffffffffffffffffffffffffffffffffffffffffffffffffffff1916847f7c69f06bea0bdef565b709e93a147836b0063ba2dd89f02d0b7e8d931e6a6daa84604051611b489190613686565b60405180910390a350505050565b6000600c60008473ffffffffffffffffffffffffffffffffffffffff1673ffffffffffffffffffffffffffffffffffffffff16815260200190815260200160002060008373ffffffffffffffffffffffffffffffffffffffff1673ffffffffffffffffffffffffffffffffffffffff16815260200190815260200160002060009054906101000a900460ff16905092915050565b60606001600084815260200190815260200160002060008381526020019081526020016000208054611c1b90613c0c565b80601f0160208091040260200160405190810160405280929190818152602001828054611c4790613c0c565b8015611c945780601f10611c6957610100808354040283529160200191611c94565b820191906000526020600020905b815481529060010190602001808311611c7757829003601f168201915b5050505050905092915050565b60006359d1d43c60e01b7bffffffffffffffffffffffffffffffffffffffffffffffffffffffff1916827bffffffffffffffffffffffffffffffffffffffffffffffffffffffff19161480611cfb5750611cfa826123f3565b5b9050919050565b600080600b60009054906101000a900473ffffffffffffffffffffffffffffffffffffffff1673ffffffffffffffffffffffffffffffffffffffff166302571be3846040518263ffffffff1660e01b8152600401611d609190613714565b60206040518083038186803b158015611d7857600080fd5b505afa158015611d8c573d6000803e3d6000fd5b505050506040513d601f19601f82011682018060405250810190611db09190612e78565b90503373ffffffffffffffffffffffffffffffffffffffff168173ffffffffffffffffffffffffffffffffffffffff161480611df25750611df18133611b56565b5b915050919050565b611e02612bf7565b828160000181905250818160c0018181525050611e1e816121fc565b92915050565b6000816000015151826020015110159050919050565b6060611e6a8260200151611e5684600001518560200151612454565b84600001516124f79092919063ffffffff16565b9050919050565b6060611ea38260a001518360a001518460c00151611e8f9190613a98565b84600001516124f79092919063ffffffff16565b9050919050565b600081518351148015611ec95750611ec883600084600087516125b2565b5b905092915050565b6000600460008981526020019081526020016000205490506000878051906020012090506000611f0c8686896124f79092919063ffffffff16565b9050831561207e576000600560008c81526020019081526020016000206000858152602001908152602001600020600084815260200190815260200160002060008a61ffff1661ffff1681526020019081526020016000208054611f6f90613c0c565b905014611fe557600660008b815260200190815260200160002060008481526020019081526020016000206000838152602001908152602001600020600081819054906101000a900461ffff1680929190611fc990613be2565b91906101000a81548161ffff021916908361ffff160217905550505b600560008b81526020019081526020016000206000848152602001908152602001600020600083815260200190815260200160002060008961ffff1661ffff168152602001908152602001600020600061203f9190612c42565b897f03528ed0c2a3ebc993b12ce3c16bb382f9c7d88ef7d8a1bf290eaf35955a12078a8a6040516120719291906137f2565b60405180910390a26121f0565b6000600560008c81526020019081526020016000206000858152602001908152602001600020600084815260200190815260200160002060008a61ffff1661ffff16815260200190815260200160002080546120d990613c0c565b9050141561215057600660008b815260200190815260200160002060008481526020019081526020016000206000838152602001908152602001600020600081819054906101000a900461ffff168092919061213490613c6f565b91906101000a81548161ffff021916908361ffff160217905550505b80600560008c81526020019081526020016000206000858152602001908152602001600020600084815260200190815260200160002060008a61ffff1661ffff16815260200190815260200160002090805190602001906121b2929190612b71565b50897f52a608b3303a48862d07a73d82fa221318c0027fbbcfb1b2329bface3f19ff2b8a8a846040516121e793929190613822565b60405180910390a25b50505050505050505050565b8060c0015181602001818152505080600001515181602001511061221f57612343565b600061223382600001518360200151612454565b82602001516122429190613a42565b905061225b8183600001516125d690919063ffffffff16565b826040019061ffff16908161ffff168152505060028161227b9190613a42565b90506122948183600001516125d690919063ffffffff16565b826060019061ffff16908161ffff16815250506002816122b49190613a42565b90506122cd81836000015161260590919063ffffffff16565b826080019063ffffffff16908163ffffffff16815250506004816122f19190613a42565b9050600061230c8284600001516125d690919063ffffffff16565b61ffff16905060028261231f9190613a42565b9150818360a001818152505080826123379190613a42565b8360c001818152505050505b50565b6000601482511461235657600080fd5b600c6101000a6020830151049050919050565b6060601467ffffffffffffffff8111156123ac577f4e487b7100000000000000000000000000000000000000000000000000000000600052604160045260246000fd5b6040519080825280601f01601f1916602001820160405280156123de5781602001600182028036833780820191505090505b509050600c6101000a82026020820152919050565b600063c869023360e01b7bffffffffffffffffffffffffffffffffffffffffffffffffffffffff1916827bffffffffffffffffffffffffffffffffffffffffffffffffffffffff1916148061244d575061244c82612636565b5b9050919050565b6000808290505b6001156124e25783518110612499577f4e487b7100000000000000000000000000000000000000000000000000000000600052600160045260246000fd5b60006124ae828661269790919063ffffffff16565b60ff1690506001816124c09190613a42565b826124cb9190613a42565b915060008114156124dc57506124e2565b5061245b565b82816124ee9190613a98565b91505092915050565b6060835182846125079190613a42565b111561251257600080fd5b60008267ffffffffffffffff811115612554577f4e487b7100000000000000000000000000000000000000000000000000000000600052604160045260246000fd5b6040519080825280601f01601f1916602001820160405280156125865781602001600182028036833780820191505090505b50905060008060208301915085602088010190506125a58282876126e8565b8293505050509392505050565b60006125bf84848461274c565b6125ca87878561274c565b14905095945050505050565b600082516002836125e79190613a42565b11156125f257600080fd5b61ffff8260028501015116905092915050565b600082516004836126169190613a42565b111561262157600080fd5b63ffffffff8260048501015116905092915050565b600063691f343160e01b7bffffffffffffffffffffffffffffffffffffffffffffffffffffffff1916827bffffffffffffffffffffffffffffffffffffffffffffffffffffffff19161480612690575061268f82612778565b5b9050919050565b60008282815181106126d2577f4e487b7100000000000000000000000000000000000000000000000000000000600052603260045260246000fd5b602001015160f81c60f81b60f81c905092915050565b5b6020811061272757815183526020836127029190613a42565b92506020826127119190613a42565b91506020816127209190613a98565b90506126e9565b60006001826020036101000a0390508019835116818551168181178652505050505050565b60008351828461275c9190613a42565b111561276757600080fd5b818360208601012090509392505050565b60007f124a319c1247f4318c3c16c7e9cc865d0fb5d80d7bf02f56cafc0d14da0208507bffffffffffffffffffffffffffffffffffffffffffffffffffffffff1916827bffffffffffffffffffffffffffffffffffffffffffffffffffffffff191614806127eb57506127ea826127f2565b5b9050919050565b600063a8fa568260e01b7bffffffffffffffffffffffffffffffffffffffffffffffffffffffff1916827bffffffffffffffffffffffffffffffffffffffffffffffffffffffff1916148061288b5750635c47637c60e01b7bffffffffffffffffffffffffffffffffffffffffffffffffffffffff1916827bffffffffffffffffffffffffffffffffffffffffffffffffffffffff1916145b8061289b575061289a826128a2565b5b9050919050565b600063bc1c58d160e01b7bffffffffffffffffffffffffffffffffffffffffffffffffffffffff1916827bffffffffffffffffffffffffffffffffffffffffffffffffffffffff191614806128fc57506128fb82612903565b5b9050919050565b6000633b3b57de60e01b7bffffffffffffffffffffffffffffffffffffffffffffffffffffffff1916827bffffffffffffffffffffffffffffffffffffffffffffffffffffffff1916148061299c575063f1cb7e0660e01b7bffffffffffffffffffffffffffffffffffffffffffffffffffffffff1916827bffffffffffffffffffffffffffffffffffffffffffffffffffffffff1916145b806129ac57506129ab826129b3565b5b9050919050565b6000632203ab5660e01b7bffffffffffffffffffffffffffffffffffffffffffffffffffffffff1916827bffffffffffffffffffffffffffffffffffffffffffffffffffffffff19161480612a0d5750612a0c82612a14565b5b9050919050565b60006301ffc9a760e01b7bffffffffffffffffffffffffffffffffffffffffffffffffffffffff1916827bffffffffffffffffffffffffffffffffffffffffffffffffffffffff1916149050919050565b828054612a7190613c0c565b90600052602060002090601f016020900481019282612a935760008555612ada565b82601f10612aac57803560ff1916838001178555612ada565b82800160010185558215612ada579182015b82811115612ad9578235825591602001919060010190612abe565b5b509050612ae79190612c82565b5090565b828054612af790613c0c565b90600052602060002090601f016020900481019282612b195760008555612b60565b82601f10612b3257803560ff1916838001178555612b60565b82800160010185558215612b60579182015b82811115612b5f578235825591602001919060010190612b44565b5b509050612b6d9190612c82565b5090565b828054612b7d90613c0c565b90600052602060002090601f016020900481019282612b9f5760008555612be6565b82601f10612bb857805160ff1916838001178555612be6565b82800160010185558215612be6579182015b82811115612be5578251825591602001919060010190612bca565b5b509050612bf39190612c82565b5090565b6040518060e001604052806060815260200160008152602001600061ffff168152602001600061ffff168152602001600063ffffffff16815260200160008152602001600081525090565b508054612c4e90613c0c565b6000825580601f10612c605750612c7f565b601f016020900490600052602060002090810190612c7e9190612c82565b5b50565b5b80821115612c9b576000816000905550600101612c83565b5090565b6000612cb2612cad84613979565b613954565b905082815260208101848484011115612cca57600080fd5b612cd5848285613ba0565b509392505050565b600081359050612cec81613dd0565b92915050565b600081519050612d0181613dd0565b92915050565b60008083601f840112612d1957600080fd5b8235905067ffffffffffffffff811115612d3257600080fd5b602083019150836020820283011115612d4a57600080fd5b9250929050565b600081359050612d6081613de7565b92915050565b600081359050612d7581613dfe565b92915050565b600081359050612d8a81613e15565b92915050565b60008083601f840112612da257600080fd5b8235905067ffffffffffffffff811115612dbb57600080fd5b602083019150836001820283011115612dd357600080fd5b9250929050565b600082601f830112612deb57600080fd5b8135612dfb848260208601612c9f565b91505092915050565b60008083601f840112612e1657600080fd5b8235905067ffffffffffffffff811115612e2f57600080fd5b602083019150836001820283011115612e4757600080fd5b9250929050565b600081359050612e5d81613e2c565b92915050565b600081359050612e7281613e43565b92915050565b600060208284031215612e8a57600080fd5b6000612e9884828501612cf2565b91505092915050565b60008060408385031215612eb457600080fd5b6000612ec285828601612cdd565b9250506020612ed385828601612cdd565b9150509250929050565b60008060408385031215612ef057600080fd5b6000612efe85828601612cdd565b9250506020612f0f85828601612d51565b9150509250929050565b60008060208385031215612f2c57600080fd5b600083013567ffffffffffffffff811115612f4657600080fd5b612f5285828601612d07565b92509250509250929050565b600060208284031215612f7057600080fd5b6000612f7e84828501612d66565b91505092915050565b60008060408385031215612f9a57600080fd5b6000612fa885828601612d66565b9250506020612fb985828601612cdd565b9150509250929050565b60008060408385031215612fd657600080fd5b6000612fe485828601612d66565b9250506020612ff585828601612d66565b9150509250929050565b60008060006060848603121561301457600080fd5b600061302286828701612d66565b935050602061303386828701612d66565b925050604061304486828701612d66565b9150509250925092565b60008060006060848603121561306357600080fd5b600061307186828701612d66565b935050602061308286828701612d66565b925050604061309386828701612e4e565b9150509250925092565b600080604083850312156130b057600080fd5b60006130be85828601612d66565b92505060206130cf85828601612d7b565b9150509250929050565b6000806000606084860312156130ee57600080fd5b60006130fc86828701612d66565b935050602061310d86828701612d7b565b925050604061311e86828701612cdd565b9150509250925092565b60008060006040848603121561313d57600080fd5b600061314b86828701612d66565b935050602084013567ffffffffffffffff81111561316857600080fd5b61317486828701612d90565b92509250509250925092565b60008060006040848603121561319557600080fd5b60006131a386828701612d66565b935050602084013567ffffffffffffffff8111156131c057600080fd5b6131cc86828701612e04565b92509250509250925092565b6000806000806000606086880312156131f057600080fd5b60006131fe88828901612d66565b955050602086013567ffffffffffffffff81111561321b57600080fd5b61322788828901612e04565b9450945050604086013567ffffffffffffffff81111561324657600080fd5b61325288828901612e04565b92509250509295509295909350565b6000806040838503121561327457600080fd5b600061328285828601612d66565b925050602061329385828601612e63565b9150509250929050565b600080600080606085870312156132b357600080fd5b60006132c187828801612d66565b94505060206132d287828801612e63565b935050604085013567ffffffffffffffff8111156132ef57600080fd5b6132fb87828801612d90565b925092505092959194509250565b60008060006060848603121561331e57600080fd5b600061332c86828701612d66565b935050602061333d86828701612e63565b925050604084013567ffffffffffffffff81111561335a57600080fd5b61336686828701612dda565b9150509250925092565b60006020828403121561338257600080fd5b600061339084828501612d7b565b91505092915050565b60006133a583836134ce565b905092915050565b6133b681613b6a565b82525050565b6133c581613ade565b82525050565b6133d481613acc565b82525050565b60006133e5826139ba565b6133ef81856139e8565b935083602082028501613401856139aa565b8060005b8581101561343d578484038952815161341e8582613399565b9450613429836139db565b925060208a01995050600181019050613405565b50829750879550505050505092915050565b61345881613af0565b82525050565b61346781613afc565b82525050565b61347681613b06565b82525050565b60006134888385613a0a565b9350613495838584613ba0565b61349e83613d70565b840190509392505050565b60006134b58385613a1b565b93506134c2838584613ba0565b82840190509392505050565b60006134d9826139c5565b6134e381856139f9565b93506134f3818560208601613baf565b6134fc81613d70565b840191505092915050565b6000613512826139c5565b61351c8185613a0a565b935061352c818560208601613baf565b61353581613d70565b840191505092915050565b600061354b826139c5565b6135558185613a1b565b9350613565818560208601613baf565b80840191505092915050565b600061357d8385613a26565b935061358a838584613ba0565b61359383613d70565b840190509392505050565b60006135aa8385613a37565b93506135b7838584613ba0565b82840190509392505050565b60006135ce826139d0565b6135d88185613a26565b93506135e8818560208601613baf565b6135f181613d70565b840191505092915050565b6000613609602983613a26565b915061361482613d81565b604082019050919050565b61362881613b32565b82525050565b61363781613b60565b82525050565b600061364a8284866134a9565b91508190509392505050565b60006136628284613540565b915081905092915050565b600061367a82848661359e565b91508190509392505050565b600060208201905061369b60008301846133cb565b92915050565b60006020820190506136b660008301846133ad565b92915050565b60006020820190506136d160008301846133bc565b92915050565b600060208201905081810360008301526136f181846133da565b905092915050565b600060208201905061370e600083018461344f565b92915050565b6000602082019050613729600083018461345e565b92915050565b6000604082019050613744600083018561345e565b613751602083018461345e565b9392505050565b600060208201905061376d600083018461346d565b92915050565b6000602082019050818103600083015261378e81848661347c565b90509392505050565b600060208201905081810360008301526137b18184613507565b905092915050565b600060408201905081810360008301526137d38186613507565b905081810360208301526137e881848661347c565b9050949350505050565b6000604082019050818103600083015261380c8185613507565b905061381b602083018461361f565b9392505050565b6000606082019050818103600083015261383c8186613507565b905061384b602083018561361f565b818103604083015261385d8184613507565b9050949350505050565b60006020820190508181036000830152613882818486613571565b90509392505050565b600060208201905081810360008301526138a581846135c3565b905092915050565b600060208201905081810360008301526138c6816135fc565b9050919050565b60006040820190506138e2600083018561362e565b81810360208301526138f48184613507565b90509392505050565b6000808335600160200384360303811261391657600080fd5b80840192508235915067ffffffffffffffff82111561393457600080fd5b60208301925060018202360383131561394c57600080fd5b509250929050565b600061395e61396f565b905061396a8282613c3e565b919050565b6000604051905090565b600067ffffffffffffffff82111561399457613993613d41565b5b61399d82613d70565b9050602081019050919050565b6000819050602082019050919050565b600081519050919050565b600081519050919050565b600081519050919050565b6000602082019050919050565b600082825260208201905092915050565b600082825260208201905092915050565b600082825260208201905092915050565b600081905092915050565b600082825260208201905092915050565b600081905092915050565b6000613a4d82613b60565b9150613a5883613b60565b9250827fffffffffffffffffffffffffffffffffffffffffffffffffffffffffffffffff03821115613a8d57613a8c613ce3565b5b828201905092915050565b6000613aa382613b60565b9150613aae83613b60565b925082821015613ac157613ac0613ce3565b5b828203905092915050565b6000613ad782613b40565b9050919050565b6000613ae982613b40565b9050919050565b60008115159050919050565b6000819050919050565b60007fffffffff0000000000000000000000000000000000000000000000000000000082169050919050565b600061ffff82169050919050565b600073ffffffffffffffffffffffffffffffffffffffff82169050919050565b6000819050919050565b6000613b7582613b7c565b9050919050565b6000613b8782613b8e565b9050919050565b6000613b9982613b40565b9050919050565b82818337600083830152505050565b60005b83811015613bcd578082015181840152602081019050613bb2565b83811115613bdc576000848401525b50505050565b6000613bed82613b32565b91506000821415613c0157613c00613ce3565b5b600182039050919050565b60006002820490506001821680613c2457607f821691505b60208210811415613c3857613c37613d12565b5b50919050565b613c4782613d70565b810181811067ffffffffffffffff82111715613c6657613c65613d41565b5b80604052505050565b6000613c7a82613b32565b915061ffff821415613c8f57613c8e613ce3565b5b600182019050919050565b6000613ca582613b60565b91507fffffffffffffffffffffffffffffffffffffffffffffffffffffffffffffffff821415613cd857613cd7613ce3565b5b600182019050919050565b7f4e487b7100000000000000000000000000000000000000000000000000000000600052601160045260246000fd5b7f4e487b7100000000000000000000000000000000000000000000000000000000600052602260045260246000fd5b7f4e487b7100000000000000000000000000000000000000000000000000000000600052604160045260246000fd5b6000601f19601f8301169050919050565b7f455243313135353a2073657474696e6720617070726f76616c2073746174757360008201527f20666f722073656c660000000000000000000000000000000000000000000000602082015250565b613dd981613acc565b8114613de457600080fd5b50565b613df081613af0565b8114613dfb57600080fd5b50565b613e0781613afc565b8114613e1257600080fd5b50565b613e1e81613b06565b8114613e2957600080fd5b50565b613e3581613b32565b8114613e4057600080fd5b50565b613e4c81613b60565b8114613e5757600080fd5b5056fea26469706673582212208b1b38ee81409c816144f7cbbbd9671496d41f11815354709d4a162ee28b81ee64736f6c63430008040033",
  "immutableReferences": {},
  "source": "// SPDX-License-Identifier: MIT\r\npragma solidity ^0.8.4;\r\n\r\npragma experimental ABIEncoderV2;\r\n\r\nimport \"./ENSRegistry.sol\";\r\nimport \"@ensdomains/ens-contracts/contracts/resolvers/profiles/ABIResolver.sol\";\r\nimport \"@ensdomains/ens-contracts/contracts/resolvers/profiles/AddrResolver.sol\";\r\nimport \"@ensdomains/ens-contracts/contracts/resolvers/profiles/ContentHashResolver.sol\";\r\nimport \"@ensdomains/ens-contracts/contracts/resolvers/profiles/DNSResolver.sol\";\r\nimport \"@ensdomains/ens-contracts/contracts/resolvers/profiles/InterfaceResolver.sol\";\r\nimport \"@ensdomains/ens-contracts/contracts/resolvers/profiles/NameResolver.sol\";\r\nimport \"@ensdomains/ens-contracts/contracts/resolvers/profiles/PubkeyResolver.sol\";\r\nimport \"@ensdomains/ens-contracts/contracts/resolvers/profiles/TextResolver.sol\";\r\n\r\n/**\r\n * A simple resolver anyone can use; only allows the owner of a node to set its\r\n * address.\r\n */\r\ncontract PublicResolver is ABIResolver, AddrResolver, ContentHashResolver, DNSResolver, InterfaceResolver, NameResolver, PubkeyResolver, TextResolver {\r\n    ENS ens;\r\n    /**\r\n     * A mapping of operators. An address that is authorised for an address\r\n     * may make any changes to the name that the owner could, but may not update\r\n     * the set of authorisations.\r\n     * (owner, operator) => approved\r\n     */\r\n    mapping(address => mapping(address => bool)) private _operatorApprovals;\r\n\r\n    // Logged when an operator is added or removed.\r\n    event ApprovalForAll(address indexed owner, address indexed operator, bool approved);\r\n\r\n    constructor(ENS _ens){\r\n        ens = _ens;\r\n    }\r\n\r\n    /**\r\n     * @dev See {IERC1155-setApprovalForAll}.\r\n     */\r\n    function setApprovalForAll(address operator, bool approved) external{\r\n        require(\r\n            msg.sender != operator,\r\n            \"ERC1155: setting approval status for self\"\r\n        );\r\n\r\n        _operatorApprovals[msg.sender][operator] = approved;\r\n        emit ApprovalForAll(msg.sender, operator, approved);\r\n    }\r\n\r\n    function isAuthorised(bytes32 node) internal override view returns(bool) {\r\n        address owner = ens.owner(node);\r\n        return owner == msg.sender || isApprovedForAll(owner, msg.sender);\r\n    }\r\n\r\n    /**\r\n     * @dev See {IERC1155-isApprovedForAll}.\r\n     */\r\n    function isApprovedForAll(address account, address operator) public view returns (bool){\r\n        return _operatorApprovals[account][operator];\r\n    }\r\n\r\n    function multicall(bytes[] calldata data) external returns(bytes[] memory results) {\r\n        results = new bytes[](data.length);\r\n        for(uint i = 0; i < data.length; i++) {\r\n            (bool success, bytes memory result) = address(this).delegatecall(data[i]);\r\n            require(success);\r\n            results[i] = result;\r\n        }\r\n        return results;\r\n    }\r\n\r\n    function supportsInterface(bytes4 interfaceID) virtual override(ABIResolver, AddrResolver, ContentHashResolver, DNSResolver, InterfaceResolver, NameResolver, PubkeyResolver, TextResolver) public pure returns(bool) {\r\n        return super.supportsInterface(interfaceID);\r\n    }\r\n}",
  "sourcePath": "D:\\Posao-Stefan\\Stefan-razno\\Blockchain\\Thetaboard\\core-contracts\\contracts\\PublicResolver.sol",
  "compiler": {
    "name": "solc",
    "version": "0.8.4+commit.c7e474f2.Emscripten.clang"
  },
  "schemaVersion": "3.4.3",
  "updatedAt": "2021-10-08T09:04:08.278Z",
  "networkType": "ethereum",
  "devdoc": {
    "kind": "dev",
    "methods": {
      "ABI(bytes32,uint256)": {
        "params": {
          "contentTypes": "A bitwise OR of the ABI formats accepted by the caller.",
          "node": "The ENS node to query"
        },
        "returns": {
          "_0": "contentType The content type of the return value",
          "_1": "data The ABI data"
        }
      },
      "addr(bytes32)": {
        "params": {
          "node": "The ENS node to query."
        },
        "returns": {
          "_0": "The associated address."
        }
      },
      "clearDNSZone(bytes32)": {
        "params": {
          "node": "the namehash of the node for which to clear the zone"
        }
      },
      "contenthash(bytes32)": {
        "params": {
          "node": "The ENS node to query."
        },
        "returns": {
          "_0": "The associated contenthash."
        }
      },
      "dnsRecord(bytes32,bytes32,uint16)": {
        "params": {
          "name": "the keccak-256 hash of the fully-qualified name for which to fetch the record",
          "node": "the namehash of the node for which to fetch the record",
          "resource": "the ID of the resource as per https://en.wikipedia.org/wiki/List_of_DNS_record_types"
        },
        "returns": {
          "_0": "the DNS record in wire format if present, otherwise empty"
        }
      },
      "hasDNSRecords(bytes32,bytes32)": {
        "params": {
          "name": "the namehash of the node for which to check the records",
          "node": "the namehash of the node for which to check the records"
        }
      },
      "interfaceImplementer(bytes32,bytes4)": {
        "params": {
          "interfaceID": "The EIP 165 interface ID to check for.",
          "node": "The ENS node to query."
        },
        "returns": {
          "_0": "The address that implements this interface, or 0 if the interface is unsupported."
        }
      },
      "isApprovedForAll(address,address)": {
        "details": "See {IERC1155-isApprovedForAll}."
      },
      "name(bytes32)": {
        "params": {
          "node": "The ENS node to query."
        },
        "returns": {
          "_0": "The associated name."
        }
      },
      "pubkey(bytes32)": {
        "params": {
          "node": "The ENS node to query"
        },
        "returns": {
          "x": "The X coordinate of the curve point for the public key.",
          "y": "The Y coordinate of the curve point for the public key."
        }
      },
      "setABI(bytes32,uint256,bytes)": {
        "params": {
          "contentType": "The content type of the ABI",
          "data": "The ABI data.",
          "node": "The node to update."
        }
      },
      "setAddr(bytes32,address)": {
        "params": {
          "a": "The address to set.",
          "node": "The node to update."
        }
      },
      "setApprovalForAll(address,bool)": {
        "details": "See {IERC1155-setApprovalForAll}."
      },
      "setContenthash(bytes32,bytes)": {
        "params": {
          "hash": "The contenthash to set",
          "node": "The node to update."
        }
      },
      "setDNSRecords(bytes32,bytes)": {
        "params": {
          "data": "the DNS wire format records to set",
          "node": "the namehash of the node for which to set the records"
        }
      },
      "setInterface(bytes32,bytes4,address)": {
        "params": {
          "implementer": "The address of a contract that implements this interface for this node.",
          "interfaceID": "The EIP 165 interface ID.",
          "node": "The node to update."
        }
      },
      "setName(bytes32,string)": {
        "params": {
          "name": "The name to set.",
          "node": "The node to update."
        }
      },
      "setPubkey(bytes32,bytes32,bytes32)": {
        "params": {
          "node": "The ENS node to query",
          "x": "the X coordinate of the curve point for the public key.",
          "y": "the Y coordinate of the curve point for the public key."
        }
      },
      "setText(bytes32,string,string)": {
        "params": {
          "key": "The key to set.",
          "node": "The node to update.",
          "value": "The text data value to set."
        }
      },
      "setZonehash(bytes32,bytes)": {
        "params": {
          "hash": "The zonehash to set",
          "node": "The node to update."
        }
      },
      "text(bytes32,string)": {
        "params": {
          "key": "The text data key to query.",
          "node": "The ENS node to query."
        },
        "returns": {
          "_0": "The associated text data."
        }
      },
      "zonehash(bytes32)": {
        "params": {
          "node": "The ENS node to query."
        },
        "returns": {
          "_0": "The associated contenthash."
        }
      }
    },
    "version": 1
  },
  "userdoc": {
    "kind": "user",
    "methods": {
      "ABI(bytes32,uint256)": {
        "notice": "Returns the ABI associated with an ENS node. Defined in EIP205."
      },
      "addr(bytes32)": {
        "notice": "Returns the address associated with an ENS node."
      },
      "clearDNSZone(bytes32)": {
        "notice": "Clear all information for a DNS zone."
      },
      "contenthash(bytes32)": {
        "notice": "Returns the contenthash associated with an ENS node."
      },
      "dnsRecord(bytes32,bytes32,uint16)": {
        "notice": "Obtain a DNS record."
      },
      "hasDNSRecords(bytes32,bytes32)": {
        "notice": "Check if a given node has records."
      },
      "interfaceImplementer(bytes32,bytes4)": {
        "notice": "Returns the address of a contract that implements the specified interface for this name. If an implementer has not been set for this interfaceID and name, the resolver will query the contract at `addr()`. If `addr()` is set, a contract exists at that address, and that contract implements EIP165 and returns `true` for the specified interfaceID, its address will be returned."
      },
      "name(bytes32)": {
        "notice": "Returns the name associated with an ENS node, for reverse records. Defined in EIP181."
      },
      "pubkey(bytes32)": {
        "notice": "Returns the SECP256k1 public key associated with an ENS node. Defined in EIP 619."
      },
      "setABI(bytes32,uint256,bytes)": {
        "notice": "Sets the ABI associated with an ENS node. Nodes may have one ABI of each content type. To remove an ABI, set it to the empty string."
      },
      "setAddr(bytes32,address)": {
        "notice": "Sets the address associated with an ENS node. May only be called by the owner of that node in the ENS registry."
      },
      "setContenthash(bytes32,bytes)": {
        "notice": "Sets the contenthash associated with an ENS node. May only be called by the owner of that node in the ENS registry."
      },
      "setDNSRecords(bytes32,bytes)": {
        "notice": "Set one or more DNS records.  Records are supplied in wire-format. Records with the same node/name/resource must be supplied one after the other to ensure the data is updated correctly. For example, if the data was supplied:     a.example.com IN A 1.2.3.4     a.example.com IN A 5.6.7.8     www.example.com IN CNAME a.example.com. then this would store the two A records for a.example.com correctly as a single RRSET, however if the data was supplied:     a.example.com IN A 1.2.3.4     www.example.com IN CNAME a.example.com.     a.example.com IN A 5.6.7.8 then this would store the first A record, the CNAME, then the second A record which would overwrite the first."
      },
      "setInterface(bytes32,bytes4,address)": {
        "notice": "Sets an interface associated with a name. Setting the address to 0 restores the default behaviour of querying the contract at `addr()` for interface support."
      },
      "setName(bytes32,string)": {
        "notice": "Sets the name associated with an ENS node, for reverse records. May only be called by the owner of that node in the ENS registry."
      },
      "setPubkey(bytes32,bytes32,bytes32)": {
        "notice": "Sets the SECP256k1 public key associated with an ENS node."
      },
      "setText(bytes32,string,string)": {
        "notice": "Sets the text data associated with an ENS node and key. May only be called by the owner of that node in the ENS registry."
      },
      "setZonehash(bytes32,bytes)": {
        "notice": "setZonehash sets the hash for the zone. May only be called by the owner of that node in the ENS registry."
      },
      "text(bytes32,string)": {
        "notice": "Returns the text data associated with an ENS node and key."
      },
      "zonehash(bytes32)": {
        "notice": "zonehash obtains the hash for the zone."
      }
    },
    "notice": "A simple resolver anyone can use; only allows the owner of a node to set its address.",
    "version": 1
  }
}