{
  "contractName": "ReverseRegistrar",
  "abi": [
    {
      "inputs": [
        {
          "internalType": "contract ENS",
          "name": "ensAddr",
          "type": "address"
        },
        {
          "internalType": "contract NameResolver",
          "name": "resolverAddr",
          "type": "address"
        }
      ],
      "stateMutability": "nonpayable",
      "type": "constructor"
    },
    {
      "anonymous": false,
      "inputs": [
        {
          "indexed": true,
          "internalType": "address",
          "name": "controller",
          "type": "address"
        },
        {
          "indexed": false,
          "internalType": "bool",
          "name": "enabled",
          "type": "bool"
        }
      ],
      "name": "ControllerChanged",
      "type": "event"
    },
    {
      "anonymous": false,
      "inputs": [
        {
          "indexed": true,
          "internalType": "address",
          "name": "previousOwner",
          "type": "address"
        },
        {
          "indexed": true,
          "internalType": "address",
          "name": "newOwner",
          "type": "address"
        }
      ],
      "name": "OwnershipTransferred",
      "type": "event"
    },
    {
      "anonymous": false,
      "inputs": [
        {
          "indexed": true,
          "internalType": "address",
          "name": "addr",
          "type": "address"
        },
        {
          "indexed": true,
          "internalType": "bytes32",
          "name": "node",
          "type": "bytes32"
        }
      ],
      "name": "ReverseClaimed",
      "type": "event"
    },
    {
      "inputs": [
        {
          "internalType": "address",
          "name": "",
          "type": "address"
        }
      ],
      "name": "controllers",
      "outputs": [
        {
          "internalType": "bool",
          "name": "",
          "type": "bool"
        }
      ],
      "stateMutability": "view",
      "type": "function",
      "constant": true
    },
    {
      "inputs": [],
      "name": "defaultResolver",
      "outputs": [
        {
          "internalType": "contract NameResolver",
          "name": "",
          "type": "address"
        }
      ],
      "stateMutability": "view",
      "type": "function",
      "constant": true
    },
    {
      "inputs": [],
      "name": "ens",
      "outputs": [
        {
          "internalType": "contract ENS",
          "name": "",
          "type": "address"
        }
      ],
      "stateMutability": "view",
      "type": "function",
      "constant": true
    },
    {
      "inputs": [],
      "name": "owner",
      "outputs": [
        {
          "internalType": "address",
          "name": "",
          "type": "address"
        }
      ],
      "stateMutability": "view",
      "type": "function",
      "constant": true
    },
    {
      "inputs": [],
      "name": "renounceOwnership",
      "outputs": [],
      "stateMutability": "nonpayable",
      "type": "function"
    },
    {
      "inputs": [
        {
          "internalType": "address",
          "name": "controller",
          "type": "address"
        },
        {
          "internalType": "bool",
          "name": "enabled",
          "type": "bool"
        }
      ],
      "name": "setController",
      "outputs": [],
      "stateMutability": "nonpayable",
      "type": "function"
    },
    {
      "inputs": [
        {
          "internalType": "address",
          "name": "newOwner",
          "type": "address"
        }
      ],
      "name": "transferOwnership",
      "outputs": [],
      "stateMutability": "nonpayable",
      "type": "function"
    },
    {
      "inputs": [
        {
          "internalType": "address",
          "name": "owner",
          "type": "address"
        }
      ],
      "name": "claim",
      "outputs": [
        {
          "internalType": "bytes32",
          "name": "",
          "type": "bytes32"
        }
      ],
      "stateMutability": "nonpayable",
      "type": "function"
    },
    {
      "inputs": [
        {
          "internalType": "address",
          "name": "addr",
          "type": "address"
        },
        {
          "internalType": "address",
          "name": "owner",
          "type": "address"
        }
      ],
      "name": "claimForAddr",
      "outputs": [
        {
          "internalType": "bytes32",
          "name": "",
          "type": "bytes32"
        }
      ],
      "stateMutability": "nonpayable",
      "type": "function"
    },
    {
      "inputs": [
        {
          "internalType": "address",
          "name": "owner",
          "type": "address"
        },
        {
          "internalType": "address",
          "name": "resolver",
          "type": "address"
        }
      ],
      "name": "claimWithResolver",
      "outputs": [
        {
          "internalType": "bytes32",
          "name": "",
          "type": "bytes32"
        }
      ],
      "stateMutability": "nonpayable",
      "type": "function"
    },
    {
      "inputs": [
        {
          "internalType": "address",
          "name": "addr",
          "type": "address"
        },
        {
          "internalType": "address",
          "name": "owner",
          "type": "address"
        },
        {
          "internalType": "address",
          "name": "resolver",
          "type": "address"
        }
      ],
      "name": "claimWithResolverForAddr",
      "outputs": [
        {
          "internalType": "bytes32",
          "name": "",
          "type": "bytes32"
        }
      ],
      "stateMutability": "nonpayable",
      "type": "function"
    },
    {
      "inputs": [
        {
          "internalType": "string",
          "name": "_name",
          "type": "string"
        }
      ],
      "name": "setName",
      "outputs": [
        {
          "internalType": "bytes32",
          "name": "",
          "type": "bytes32"
        }
      ],
      "stateMutability": "nonpayable",
      "type": "function"
    },
    {
      "inputs": [
        {
          "internalType": "address",
          "name": "addr",
          "type": "address"
        },
        {
          "internalType": "address",
          "name": "owner",
          "type": "address"
        },
        {
          "internalType": "string",
          "name": "name",
          "type": "string"
        }
      ],
      "name": "setNameForAddr",
      "outputs": [
        {
          "internalType": "bytes32",
          "name": "",
          "type": "bytes32"
        }
      ],
      "stateMutability": "nonpayable",
      "type": "function"
    },
    {
      "inputs": [
        {
          "internalType": "address",
          "name": "addr",
          "type": "address"
        }
      ],
      "name": "node",
      "outputs": [
        {
          "internalType": "bytes32",
          "name": "",
          "type": "bytes32"
        }
      ],
      "stateMutability": "pure",
      "type": "function",
      "constant": true
    }
  ],
  "bytecode": "0x60806040523480156200001157600080fd5b506040516200216338038062002163833981810160405281019062000037919062000402565b620000576200004b6200028260201b60201c565b6200028a60201b60201c565b81600260006101000a81548173ffffffffffffffffffffffffffffffffffffffff021916908373ffffffffffffffffffffffffffffffffffffffff16021790555080600360006101000a81548173ffffffffffffffffffffffffffffffffffffffff021916908373ffffffffffffffffffffffffffffffffffffffff1602179055506000600260009054906101000a900473ffffffffffffffffffffffffffffffffffffffff1673ffffffffffffffffffffffffffffffffffffffff166302571be37f91d1777781884d03a6757a803996e38de2a42967fb37eeaca72729271025a9e260001b6040518263ffffffff1660e01b81526004016200015b919062000482565b60206040518083038186803b1580156200017457600080fd5b505afa15801562000189573d6000803e3d6000fd5b505050506040513d601f19601f82011682018060405250810190620001af9190620003aa565b9050600073ffffffffffffffffffffffffffffffffffffffff168173ffffffffffffffffffffffffffffffffffffffff161462000279578073ffffffffffffffffffffffffffffffffffffffff16631e83409a336040518263ffffffff1660e01b815260040162000221919062000465565b602060405180830381600087803b1580156200023c57600080fd5b505af115801562000251573d6000803e3d6000fd5b505050506040513d601f19601f82011682018060405250810190620002779190620003d6565b505b5050506200056d565b600033905090565b60008060009054906101000a900473ffffffffffffffffffffffffffffffffffffffff169050816000806101000a81548173ffffffffffffffffffffffffffffffffffffffff021916908373ffffffffffffffffffffffffffffffffffffffff1602179055508173ffffffffffffffffffffffffffffffffffffffff168173ffffffffffffffffffffffffffffffffffffffff167f8be0079c531659141344cd1fd0a4f28419497f9722a3daafe3b4186f6b6457e060405160405180910390a35050565b6000815190506200035f8162000505565b92915050565b60008151905062000376816200051f565b92915050565b6000815190506200038d8162000539565b92915050565b600081519050620003a48162000553565b92915050565b600060208284031215620003bd57600080fd5b6000620003cd848285016200034e565b91505092915050565b600060208284031215620003e957600080fd5b6000620003f98482850162000365565b91505092915050565b600080604083850312156200041657600080fd5b600062000426858286016200037c565b9250506020620004398582860162000393565b9150509250929050565b6200044e816200049f565b82525050565b6200045f81620004b3565b82525050565b60006020820190506200047c600083018462000443565b92915050565b600060208201905062000499600083018462000454565b92915050565b6000620004ac82620004e5565b9050919050565b6000819050919050565b6000620004ca826200049f565b9050919050565b6000620004de826200049f565b9050919050565b600073ffffffffffffffffffffffffffffffffffffffff82169050919050565b62000510816200049f565b81146200051c57600080fd5b50565b6200052a81620004b3565b81146200053657600080fd5b50565b6200054481620004bd565b81146200055057600080fd5b50565b6200055e81620004d1565b81146200056a57600080fd5b50565b611be6806200057d6000396000f3fe608060405234801561001057600080fd5b50600436106100ea5760003560e01c80638d9522b81161008c578063c47f002711610066578063c47f002714610273578063da8c229e146102a3578063e0dba60f146102d3578063f2fde38b146102ef576100ea565b80638d9522b8146101f55780638da5cb5b14610225578063bffbe61c14610243576100ea565b80633f15457f116100c85780633f15457f1461017f5780634709bf4b1461019d578063715018a6146101cd578063828eab0e146101d7576100ea565b80630ccc4a7f146100ef5780630f5a54661461011f5780631e83409a1461014f575b600080fd5b6101096004803603810190610104919061140b565b61030b565b604051610116919061172e565b60405180910390f35b610139600480360381019061013491906113cf565b6104a9565b604051610146919061172e565b60405180910390f35b6101696004803603810190610164919061137d565b6104be565b604051610176919061172e565b60405180910390f35b6101876104d3565b6040516101949190611803565b60405180910390f35b6101b760048036038101906101b291906113cf565b6104f9565b6040516101c4919061172e565b60405180910390f35b6101d5610697565b005b6101df61071f565b6040516101ec919061181e565b60405180910390f35b61020f600480360381019061020a919061145a565b610745565b60405161021c919061172e565b60405180910390f35b61022d610a77565b60405161023a91906116cf565b60405180910390f35b61025d6004803603810190610258919061137d565b610aa0565b60405161026a919061172e565b60405180910390f35b61028d6004803603810190610288919061154f565b610afd565b60405161029a919061172e565b60405180910390f35b6102bd60048036038101906102b8919061137d565b610bc7565b6040516102ca9190611713565b60405180910390f35b6102ed60048036038101906102e891906114c1565b610be7565b005b6103096004803603810190610304919061137d565b610d0c565b005b6000833373ffffffffffffffffffffffffffffffffffffffff168173ffffffffffffffffffffffffffffffffffffffff1614806103915750600160003373ffffffffffffffffffffffffffffffffffffffff1673ffffffffffffffffffffffffffffffffffffffff16815260200190815260200160002060009054906101000a900460ff165b806104455750600260009054906101000a900473ffffffffffffffffffffffffffffffffffffffff1673ffffffffffffffffffffffffffffffffffffffff1663e985e9c582336040518363ffffffff1660e01b81526004016103f49291906116ea565b60206040518083038186803b15801561040c57600080fd5b505afa158015610420573d6000803e3d6000fd5b505050506040513d601f19601f8201168201806040525081019061044491906114fd565b5b80610455575061045481610e04565b5b610494576040517f08c379a000000000000000000000000000000000000000000000000000000000815260040161048b90611879565b60405180910390fd5b61049f858585610ec2565b9150509392505050565b60006104b6338484610ec2565b905092915050565b60006104cc33836000610ec2565b9050919050565b600260009054906101000a900473ffffffffffffffffffffffffffffffffffffffff1681565b6000823373ffffffffffffffffffffffffffffffffffffffff168173ffffffffffffffffffffffffffffffffffffffff16148061057f5750600160003373ffffffffffffffffffffffffffffffffffffffff1673ffffffffffffffffffffffffffffffffffffffff16815260200190815260200160002060009054906101000a900460ff165b806106335750600260009054906101000a900473ffffffffffffffffffffffffffffffffffffffff1673ffffffffffffffffffffffffffffffffffffffff1663e985e9c582336040518363ffffffff1660e01b81526004016105e29291906116ea565b60206040518083038186803b1580156105fa57600080fd5b505afa15801561060e573d6000803e3d6000fd5b505050506040513d601f19601f8201168201806040525081019061063291906114fd565b5b80610643575061064281610e04565b5b610682576040517f08c379a000000000000000000000000000000000000000000000000000000000815260040161067990611879565b60405180910390fd5b61068e84846000610ec2565b91505092915050565b61069f611158565b73ffffffffffffffffffffffffffffffffffffffff166106bd610a77565b73ffffffffffffffffffffffffffffffffffffffff1614610713576040517f08c379a000000000000000000000000000000000000000000000000000000000815260040161070a90611859565b60405180910390fd5b61071d6000611160565b565b600360009054906101000a900473ffffffffffffffffffffffffffffffffffffffff1681565b6000833373ffffffffffffffffffffffffffffffffffffffff168173ffffffffffffffffffffffffffffffffffffffff1614806107cb5750600160003373ffffffffffffffffffffffffffffffffffffffff1673ffffffffffffffffffffffffffffffffffffffff16815260200190815260200160002060009054906101000a900460ff165b8061087f5750600260009054906101000a900473ffffffffffffffffffffffffffffffffffffffff1673ffffffffffffffffffffffffffffffffffffffff1663e985e9c582336040518363ffffffff1660e01b815260040161082e9291906116ea565b60206040518083038186803b15801561084657600080fd5b505afa15801561085a573d6000803e3d6000fd5b505050506040513d601f19601f8201168201806040525081019061087e91906114fd565b5b8061088f575061088e81610e04565b5b6108ce576040517f08c379a00000000000000000000000000000000000000000000000000000000081526004016108c590611879565b60405180910390fd5b60006108fd8630600360009054906101000a900473ffffffffffffffffffffffffffffffffffffffff16610ec2565b9050600360009054906101000a900473ffffffffffffffffffffffffffffffffffffffff1673ffffffffffffffffffffffffffffffffffffffff16637737221382866040518363ffffffff1660e01b815260040161095c9291906117d3565b600060405180830381600087803b15801561097657600080fd5b505af115801561098a573d6000803e3d6000fd5b50505050600260009054906101000a900473ffffffffffffffffffffffffffffffffffffffff1673ffffffffffffffffffffffffffffffffffffffff166306ab59237f91d1777781884d03a6757a803996e38de2a42967fb37eeaca72729271025a9e260001b6109f989611224565b886040518463ffffffff1660e01b8152600401610a1893929190611749565b602060405180830381600087803b158015610a3257600080fd5b505af1158015610a46573d6000803e3d6000fd5b505050506040513d601f19601f82011682018060405250810190610a6a9190611526565b5080925050509392505050565b60008060009054906101000a900473ffffffffffffffffffffffffffffffffffffffff16905090565b60007f91d1777781884d03a6757a803996e38de2a42967fb37eeaca72729271025a9e260001b610acf83611224565b604051602001610ae09291906116a3565b604051602081830303815290604052805190602001209050919050565b600080610b2d3330600360009054906101000a900473ffffffffffffffffffffffffffffffffffffffff16610ec2565b9050600360009054906101000a900473ffffffffffffffffffffffffffffffffffffffff1673ffffffffffffffffffffffffffffffffffffffff16637737221382856040518363ffffffff1660e01b8152600401610b8c9291906117d3565b600060405180830381600087803b158015610ba657600080fd5b505af1158015610bba573d6000803e3d6000fd5b5050505080915050919050565b60016020528060005260406000206000915054906101000a900460ff1681565b610bef611158565b73ffffffffffffffffffffffffffffffffffffffff16610c0d610a77565b73ffffffffffffffffffffffffffffffffffffffff1614610c63576040517f08c379a0000000000000000000000000000000000000000000000000000000008152600401610c5a90611859565b60405180910390fd5b80600160008473ffffffffffffffffffffffffffffffffffffffff1673ffffffffffffffffffffffffffffffffffffffff16815260200190815260200160002060006101000a81548160ff0219169083151502179055508173ffffffffffffffffffffffffffffffffffffffff167f4c97694570a07277810af7e5669ffd5f6a2d6b74b6e9a274b8b870fd5114cf8782604051610d009190611713565b60405180910390a25050565b610d14611158565b73ffffffffffffffffffffffffffffffffffffffff16610d32610a77565b73ffffffffffffffffffffffffffffffffffffffff1614610d88576040517f08c379a0000000000000000000000000000000000000000000000000000000008152600401610d7f90611859565b60405180910390fd5b600073ffffffffffffffffffffffffffffffffffffffff168173ffffffffffffffffffffffffffffffffffffffff161415610df8576040517f08c379a0000000000000000000000000000000000000000000000000000000008152600401610def90611839565b60405180910390fd5b610e0181611160565b50565b60008173ffffffffffffffffffffffffffffffffffffffff16638da5cb5b6040518163ffffffff1660e01b815260040160206040518083038186803b158015610e4c57600080fd5b505afa925050508015610e7d57506040513d601f19601f82011682018060405250810190610e7a91906113a6565b60015b610e8a5760009050610ebd565b3373ffffffffffffffffffffffffffffffffffffffff168173ffffffffffffffffffffffffffffffffffffffff16149150505b919050565b600080610ece85611224565b905060007f91d1777781884d03a6757a803996e38de2a42967fb37eeaca72729271025a9e260001b82604051602001610f089291906116a3565b6040516020818303038152906040528051906020012090506000600260009054906101000a900473ffffffffffffffffffffffffffffffffffffffff1673ffffffffffffffffffffffffffffffffffffffff16630178b8bf836040518263ffffffff1660e01b8152600401610f7d919061172e565b60206040518083038186803b158015610f9557600080fd5b505afa158015610fa9573d6000803e3d6000fd5b505050506040513d601f19601f82011682018060405250810190610fcd91906113a6565b905060008073ffffffffffffffffffffffffffffffffffffffff168673ffffffffffffffffffffffffffffffffffffffff161415801561103957508173ffffffffffffffffffffffffffffffffffffffff168673ffffffffffffffffffffffffffffffffffffffff1614155b9050600081611048578261104a565b865b9050600260009054906101000a900473ffffffffffffffffffffffffffffffffffffffff1673ffffffffffffffffffffffffffffffffffffffff16635ef2c7f07f91d1777781884d03a6757a803996e38de2a42967fb37eeaca72729271025a9e260001b878b8560006040518663ffffffff1660e01b81526004016110d3959493929190611780565b600060405180830381600087803b1580156110ed57600080fd5b505af1158015611101573d6000803e3d6000fd5b50505050838973ffffffffffffffffffffffffffffffffffffffff167f6ada868dd3058cf77a48a74489fd7963688e5464b2b0fa957ace976243270e9260405160405180910390a383955050505050509392505050565b600033905090565b60008060009054906101000a900473ffffffffffffffffffffffffffffffffffffffff169050816000806101000a81548173ffffffffffffffffffffffffffffffffffffffff021916908373ffffffffffffffffffffffffffffffffffffffff1602179055508173ffffffffffffffffffffffffffffffffffffffff168173ffffffffffffffffffffffffffffffffffffffff167f8be0079c531659141344cd1fd0a4f28419497f9722a3daafe3b4186f6b6457e060405160405180910390a35050565b600060285b600081111561129f576001810390507f3031323334353637383961626364656600000000000000000000000000000000600f84161a81536010830492506001810390507f3031323334353637383961626364656600000000000000000000000000000000600f84161a8153601083049250611229565b5060286000209050919050565b60006112bf6112ba846118be565b611899565b9050828152602081018484840111156112d757600080fd5b6112e28482856119c1565b509392505050565b6000813590506112f981611b6b565b92915050565b60008151905061130e81611b6b565b92915050565b60008135905061132381611b82565b92915050565b60008151905061133881611b82565b92915050565b60008151905061134d81611b99565b92915050565b600082601f83011261136457600080fd5b81356113748482602086016112ac565b91505092915050565b60006020828403121561138f57600080fd5b600061139d848285016112ea565b91505092915050565b6000602082840312156113b857600080fd5b60006113c6848285016112ff565b91505092915050565b600080604083850312156113e257600080fd5b60006113f0858286016112ea565b9250506020611401858286016112ea565b9150509250929050565b60008060006060848603121561142057600080fd5b600061142e868287016112ea565b935050602061143f868287016112ea565b9250506040611450868287016112ea565b9150509250925092565b60008060006060848603121561146f57600080fd5b600061147d868287016112ea565b935050602061148e868287016112ea565b925050604084013567ffffffffffffffff8111156114ab57600080fd5b6114b786828701611353565b9150509250925092565b600080604083850312156114d457600080fd5b60006114e2858286016112ea565b92505060206114f385828601611314565b9150509250929050565b60006020828403121561150f57600080fd5b600061151d84828501611329565b91505092915050565b60006020828403121561153857600080fd5b60006115468482850161133e565b91505092915050565b60006020828403121561156157600080fd5b600082013567ffffffffffffffff81111561157b57600080fd5b61158784828501611353565b91505092915050565b6115998161190b565b82525050565b6115a88161191d565b82525050565b6115b781611929565b82525050565b6115ce6115c982611929565b611a34565b82525050565b6115dd81611967565b82525050565b6115ec8161198b565b82525050565b6115fb816119af565b82525050565b600061160c826118ef565b61161681856118fa565b93506116268185602086016119d0565b61162f81611a6d565b840191505092915050565b60006116476026836118fa565b915061165282611a7e565b604082019050919050565b600061166a6020836118fa565b915061167582611acd565b602082019050919050565b600061168d6049836118fa565b915061169882611af6565b606082019050919050565b60006116af82856115bd565b6020820191506116bf82846115bd565b6020820191508190509392505050565b60006020820190506116e46000830184611590565b92915050565b60006040820190506116ff6000830185611590565b61170c6020830184611590565b9392505050565b6000602082019050611728600083018461159f565b92915050565b600060208201905061174360008301846115ae565b92915050565b600060608201905061175e60008301866115ae565b61176b60208301856115ae565b6117786040830184611590565b949350505050565b600060a08201905061179560008301886115ae565b6117a260208301876115ae565b6117af6040830186611590565b6117bc6060830185611590565b6117c960808301846115f2565b9695505050505050565b60006040820190506117e860008301856115ae565b81810360208301526117fa8184611601565b90509392505050565b600060208201905061181860008301846115d4565b92915050565b600060208201905061183360008301846115e3565b92915050565b600060208201905081810360008301526118528161163a565b9050919050565b600060208201905081810360008301526118728161165d565b9050919050565b6000602082019050818103600083015261189281611680565b9050919050565b60006118a36118b4565b90506118af8282611a03565b919050565b6000604051905090565b600067ffffffffffffffff8211156118d9576118d8611a3e565b5b6118e282611a6d565b9050602081019050919050565b600081519050919050565b600082825260208201905092915050565b600061191682611933565b9050919050565b60008115159050919050565b6000819050919050565b600073ffffffffffffffffffffffffffffffffffffffff82169050919050565b600067ffffffffffffffff82169050919050565b600061197282611979565b9050919050565b600061198482611933565b9050919050565b60006119968261199d565b9050919050565b60006119a882611933565b9050919050565b60006119ba82611953565b9050919050565b82818337600083830152505050565b60005b838110156119ee5780820151818401526020810190506119d3565b838111156119fd576000848401525b50505050565b611a0c82611a6d565b810181811067ffffffffffffffff82111715611a2b57611a2a611a3e565b5b80604052505050565b6000819050919050565b7f4e487b7100000000000000000000000000000000000000000000000000000000600052604160045260246000fd5b6000601f19601f8301169050919050565b7f4f776e61626c653a206e6577206f776e657220697320746865207a65726f206160008201527f6464726573730000000000000000000000000000000000000000000000000000602082015250565b7f4f776e61626c653a2063616c6c6572206973206e6f7420746865206f776e6572600082015250565b7f43616c6c6572206973206e6f74206120636f6e74726f6c6c6572206f7220617560008201527f74686f72697365642062792061646472657373206f722074686520616464726560208201527f737320697473656c660000000000000000000000000000000000000000000000604082015250565b611b748161190b565b8114611b7f57600080fd5b50565b611b8b8161191d565b8114611b9657600080fd5b50565b611ba281611929565b8114611bad57600080fd5b5056fea2646970667358221220f9bc3f7af46acef3dbf5f5448fe748c196b1272dedbc348f69d187d574a47a0d64736f6c63430008040033",
  "immutableReferences": {},
  "source": "// SPDX-License-Identifier: MIT\r\npragma solidity >=0.8.4;\r\n\r\nimport \"@openzeppelin/contracts/access/Ownable.sol\";\r\nimport \"./ENSRegistry.sol\";\r\nimport \"./abstract_contracts/NameResolver.sol\";\r\nimport \"./utils/Controllable.sol\";\r\n\r\ncontract ReverseRegistrar is Ownable, Controllable {\r\n    \r\n    bytes32 constant lookup = 0x3031323334353637383961626364656600000000000000000000000000000000;\r\n\r\n    bytes32 constant ADDR_REVERSE_NODE = 0x91d1777781884d03a6757a803996e38de2a42967fb37eeaca72729271025a9e2;\r\n\r\n    ENS public ens;\r\n    NameResolver public defaultResolver;\r\n\r\n    event ReverseClaimed(address indexed addr, bytes32 indexed node);\r\n\r\n    /**\r\n     * @dev Constructor\r\n     * @param ensAddr The address of the ENS registry.\r\n     * @param resolverAddr The address of the default reverse resolver.\r\n     */\r\n    constructor(ENS ensAddr, NameResolver resolverAddr) {\r\n        ens = ensAddr;\r\n        defaultResolver = resolverAddr;\r\n\r\n        // Assign ownership of the reverse record to our deployer\r\n        ReverseRegistrar oldRegistrar = ReverseRegistrar(\r\n            ens.owner(ADDR_REVERSE_NODE)\r\n        );\r\n        if (address(oldRegistrar) != address(0x0)) {\r\n            oldRegistrar.claim(msg.sender);\r\n        }\r\n    }\r\n\r\n    modifier authorised(address addr) {\r\n        require(\r\n            addr == msg.sender ||\r\n                controllers[msg.sender] ||\r\n                ens.isApprovedForAll(addr, msg.sender) ||\r\n                ownsContract(addr),\r\n            \"Caller is not a controller or authorised by address or the address itself\"\r\n        );\r\n        _;\r\n    }\r\n\r\n    /**\r\n     * @dev Transfers ownership of the reverse ENS record associated with the\r\n     *      calling account.\r\n     * @param owner The address to set as the owner of the reverse record in ENS.\r\n     * @return The ENS node hash of the reverse record.\r\n     */\r\n    function claim(address owner) public returns (bytes32) {\r\n        return _claimWithResolver(msg.sender, owner, address(0x0));\r\n    }\r\n\r\n    /**\r\n     * @dev Transfers ownership of the reverse ENS record associated with the\r\n     *      calling account.\r\n     * @param addr The reverse record to set\r\n     * @param owner The address to set as the owner of the reverse record in ENS.\r\n     * @return The ENS node hash of the reverse record.\r\n     */\r\n    function claimForAddr(address addr, address owner) public authorised(addr) returns (bytes32) {\r\n        return _claimWithResolver(addr, owner, address(0x0));\r\n    }\r\n\r\n    /**\r\n     * @dev Transfers ownership of the reverse ENS record associated with the\r\n     *      calling account.\r\n     * @param owner The address to set as the owner of the reverse record in ENS.\r\n     * @param resolver The address of the resolver to set; 0 to leave unchanged.\r\n     * @return The ENS node hash of the reverse record.\r\n     */\r\n    function claimWithResolver(address owner, address resolver) public returns (bytes32) {\r\n        return _claimWithResolver(msg.sender, owner, resolver);\r\n    }\r\n\r\n    /**\r\n     * @dev Transfers ownership of the reverse ENS record specified with the\r\n     *      address provided\r\n     * @param addr The reverse record to set\r\n     * @param owner The address to set as the owner of the reverse record in ENS.\r\n     * @param resolver The address of the resolver to set; 0 to leave unchanged.\r\n     * @return The ENS node hash of the reverse record.\r\n     */\r\n    function claimWithResolverForAddr(\r\n        address addr,\r\n        address owner,\r\n        address resolver\r\n    ) public authorised(addr) returns (bytes32) {\r\n        return _claimWithResolver(addr, owner, resolver);\r\n    }\r\n\r\n    /**\r\n     * @dev Sets the `name()` record for the reverse ENS record associated with\r\n     * the calling account. First updates the resolver to the default reverse\r\n     * resolver if necessary.\r\n     * @param _name The name to set for this address.\r\n     * @return The ENS node hash of the reverse record.\r\n     */\r\n    function setName(string memory _name) public returns (bytes32) {\r\n        bytes32 _node = _claimWithResolver(\r\n            msg.sender,\r\n            address(this),\r\n            address(defaultResolver)\r\n        );\r\n        defaultResolver.setName(_node, _name);\r\n        return _node;\r\n    }\r\n\r\n    /**\r\n     * @dev Sets the `name()` record for the reverse ENS record associated with\r\n     * the account provided. First updates the resolver to the default reverse\r\n     * resolver if necessary.\r\n     * Only callable by controllers and authorised users\r\n     * @param addr The reverse record to set\r\n     * @param owner The owner of the reverse node\r\n     * @param name The name to set for this address.\r\n     * @return The ENS node hash of the reverse record.\r\n     */\r\n    function setNameForAddr(\r\n        address addr,\r\n        address owner,\r\n        string memory name\r\n    ) public authorised(addr) returns (bytes32) {\r\n        bytes32 _node = _claimWithResolver(\r\n            addr,\r\n            address(this),\r\n            address(defaultResolver)\r\n        );\r\n        defaultResolver.setName(_node, name);\r\n        ens.setSubnodeOwner(ADDR_REVERSE_NODE, sha3HexAddress(addr), owner);\r\n        return _node;\r\n    }\r\n\r\n    /**\r\n     * @dev Returns the node hash for a given account's reverse records.\r\n     * @param addr The address to hash\r\n     * @return The ENS node hash.\r\n     */\r\n    function node(address addr) public pure returns (bytes32) {\r\n        return\r\n            keccak256(\r\n                abi.encodePacked(ADDR_REVERSE_NODE, sha3HexAddress(addr))\r\n            );\r\n    }\r\n\r\n    /**\r\n     * @dev An optimised function to compute the sha3 of the lower-case\r\n     *      hexadecimal representation of an Ethereum address.\r\n     * @param addr The address to hash\r\n     * @return ret The SHA3 hash of the lower-case hexadecimal encoding of the\r\n     *         input address.\r\n     */\r\n    function sha3HexAddress(address addr) private pure returns (bytes32 ret) {\r\n        assembly {\r\n            for {\r\n                let i := 40\r\n            } gt(i, 0) {\r\n\r\n            } {\r\n                i := sub(i, 1)\r\n                mstore8(i, byte(and(addr, 0xf), lookup))\r\n                addr := div(addr, 0x10)\r\n                i := sub(i, 1)\r\n                mstore8(i, byte(and(addr, 0xf), lookup))\r\n                addr := div(addr, 0x10)\r\n            }\r\n\r\n            ret := keccak256(0, 40)\r\n        }\r\n    }\r\n\r\n    /* Internal functions */\r\n\r\n    function _claimWithResolver(\r\n        address addr,\r\n        address owner,\r\n        address resolver\r\n    ) internal returns (bytes32) {\r\n        bytes32 label = sha3HexAddress(addr);\r\n        bytes32 _node = keccak256(abi.encodePacked(ADDR_REVERSE_NODE, label));\r\n        address currentResolver = ens.resolver(_node);\r\n        bool shouldUpdateResolver = (resolver != address(0x0) &&\r\n            resolver != currentResolver);\r\n        address newResolver = shouldUpdateResolver ? resolver : currentResolver;\r\n\r\n        ens.setSubnodeRecord(ADDR_REVERSE_NODE, label, owner, newResolver, 0);\r\n\r\n        emit ReverseClaimed(addr, _node);\r\n\r\n        return _node;\r\n    }\r\n\r\n    function ownsContract(address addr) internal view returns (bool) {\r\n        try Ownable(addr).owner() returns (address owner) {\r\n            return owner == msg.sender;\r\n        } catch {\r\n            return false;\r\n        }\r\n    }\r\n}",
  "sourcePath": "D:\\Posao-Stefan\\Stefan-razno\\Blockchain\\Thetaboard\\core-contracts\\contracts\\ReverseRegistrar.sol",
  "compiler": {
    "name": "solc",
    "version": "0.8.4+commit.c7e474f2.Emscripten.clang"
  },
  "schemaVersion": "3.4.3",
  "updatedAt": "2021-10-08T09:04:08.320Z",
  "networkType": "ethereum",
  "devdoc": {
    "kind": "dev",
    "methods": {
      "claim(address)": {
        "details": "Transfers ownership of the reverse ENS record associated with the      calling account.",
        "params": {
          "owner": "The address to set as the owner of the reverse record in ENS."
        },
        "returns": {
          "_0": "The ENS node hash of the reverse record."
        }
      },
      "claimForAddr(address,address)": {
        "details": "Transfers ownership of the reverse ENS record associated with the      calling account.",
        "params": {
          "addr": "The reverse record to set",
          "owner": "The address to set as the owner of the reverse record in ENS."
        },
        "returns": {
          "_0": "The ENS node hash of the reverse record."
        }
      },
      "claimWithResolver(address,address)": {
        "details": "Transfers ownership of the reverse ENS record associated with the      calling account.",
        "params": {
          "owner": "The address to set as the owner of the reverse record in ENS.",
          "resolver": "The address of the resolver to set; 0 to leave unchanged."
        },
        "returns": {
          "_0": "The ENS node hash of the reverse record."
        }
      },
      "claimWithResolverForAddr(address,address,address)": {
        "details": "Transfers ownership of the reverse ENS record specified with the      address provided",
        "params": {
          "addr": "The reverse record to set",
          "owner": "The address to set as the owner of the reverse record in ENS.",
          "resolver": "The address of the resolver to set; 0 to leave unchanged."
        },
        "returns": {
          "_0": "The ENS node hash of the reverse record."
        }
      },
      "constructor": {
        "details": "Constructor",
        "params": {
          "ensAddr": "The address of the ENS registry.",
          "resolverAddr": "The address of the default reverse resolver."
        }
      },
      "node(address)": {
        "details": "Returns the node hash for a given account's reverse records.",
        "params": {
          "addr": "The address to hash"
        },
        "returns": {
          "_0": "The ENS node hash."
        }
      },
      "owner()": {
        "details": "Returns the address of the current owner."
      },
      "renounceOwnership()": {
        "details": "Leaves the contract without owner. It will not be possible to call `onlyOwner` functions anymore. Can only be called by the current owner. NOTE: Renouncing ownership will leave the contract without an owner, thereby removing any functionality that is only available to the owner."
      },
      "setName(string)": {
        "details": "Sets the `name()` record for the reverse ENS record associated with the calling account. First updates the resolver to the default reverse resolver if necessary.",
        "params": {
          "_name": "The name to set for this address."
        },
        "returns": {
          "_0": "The ENS node hash of the reverse record."
        }
      },
      "setNameForAddr(address,address,string)": {
        "details": "Sets the `name()` record for the reverse ENS record associated with the account provided. First updates the resolver to the default reverse resolver if necessary. Only callable by controllers and authorised users",
        "params": {
          "addr": "The reverse record to set",
          "name": "The name to set for this address.",
          "owner": "The owner of the reverse node"
        },
        "returns": {
          "_0": "The ENS node hash of the reverse record."
        }
      },
      "transferOwnership(address)": {
        "details": "Transfers ownership of the contract to a new account (`newOwner`). Can only be called by the current owner."
      }
    },
    "version": 1
  },
  "userdoc": {
    "kind": "user",
    "methods": {},
    "version": 1
  }
}